{
  "_format": "hh-sol-artifact-1",
  "contractName": "NFTMarket",
  "sourceName": "contracts/NFTMarket.sol",
  "abi": [
    {
      "inputs": [],
      "stateMutability": "nonpayable",
      "type": "constructor"
    },
    {
      "anonymous": false,
      "inputs": [
        {
          "indexed": true,
          "internalType": "uint256",
          "name": "itemId",
          "type": "uint256"
        },
        {
          "indexed": true,
          "internalType": "address",
          "name": "nftContract",
          "type": "address"
        },
        {
          "indexed": true,
          "internalType": "uint256",
          "name": "tokenId",
          "type": "uint256"
        },
        {
          "indexed": false,
          "internalType": "address",
          "name": "seller",
          "type": "address"
        },
        {
          "indexed": false,
          "internalType": "address",
          "name": "owner",
          "type": "address"
        },
        {
          "indexed": false,
          "internalType": "address",
          "name": "firstowner",
          "type": "address"
        },
        {
          "indexed": false,
          "internalType": "uint256",
          "name": "price",
          "type": "uint256"
        },
        {
          "indexed": false,
          "internalType": "bool",
          "name": "sold",
          "type": "bool"
        }
      ],
      "name": "MarketItemCreated",
      "type": "event"
    },
    {
      "inputs": [
        {
          "internalType": "address",
          "name": "nftContract",
          "type": "address"
        },
        {
          "internalType": "uint256",
          "name": "tokenId",
          "type": "uint256"
        }
      ],
      "name": "ListNFT",
      "outputs": [],
      "stateMutability": "payable",
      "type": "function"
    },
    {
      "inputs": [],
      "name": "admin",
      "outputs": [
        {
          "internalType": "address",
          "name": "",
          "type": "address"
        }
      ],
      "stateMutability": "view",
      "type": "function"
    },
    {
      "inputs": [
        {
          "internalType": "address",
          "name": "nftContract",
          "type": "address"
        },
        {
          "internalType": "uint256",
          "name": "itemId",
          "type": "uint256"
        }
      ],
      "name": "buyNFT",
      "outputs": [],
      "stateMutability": "payable",
      "type": "function"
    },
    {
      "inputs": [
        {
          "internalType": "uint256",
          "name": "_newPrice",
          "type": "uint256"
        }
      ],
      "name": "changeListingPrice",
      "outputs": [
        {
          "internalType": "bool",
          "name": "",
          "type": "bool"
        }
      ],
      "stateMutability": "nonpayable",
      "type": "function"
    },
    {
      "inputs": [
        {
          "internalType": "uint256",
          "name": "_newPrice",
          "type": "uint256"
        }
      ],
      "name": "changeNFTPrice",
      "outputs": [
        {
          "internalType": "bool",
          "name": "",
          "type": "bool"
        }
      ],
      "stateMutability": "nonpayable",
      "type": "function"
    },
    {
      "inputs": [],
      "name": "fetchItemsCreated",
      "outputs": [
        {
          "components": [
            {
              "internalType": "uint256",
              "name": "itemId",
              "type": "uint256"
            },
            {
              "internalType": "address",
              "name": "nftContract",
              "type": "address"
            },
            {
              "internalType": "uint256",
              "name": "tokenId",
              "type": "uint256"
            },
            {
              "internalType": "address payable",
              "name": "seller",
              "type": "address"
            },
            {
              "internalType": "address payable",
              "name": "owner",
              "type": "address"
            },
            {
              "internalType": "address payable",
              "name": "firstowner",
              "type": "address"
            },
            {
              "internalType": "uint256",
              "name": "price",
              "type": "uint256"
            },
            {
              "internalType": "bool",
              "name": "sold",
              "type": "bool"
            }
          ],
          "internalType": "struct NFTMarket.MarketItem[]",
          "name": "",
          "type": "tuple[]"
        }
      ],
      "stateMutability": "view",
      "type": "function"
    },
    {
      "inputs": [],
      "name": "fetchMarketItems",
      "outputs": [
        {
          "components": [
            {
              "internalType": "uint256",
              "name": "itemId",
              "type": "uint256"
            },
            {
              "internalType": "address",
              "name": "nftContract",
              "type": "address"
            },
            {
              "internalType": "uint256",
              "name": "tokenId",
              "type": "uint256"
            },
            {
              "internalType": "address payable",
              "name": "seller",
              "type": "address"
            },
            {
              "internalType": "address payable",
              "name": "owner",
              "type": "address"
            },
            {
              "internalType": "address payable",
              "name": "firstowner",
              "type": "address"
            },
            {
              "internalType": "uint256",
              "name": "price",
              "type": "uint256"
            },
            {
              "internalType": "bool",
              "name": "sold",
              "type": "bool"
            }
          ],
          "internalType": "struct NFTMarket.MarketItem[]",
          "name": "",
          "type": "tuple[]"
        }
      ],
      "stateMutability": "view",
      "type": "function"
    },
    {
      "inputs": [],
      "name": "fetchMyNFTs",
      "outputs": [
        {
          "components": [
            {
              "internalType": "uint256",
              "name": "itemId",
              "type": "uint256"
            },
            {
              "internalType": "address",
              "name": "nftContract",
              "type": "address"
            },
            {
              "internalType": "uint256",
              "name": "tokenId",
              "type": "uint256"
            },
            {
              "internalType": "address payable",
              "name": "seller",
              "type": "address"
            },
            {
              "internalType": "address payable",
              "name": "owner",
              "type": "address"
            },
            {
              "internalType": "address payable",
              "name": "firstowner",
              "type": "address"
            },
            {
              "internalType": "uint256",
              "name": "price",
              "type": "uint256"
            },
            {
              "internalType": "bool",
              "name": "sold",
              "type": "bool"
            }
          ],
          "internalType": "struct NFTMarket.MarketItem[]",
          "name": "",
          "type": "tuple[]"
        }
      ],
      "stateMutability": "view",
      "type": "function"
    },
    {
      "inputs": [],
      "name": "getListingPrice",
      "outputs": [
        {
          "internalType": "uint256",
          "name": "",
          "type": "uint256"
        }
      ],
      "stateMutability": "view",
      "type": "function"
    },
    {
      "inputs": [
        {
          "internalType": "address payable",
          "name": "recipient",
          "type": "address"
        },
        {
          "internalType": "uint256",
          "name": "amount",
          "type": "uint256"
        }
      ],
      "name": "withDrawEth",
      "outputs": [],
      "stateMutability": "nonpayable",
      "type": "function"
    }
  ],
  "bytecode": "0x608060405265e35fa931a000600455666a94d74f43000060055534801561002557600080fd5b506001600055600380546001600160a01b031990811633908117909255600680549091169091179055610fb68061005d6000396000f3fe6080604052600436106100915760003560e01c8063ba0f1d9c11610059578063ba0f1d9c1461011c578063edc4400a1461014c578063f064c32e1461016c578063f851a44014610181578063fa3d42a3146101b957600080fd5b80630f08efe01461009657806312e85585146100c1578063202e3740146100df5780634c01c3f9146100f4578063a82ba76f14610109575b600080fd5b3480156100a257600080fd5b506100ab6101d9565b6040516100b89190610dfc565b60405180910390f35b3480156100cd57600080fd5b506004546040519081526020016100b8565b3480156100eb57600080fd5b506100ab61038e565b610107610102366004610db9565b610581565b005b610107610117366004610db9565b6107f1565b34801561012857600080fd5b5061013c610137366004610de4565b610a81565b60405190151581526020016100b8565b34801561015857600080fd5b5061013c610167366004610de4565b610ab7565b34801561017857600080fd5b506100ab610aed565b34801561018d57600080fd5b506006546101a1906001600160a01b031681565b6040516001600160a01b0390911681526020016100b8565b3480156101c557600080fd5b506101076101d4366004610db9565b610ce0565b606060006101e660015490565b905060006101f360025490565b6001546102009190610f20565b90506000808267ffffffffffffffff81111561022c57634e487b7160e01b600052604160045260246000fd5b60405190808252806020026020018201604052801561026557816020015b610252610d75565b81526020019060019003908161024a5790505b50905060005b84811015610385576000600781610283846001610ee8565b81526020810191909152604001600020600401546001600160a01b031614156103735760006102b3826001610ee8565b6000818152600760208181526040928390208351610100810185528154815260018201546001600160a01b0390811693820193909352600282015494810194909452600381015482166060850152600481015482166080850152600581015490911660a0840152600681015460c08401529081015460ff16151560e083015285519293509185908790811061035857634e487b7160e01b600052603260045260246000fd5b602090810291909101015261036e600186610ee8565b945050505b8061037d81610f37565b91505061026b565b50949350505050565b6060600061039b60015490565b905060008060005b838110156103fe5733600760006103bb846001610ee8565b81526020810191909152604001600020600401546001600160a01b031614156103ec576103e9600184610ee8565b92505b806103f681610f37565b9150506103a3565b5060008267ffffffffffffffff81111561042857634e487b7160e01b600052604160045260246000fd5b60405190808252806020026020018201604052801561046157816020015b61044e610d75565b8152602001906001900390816104465790505b50905060005b8481101561038557336007600061047f846001610ee8565b81526020810191909152604001600020600401546001600160a01b0316141561056f5760006104af826001610ee8565b6000818152600760208181526040928390208351610100810185528154815260018201546001600160a01b0390811693820193909352600282015494810194909452600381015482166060850152600481015482166080850152600581015490911660a0840152600681015460c08401529081015460ff16151560e083015285519293509185908790811061055457634e487b7160e01b600052603260045260246000fd5b602090810291909101015261056a600186610ee8565b945050505b8061057981610f37565b915050610467565b600260005414156105d95760405162461bcd60e51b815260206004820152601f60248201527f5265656e7472616e637947756172643a207265656e7472616e742063616c6c0060448201526064015b60405180910390fd5b6002600055600454341461062f5760405162461bcd60e51b815260206004820152601f60248201527f4e6f7420656e6f756768742062616c616e636520666f72206c697374696e670060448201526064016105d0565b61063d600180546001019055565b600061064860015490565b60408051610100810182528281526001600160a01b038681166020808401828152848601898152336060870181815260006080890181815260a08a018481526005805460c08d0190815260e08d018581528f865260079a8b9052948e90209c518d55975160018d0180546001600160a01b0319908116928e16929092179055965160028d0155935160038c0180548816918c1691909117905590516004808c0180548816928c16929092179091559051928a0180549095169290981691909117909255915160068701555194909101805460ff19169415159490941790935592516323b872dd60e01b81529081019190915230602482015260448101859052919250906323b872dd90606401600060405180830381600087803b15801561076e57600080fd5b505af1158015610782573d6000803e3d6000fd5b5050600554604080513380825260006020830181905292820152606081019290925260808201528492506001600160a01b038616915083907ff6a6e998cdb71a54614f951c87c07828d557c9d2d501f61d4183e344a06445c59060a00160405180910390a45050600160005550565b600260005414156108445760405162461bcd60e51b815260206004820152601f60248201527f5265656e7472616e637947756172643a207265656e7472616e742063616c6c0060448201526064016105d0565b6002600081815582815260076020526040902060068101549101543482146108d6576040805162461bcd60e51b81526020600482015260248101919091527f506c65617365207375626d6974207468652061736b696e67207072696365206960448201527f6e206f7264657220746f20636f6d706c6574652074686520707572636861736560648201526084016105d0565b60006108e3606434610f00565b6108ed9034610f20565b905060006108fc606434610f00565b6000868152600760205260408082206003015490519293506001600160a01b03169184156108fc0291859190818181858888f19350505050158015610945573d6000803e3d6000fd5b506000858152600760205260408082206005015490516001600160a01b039091169183156108fc02918491818181858888f1935050505015801561098d573d6000803e3d6000fd5b506040516323b872dd60e01b8152306004820152336024820152604481018490526001600160a01b038716906323b872dd90606401600060405180830381600087803b1580156109dc57600080fd5b505af11580156109f0573d6000803e3d6000fd5b50505060008681526007602081905260409091206004810180546001600160a01b0319163317905501805460ff1916600117905550610a33600280546001019055565b6003546001600160a01b03166108fc610a4b60045490565b6040518115909202916000818181858888f19350505050158015610a73573d6000803e3d6000fd5b505060016000555050505050565b6006546000906001600160a01b03163314610aae5760405162461bcd60e51b81526004016105d090610e9d565b50600455600190565b6006546000906001600160a01b03163314610ae45760405162461bcd60e51b81526004016105d090610e9d565b50600555600190565b60606000610afa60015490565b905060008060005b83811015610b5d573360076000610b1a846001610ee8565b81526020810191909152604001600020600301546001600160a01b03161415610b4b57610b48600184610ee8565b92505b80610b5581610f37565b915050610b02565b5060008267ffffffffffffffff811115610b8757634e487b7160e01b600052604160045260246000fd5b604051908082528060200260200182016040528015610bc057816020015b610bad610d75565b815260200190600190039081610ba55790505b50905060005b84811015610385573360076000610bde846001610ee8565b81526020810191909152604001600020600301546001600160a01b03161415610cce576000610c0e826001610ee8565b6000818152600760208181526040928390208351610100810185528154815260018201546001600160a01b0390811693820193909352600282015494810194909452600381015482166060850152600481015482166080850152600581015490911660a0840152600681015460c08401529081015460ff16151560e0830152855192935091859087908110610cb357634e487b7160e01b600052603260045260246000fd5b6020908102919091010152610cc9600186610ee8565b945050505b80610cd881610f37565b915050610bc6565b6006546001600160a01b03163314610d3a5760405162461bcd60e51b815260206004820152601f60248201527f6f6e6c79207468652061646d696e2063616e207769746864726177206574680060448201526064016105d0565b6040516001600160a01b0383169082156108fc029083906000818181858888f19350505050158015610d70573d6000803e3d6000fd5b505050565b6040805161010081018252600080825260208201819052918101829052606081018290526080810182905260a0810182905260c0810182905260e081019190915290565b60008060408385031215610dcb578182fd5b8235610dd681610f68565b946020939093013593505050565b600060208284031215610df5578081fd5b5035919050565b602080825282518282018190526000919060409081850190868401855b82811015610e9057815180518552868101516001600160a01b0390811688870152868201518787015260608083015182169087015260808083015182169087015260a0808301519091169086015260c0808201519086015260e0908101511515908501526101009093019290850190600101610e19565b5091979650505050505050565b6020808252602b908201527f6f6e6c79207468652061646d696e2063616e206368616e676520746865206c6960408201526a7374696e6720707269636560a81b606082015260800190565b60008219821115610efb57610efb610f52565b500190565b600082610f1b57634e487b7160e01b81526012600452602481fd5b500490565b600082821015610f3257610f32610f52565b500390565b6000600019821415610f4b57610f4b610f52565b5060010190565b634e487b7160e01b600052601160045260246000fd5b6001600160a01b0381168114610f7d57600080fd5b5056fea26469706673582212204798f203962526a92146b489aa7ed87cc65bb0b40813027de661f2c0792e6cd964736f6c63430008040033",
  "linkReferences": {},
  "deployedLinkReferences": {}
}