{
  "_format": "hh-sol-artifact-1",
  "contractName": "NFT",
  "sourceName": "contracts/NFT.sol",
  "abi": [
    {
      "inputs": [],
      "stateMutability": "nonpayable",
      "type": "constructor"
    },
    {
      "anonymous": false,
      "inputs": [
        {
          "indexed": true,
          "internalType": "address",
          "name": "owner",
          "type": "address"
        },
        {
          "indexed": true,
          "internalType": "address",
          "name": "approved",
          "type": "address"
        },
        {
          "indexed": true,
          "internalType": "uint256",
          "name": "tokenId",
          "type": "uint256"
        }
      ],
      "name": "Approval",
      "type": "event"
    },
    {
      "anonymous": false,
      "inputs": [
        {
          "indexed": true,
          "internalType": "address",
          "name": "owner",
          "type": "address"
        },
        {
          "indexed": true,
          "internalType": "address",
          "name": "operator",
          "type": "address"
        },
        {
          "indexed": false,
          "internalType": "bool",
          "name": "approved",
          "type": "bool"
        }
      ],
      "name": "ApprovalForAll",
      "type": "event"
    },
    {
      "anonymous": false,
      "inputs": [
        {
          "indexed": false,
          "internalType": "address",
          "name": "account",
          "type": "address"
        }
      ],
      "name": "Paused",
      "type": "event"
    },
    {
      "anonymous": false,
      "inputs": [
        {
          "indexed": true,
          "internalType": "bytes32",
          "name": "role",
          "type": "bytes32"
        },
        {
          "indexed": true,
          "internalType": "bytes32",
          "name": "previousAdminRole",
          "type": "bytes32"
        },
        {
          "indexed": true,
          "internalType": "bytes32",
          "name": "newAdminRole",
          "type": "bytes32"
        }
      ],
      "name": "RoleAdminChanged",
      "type": "event"
    },
    {
      "anonymous": false,
      "inputs": [
        {
          "indexed": true,
          "internalType": "bytes32",
          "name": "role",
          "type": "bytes32"
        },
        {
          "indexed": true,
          "internalType": "address",
          "name": "account",
          "type": "address"
        },
        {
          "indexed": true,
          "internalType": "address",
          "name": "sender",
          "type": "address"
        }
      ],
      "name": "RoleGranted",
      "type": "event"
    },
    {
      "anonymous": false,
      "inputs": [
        {
          "indexed": true,
          "internalType": "bytes32",
          "name": "role",
          "type": "bytes32"
        },
        {
          "indexed": true,
          "internalType": "address",
          "name": "account",
          "type": "address"
        },
        {
          "indexed": true,
          "internalType": "address",
          "name": "sender",
          "type": "address"
        }
      ],
      "name": "RoleRevoked",
      "type": "event"
    },
    {
      "anonymous": false,
      "inputs": [
        {
          "indexed": true,
          "internalType": "address",
          "name": "from",
          "type": "address"
        },
        {
          "indexed": true,
          "internalType": "address",
          "name": "to",
          "type": "address"
        },
        {
          "indexed": true,
          "internalType": "uint256",
          "name": "tokenId",
          "type": "uint256"
        }
      ],
      "name": "Transfer",
      "type": "event"
    },
    {
      "anonymous": false,
      "inputs": [
        {
          "indexed": false,
          "internalType": "address",
          "name": "account",
          "type": "address"
        }
      ],
      "name": "Unpaused",
      "type": "event"
    },
    {
      "inputs": [],
      "name": "DEFAULT_ADMIN_ROLE",
      "outputs": [
        {
          "internalType": "bytes32",
          "name": "",
          "type": "bytes32"
        }
      ],
      "stateMutability": "view",
      "type": "function"
    },
    {
      "inputs": [],
      "name": "_claimNft",
      "outputs": [],
      "stateMutability": "payable",
      "type": "function"
    },
    {
      "inputs": [],
      "name": "admin",
      "outputs": [
        {
          "internalType": "address",
          "name": "",
          "type": "address"
        }
      ],
      "stateMutability": "view",
      "type": "function"
    },
    {
      "inputs": [
        {
          "internalType": "address",
          "name": "to",
          "type": "address"
        },
        {
          "internalType": "uint256",
          "name": "tokenId",
          "type": "uint256"
        }
      ],
      "name": "approve",
      "outputs": [],
      "stateMutability": "nonpayable",
      "type": "function"
    },
    {
      "inputs": [
        {
          "internalType": "address",
          "name": "owner",
          "type": "address"
        }
      ],
      "name": "balanceOf",
      "outputs": [
        {
          "internalType": "uint256",
          "name": "",
          "type": "uint256"
        }
      ],
      "stateMutability": "view",
      "type": "function"
    },
    {
      "inputs": [],
      "name": "baseUrl",
      "outputs": [
        {
          "internalType": "string",
          "name": "",
          "type": "string"
        }
      ],
      "stateMutability": "view",
      "type": "function"
    },
    {
      "inputs": [
        {
          "internalType": "uint256",
          "name": "tokenId",
          "type": "uint256"
        }
      ],
      "name": "burn",
      "outputs": [],
      "stateMutability": "nonpayable",
      "type": "function"
    },
    {
      "inputs": [
        {
          "internalType": "uint256",
          "name": "_newPrice",
          "type": "uint256"
        }
      ],
      "name": "changePrice",
      "outputs": [
        {
          "internalType": "bool",
          "name": "",
          "type": "bool"
        }
      ],
      "stateMutability": "nonpayable",
      "type": "function"
    },
    {
      "inputs": [
        {
          "internalType": "uint256",
          "name": "_newinialnfts",
          "type": "uint256"
        }
      ],
      "name": "changeTotalInitialNFTs",
      "outputs": [
        {
          "internalType": "bool",
          "name": "",
          "type": "bool"
        }
      ],
      "stateMutability": "nonpayable",
      "type": "function"
    },
    {
      "inputs": [
        {
          "internalType": "string",
          "name": "_newUrl",
          "type": "string"
        }
      ],
      "name": "changeUrl",
      "outputs": [
        {
          "internalType": "bool",
          "name": "",
          "type": "bool"
        }
      ],
      "stateMutability": "nonpayable",
      "type": "function"
    },
    {
      "inputs": [
        {
          "internalType": "uint256",
          "name": "tokenId",
          "type": "uint256"
        }
      ],
      "name": "getApproved",
      "outputs": [
        {
          "internalType": "address",
          "name": "",
          "type": "address"
        }
      ],
      "stateMutability": "view",
      "type": "function"
    },
    {
      "inputs": [],
      "name": "getPrice",
      "outputs": [
        {
          "internalType": "uint256",
          "name": "",
          "type": "uint256"
        }
      ],
      "stateMutability": "view",
      "type": "function"
    },
    {
      "inputs": [
        {
          "internalType": "bytes32",
          "name": "role",
          "type": "bytes32"
        }
      ],
      "name": "getRoleAdmin",
      "outputs": [
        {
          "internalType": "bytes32",
          "name": "",
          "type": "bytes32"
        }
      ],
      "stateMutability": "view",
      "type": "function"
    },
    {
      "inputs": [
        {
          "internalType": "bytes32",
          "name": "role",
          "type": "bytes32"
        },
        {
          "internalType": "uint256",
          "name": "index",
          "type": "uint256"
        }
      ],
      "name": "getRoleMember",
      "outputs": [
        {
          "internalType": "address",
          "name": "",
          "type": "address"
        }
      ],
      "stateMutability": "view",
      "type": "function"
    },
    {
      "inputs": [
        {
          "internalType": "bytes32",
          "name": "role",
          "type": "bytes32"
        }
      ],
      "name": "getRoleMemberCount",
      "outputs": [
        {
          "internalType": "uint256",
          "name": "",
          "type": "uint256"
        }
      ],
      "stateMutability": "view",
      "type": "function"
    },
    {
      "inputs": [
        {
          "internalType": "bytes32",
          "name": "role",
          "type": "bytes32"
        },
        {
          "internalType": "address",
          "name": "account",
          "type": "address"
        }
      ],
      "name": "grantRole",
      "outputs": [],
      "stateMutability": "nonpayable",
      "type": "function"
    },
    {
      "inputs": [
        {
          "internalType": "bytes32",
          "name": "role",
          "type": "bytes32"
        },
        {
          "internalType": "address",
          "name": "account",
          "type": "address"
        }
      ],
      "name": "hasRole",
      "outputs": [
        {
          "internalType": "bool",
          "name": "",
          "type": "bool"
        }
      ],
      "stateMutability": "view",
      "type": "function"
    },
    {
      "inputs": [
        {
          "internalType": "address",
          "name": "owner",
          "type": "address"
        },
        {
          "internalType": "address",
          "name": "operator",
          "type": "address"
        }
      ],
      "name": "isApprovedForAll",
      "outputs": [
        {
          "internalType": "bool",
          "name": "",
          "type": "bool"
        }
      ],
      "stateMutability": "view",
      "type": "function"
    },
    {
      "inputs": [],
      "name": "name",
      "outputs": [
        {
          "internalType": "string",
          "name": "",
          "type": "string"
        }
      ],
      "stateMutability": "view",
      "type": "function"
    },
    {
      "inputs": [
        {
          "internalType": "uint256",
          "name": "tokenId",
          "type": "uint256"
        }
      ],
      "name": "ownerOf",
      "outputs": [
        {
          "internalType": "address",
          "name": "",
          "type": "address"
        }
      ],
      "stateMutability": "view",
      "type": "function"
    },
    {
      "inputs": [],
      "name": "pause",
      "outputs": [],
      "stateMutability": "nonpayable",
      "type": "function"
    },
    {
      "inputs": [],
      "name": "paused",
      "outputs": [
        {
          "internalType": "bool",
          "name": "",
          "type": "bool"
        }
      ],
      "stateMutability": "view",
      "type": "function"
    },
    {
      "inputs": [
        {
          "internalType": "bytes32",
          "name": "role",
          "type": "bytes32"
        },
        {
          "internalType": "address",
          "name": "account",
          "type": "address"
        }
      ],
      "name": "renounceRole",
      "outputs": [],
      "stateMutability": "nonpayable",
      "type": "function"
    },
    {
      "inputs": [
        {
          "internalType": "bytes32",
          "name": "role",
          "type": "bytes32"
        },
        {
          "internalType": "address",
          "name": "account",
          "type": "address"
        }
      ],
      "name": "revokeRole",
      "outputs": [],
      "stateMutability": "nonpayable",
      "type": "function"
    },
    {
      "inputs": [
        {
          "internalType": "address",
          "name": "from",
          "type": "address"
        },
        {
          "internalType": "address",
          "name": "to",
          "type": "address"
        },
        {
          "internalType": "uint256",
          "name": "tokenId",
          "type": "uint256"
        }
      ],
      "name": "safeTransferFrom",
      "outputs": [],
      "stateMutability": "nonpayable",
      "type": "function"
    },
    {
      "inputs": [
        {
          "internalType": "address",
          "name": "from",
          "type": "address"
        },
        {
          "internalType": "address",
          "name": "to",
          "type": "address"
        },
        {
          "internalType": "uint256",
          "name": "tokenId",
          "type": "uint256"
        },
        {
          "internalType": "bytes",
          "name": "_data",
          "type": "bytes"
        }
      ],
      "name": "safeTransferFrom",
      "outputs": [],
      "stateMutability": "nonpayable",
      "type": "function"
    },
    {
      "inputs": [
        {
          "internalType": "address",
          "name": "operator",
          "type": "address"
        },
        {
          "internalType": "bool",
          "name": "approved",
          "type": "bool"
        }
      ],
      "name": "setApprovalForAll",
      "outputs": [],
      "stateMutability": "nonpayable",
      "type": "function"
    },
    {
      "inputs": [
        {
          "internalType": "bytes4",
          "name": "interfaceId",
          "type": "bytes4"
        }
      ],
      "name": "supportsInterface",
      "outputs": [
        {
          "internalType": "bool",
          "name": "",
          "type": "bool"
        }
      ],
      "stateMutability": "view",
      "type": "function"
    },
    {
      "inputs": [],
      "name": "symbol",
      "outputs": [
        {
          "internalType": "string",
          "name": "",
          "type": "string"
        }
      ],
      "stateMutability": "view",
      "type": "function"
    },
    {
      "inputs": [
        {
          "internalType": "uint256",
          "name": "index",
          "type": "uint256"
        }
      ],
      "name": "tokenByIndex",
      "outputs": [
        {
          "internalType": "uint256",
          "name": "",
          "type": "uint256"
        }
      ],
      "stateMutability": "view",
      "type": "function"
    },
    {
      "inputs": [
        {
          "internalType": "address",
          "name": "owner",
          "type": "address"
        },
        {
          "internalType": "uint256",
          "name": "index",
          "type": "uint256"
        }
      ],
      "name": "tokenOfOwnerByIndex",
      "outputs": [
        {
          "internalType": "uint256",
          "name": "",
          "type": "uint256"
        }
      ],
      "stateMutability": "view",
      "type": "function"
    },
    {
      "inputs": [
        {
          "internalType": "uint256",
          "name": "tokenId",
          "type": "uint256"
        }
      ],
      "name": "tokenURI",
      "outputs": [
        {
          "internalType": "string",
          "name": "",
          "type": "string"
        }
      ],
      "stateMutability": "view",
      "type": "function"
    },
    {
      "inputs": [],
      "name": "tokenid",
      "outputs": [
        {
          "internalType": "uint256",
          "name": "",
          "type": "uint256"
        }
      ],
      "stateMutability": "view",
      "type": "function"
    },
    {
      "inputs": [],
      "name": "totalInialNFTS",
      "outputs": [
        {
          "internalType": "uint256",
          "name": "",
          "type": "uint256"
        }
      ],
      "stateMutability": "view",
      "type": "function"
    },
    {
      "inputs": [],
      "name": "totalSupply",
      "outputs": [
        {
          "internalType": "uint256",
          "name": "",
          "type": "uint256"
        }
      ],
      "stateMutability": "view",
      "type": "function"
    },
    {
      "inputs": [
        {
          "internalType": "address",
          "name": "from",
          "type": "address"
        },
        {
          "internalType": "address",
          "name": "to",
          "type": "address"
        },
        {
          "internalType": "uint256",
          "name": "tokenId",
          "type": "uint256"
        }
      ],
      "name": "transferFrom",
      "outputs": [],
      "stateMutability": "nonpayable",
      "type": "function"
    },
    {
      "inputs": [],
      "name": "unpause",
      "outputs": [],
      "stateMutability": "nonpayable",
      "type": "function"
    }
  ],
  "bytecode": "0x666a94d74f4300006011556001601455600a60155560c0604052601660808190527f68747470733a2f64736473647364736464736473642f0000000000000000000060a0908152620000539190816200087b565b503480156200006157600080fd5b50604080518082018252601c81527f526176696e6720476f626c696e73204552432d37323120746f6b656e000000006020808301918252835180850190945260038452621491d560ea1b908401528151919291620000c2916000916200087b565b508051620000d89060019060208401906200087b565b5050600d805460ff19169055506001600e5560128054336001600160a01b0319918216811790925560138054909116909117905560005b6015548110156200018e57620001616016620001386014546200019560201b620010a51760201c565b6040516020016200014b9291906200095d565b60408051601f19818403018152919052620002ca565b60148054906000620001738362000a96565b91905055508080620001859062000a96565b9150506200010f565b5062000af7565b606081620001ba5750506040805180820190915260018152600360fc1b602082015290565b8160005b8115620001ea5780620001d18162000a96565b9150620001e29050600a8362000a28565b9150620001be565b6000816001600160401b038111156200021357634e487b7160e01b600052604160045260246000fd5b6040519080825280601f01601f1916602001820160405280156200023e576020820181803683370190505b5090505b8415620002c2576200025660018362000a3f565b915062000265600a8662000ab4565b6200027290603062000a0d565b60f81b8183815181106200029657634e487b7160e01b600052603260045260246000fd5b60200101906001600160f81b031916908160001a905350620002ba600a8662000a28565b945062000242565b949350505050565b620002e1600f6200031860201b620011c71760201c565b6000620002fa600f6200032160201b620011d01760201c565b905062000308338262000325565b6200031481836200047f565b5050565b80546001019055565b5490565b6001600160a01b038216620003815760405162461bcd60e51b815260206004820181905260248201527f4552433732313a206d696e7420746f20746865207a65726f206164647265737360448201526064015b60405180910390fd5b6000818152600260205260409020546001600160a01b031615620003e85760405162461bcd60e51b815260206004820152601c60248201527f4552433732313a20746f6b656e20616c7265616479206d696e74656400000000604482015260640162000378565b620003f66000838362000522565b6001600160a01b03821660009081526003602052604081208054600192906200042190849062000a0d565b909155505060008181526002602052604080822080546001600160a01b0319166001600160a01b03861690811790915590518392907fddf252ad1be2c89b69c2b068fc378daa952ba7f163c4a11628f55a4df523b3ef908290a45050565b6000828152600260205260409020546001600160a01b0316620004fc5760405162461bcd60e51b815260206004820152602e60248201527f45524337323155524953746f726167653a2055524920736574206f66206e6f6e60448201526d32bc34b9ba32b73a103a37b5b2b760911b606482015260840162000378565b6000828152600a6020908152604090912082516200051d928401906200087b565b505050565b6200051d8383836200053a60201b620011d41760201c565b620005528383836200051d60201b620008f31760201c565b6001600160a01b038316620005b057620005aa81600880546000838152600960205260408120829055600182018355919091527ff3f7a9fe364faab93b216da50a3214154f22a0a2b415b23a84c8169e8b636ee30155565b620005d6565b816001600160a01b0316836001600160a01b031614620005d657620005d6838262000616565b6001600160a01b038216620005f0576200051d81620006c3565b826001600160a01b0316826001600160a01b0316146200051d576200051d8282620007a1565b600060016200063084620007f260201b62000d3a1760201c565b6200063c919062000a3f565b60008381526007602052604090205490915080821462000690576001600160a01b03841660009081526006602090815260408083208584528252808320548484528184208190558352600790915290208190555b5060009182526007602090815260408084208490556001600160a01b039094168352600681528383209183525290812055565b600854600090620006d79060019062000a3f565b600083815260096020526040812054600880549394509092849081106200070e57634e487b7160e01b600052603260045260246000fd5b9060005260206000200154905080600883815481106200073e57634e487b7160e01b600052603260045260246000fd5b60009182526020808320909101929092558281526009909152604080822084905585825281205560088054806200078557634e487b7160e01b600052603160045260246000fd5b6001900381819060005260206000200160009055905550505050565b6000620007b983620007f260201b62000d3a1760201c565b6001600160a01b039093166000908152600660209081526040808320868452825280832085905593825260079052919091209190915550565b60006001600160a01b0382166200085f5760405162461bcd60e51b815260206004820152602a60248201527f4552433732313a2062616c616e636520717565727920666f7220746865207a65604482015269726f206164647265737360b01b606482015260840162000378565b506001600160a01b031660009081526003602052604090205490565b828054620008899062000a59565b90600052602060002090601f016020900481019282620008ad5760008555620008f8565b82601f10620008c857805160ff1916838001178555620008f8565b82800160010185558215620008f8579182015b82811115620008f8578251825591602001919060010190620008db565b50620009069291506200090a565b5090565b5b808211156200090657600081556001016200090b565b60008151815b8181101562000943576020818501810151868301520162000927565b81811115620009525782828601525b509290920192915050565b600080845482600182811c9150808316806200097a57607f831692505b60208084108214156200099b57634e487b7160e01b87526022600452602487fd5b818015620009b25760018114620009c457620009f2565b60ff19861689528489019650620009f2565b60008b815260209020885b86811015620009ea5781548b820152908501908301620009cf565b505084890196505b50505050505062000a04818562000921565b95945050505050565b6000821982111562000a235762000a2362000acb565b500190565b60008262000a3a5762000a3a62000ae1565b500490565b60008282101562000a545762000a5462000acb565b500390565b600181811c9082168062000a6e57607f821691505b6020821081141562000a9057634e487b7160e01b600052602260045260246000fd5b50919050565b600060001982141562000aad5762000aad62000acb565b5060010190565b60008262000ac65762000ac662000ae1565b500690565b634e487b7160e01b600052601160045260246000fd5b634e487b7160e01b600052601260045260246000fd5b612d9a8062000b076000396000f3fe60806040526004361061021a5760003560e01c80636352211e11610123578063a217fddf116100ab578063c87b56dd1161006f578063c87b56dd146105e9578063ca15c87314610609578063d547741f14610629578063e985e9c514610649578063f851a4401461069257600080fd5b8063a217fddf14610554578063a22cb46514610569578063a2b40d1914610589578063aafdd31a146105a9578063b88d4fde146105c957600080fd5b80638456cb59116100f25780638456cb59146104d55780639010d07c146104ea57806391d148541461050a57806395d89b411461052a57806398d5fdca1461053f57600080fd5b80636352211e1461047757806370a082311461049757806372fc3b5b146104b75780637d6aab0a146104bf57600080fd5b806331b4a184116101a657806342966c681161017557806342966c68146103ea5780634f6ccce71461040a5780635bcabf041461042a5780635c975abb1461043f5780635f823d281461045757600080fd5b806331b4a1841461037f57806336568abe146103955780633f4ba83a146103b557806342842e0e146103ca57600080fd5b806318160ddd116101ed57806318160ddd146102d057806323b872dd146102ef578063248a9ca31461030f5780632f2ff15d1461033f5780632f745c591461035f57600080fd5b806301ffc9a71461021f57806306fdde0314610254578063081812fc14610276578063095ea7b3146102ae575b600080fd5b34801561022b57600080fd5b5061023f61023a3660046128c3565b6106b2565b60405190151581526020015b60405180910390f35b34801561026057600080fd5b506102696106c3565b60405161024b9190612b10565b34801561028257600080fd5b50610296610291366004612868565b610755565b6040516001600160a01b03909116815260200161024b565b3480156102ba57600080fd5b506102ce6102c936600461283f565b6107e2565b005b3480156102dc57600080fd5b506008545b60405190815260200161024b565b3480156102fb57600080fd5b506102ce61030a366004612751565b6108f8565b34801561031b57600080fd5b506102e161032a366004612868565b6000908152600b602052604090206001015490565b34801561034b57600080fd5b506102ce61035a366004612880565b61092a565b34801561036b57600080fd5b506102e161037a36600461283f565b610950565b34801561038b57600080fd5b506102e160155481565b3480156103a157600080fd5b506102ce6103b0366004612880565b6109e6565b3480156103c157600080fd5b506102ce610a64565b3480156103d657600080fd5b506102ce6103e5366004612751565b610ab6565b3480156103f657600080fd5b506102ce610405366004612868565b610ad1565b34801561041657600080fd5b506102e1610425366004612868565b610b4b565b34801561043657600080fd5b50610269610bec565b34801561044b57600080fd5b50600d5460ff1661023f565b34801561046357600080fd5b5061023f6104723660046128fb565b610c7a565b34801561048357600080fd5b50610296610492366004612868565b610cc3565b3480156104a357600080fd5b506102e16104b2366004612705565b610d3a565b6102ce610dc1565b3480156104cb57600080fd5b506102e160145481565b3480156104e157600080fd5b506102ce610f05565b3480156104f657600080fd5b506102966105053660046128a2565b610f55565b34801561051657600080fd5b5061023f610525366004612880565b610f74565b34801561053657600080fd5b50610269610f9f565b34801561054b57600080fd5b506011546102e1565b34801561056057600080fd5b506102e1600081565b34801561057557600080fd5b506102ce610584366004612805565b610fae565b34801561059557600080fd5b5061023f6105a4366004612868565b610fb9565b3480156105b557600080fd5b5061023f6105c4366004612868565b610fef565b3480156105d557600080fd5b506102ce6105e436600461278c565b611025565b3480156105f557600080fd5b50610269610604366004612868565b61105d565b34801561061557600080fd5b506102e1610624366004612868565b611068565b34801561063557600080fd5b506102ce610644366004612880565b61107f565b34801561065557600080fd5b5061023f61066436600461271f565b6001600160a01b03918216600090815260056020908152604080832093909416825291909152205460ff1690565b34801561069e57600080fd5b50601354610296906001600160a01b031681565b60006106bd8261128c565b92915050565b6060600080546106d290612ca2565b80601f01602080910402602001604051908101604052809291908181526020018280546106fe90612ca2565b801561074b5780601f106107205761010080835404028352916020019161074b565b820191906000526020600020905b81548152906001019060200180831161072e57829003601f168201915b5050505050905090565b6000610760826112b1565b6107c65760405162461bcd60e51b815260206004820152602c60248201527f4552433732313a20617070726f76656420717565727920666f72206e6f6e657860448201526b34b9ba32b73a103a37b5b2b760a11b60648201526084015b60405180910390fd5b506000908152600460205260409020546001600160a01b031690565b60006107ed82610cc3565b9050806001600160a01b0316836001600160a01b0316141561085b5760405162461bcd60e51b815260206004820152602160248201527f4552433732313a20617070726f76616c20746f2063757272656e74206f776e656044820152603960f91b60648201526084016107bd565b336001600160a01b038216148061087757506108778133610664565b6108e95760405162461bcd60e51b815260206004820152603860248201527f4552433732313a20617070726f76652063616c6c6572206973206e6f74206f7760448201527f6e6572206e6f7220617070726f76656420666f7220616c6c000000000000000060648201526084016107bd565b6108f383836112ce565b505050565b610903335b8261133c565b61091f5760405162461bcd60e51b81526004016107bd90612bac565b6108f3838383611422565b6000828152600b602052604090206001015461094681336115cd565b6108f38383611631565b600061095b83610d3a565b82106109bd5760405162461bcd60e51b815260206004820152602b60248201527f455243373231456e756d657261626c653a206f776e657220696e646578206f7560448201526a74206f6620626f756e647360a81b60648201526084016107bd565b506001600160a01b03919091166000908152600660209081526040808320938352929052205490565b6001600160a01b0381163314610a565760405162461bcd60e51b815260206004820152602f60248201527f416363657373436f6e74726f6c3a2063616e206f6e6c792072656e6f756e636560448201526e103937b632b9903337b91039b2b63360891b60648201526084016107bd565b610a608282611653565b5050565b6013546001600160a01b03163314610aac5760405162461bcd60e51b815260206004820152600b60248201526a1b9bdd08185b1b1bddd95960aa1b60448201526064016107bd565b610ab4611675565b565b6108f383838360405180602001604052806000815250611025565b610ada336108fd565b610b3f5760405162461bcd60e51b815260206004820152603060248201527f4552433732314275726e61626c653a2063616c6c6572206973206e6f74206f7760448201526f1b995c881b9bdc88185c1c1c9bdd995960821b60648201526084016107bd565b610b4881611708565b50565b6000610b5660085490565b8210610bb95760405162461bcd60e51b815260206004820152602c60248201527f455243373231456e756d657261626c653a20676c6f62616c20696e646578206f60448201526b7574206f6620626f756e647360a01b60648201526084016107bd565b60088281548110610bda57634e487b7160e01b600052603260045260246000fd5b90600052602060002001549050919050565b60168054610bf990612ca2565b80601f0160208091040260200160405190810160405280929190818152602001828054610c2590612ca2565b8015610c725780601f10610c4757610100808354040283529160200191610c72565b820191906000526020600020905b815481529060010190602001808311610c5557829003601f168201915b505050505081565b6013546000906001600160a01b03163314610ca75760405162461bcd60e51b81526004016107bd90612b23565b8151610cba9060169060208501906125a4565b50600192915050565b6000818152600260205260408120546001600160a01b0316806106bd5760405162461bcd60e51b815260206004820152602960248201527f4552433732313a206f776e657220717565727920666f72206e6f6e657869737460448201526832b73a103a37b5b2b760b91b60648201526084016107bd565b60006001600160a01b038216610da55760405162461bcd60e51b815260206004820152602a60248201527f4552433732313a2062616c616e636520717565727920666f7220746865207a65604482015269726f206164647265737360b01b60648201526084016107bd565b506001600160a01b031660009081526003602052604090205490565b6002600e541415610e145760405162461bcd60e51b815260206004820152601f60248201527f5265656e7472616e637947756172643a207265656e7472616e742063616c6c0060448201526064016107bd565b6002600e556011543414610e615760405162461bcd60e51b8152602060048201526014602482015273556e73756666696369656e742062616c616e636560601b60448201526064016107bd565b610e6f600f80546001019055565b6000610e7a600f5490565b9050610e863382611711565b60006016610e93836110a5565b604051602001610ea49291906129b8565b6040516020818303038152906040529050610ebf8282611850565b6013546011546040516001600160a01b039092169181156108fc0291906000818181858888f19350505050158015610efb573d6000803e3d6000fd5b50506001600e5550565b6013546001600160a01b03163314610f4d5760405162461bcd60e51b815260206004820152600b60248201526a1b9bdd08185b1b1bddd95960aa1b60448201526064016107bd565b610ab46118db565b6000828152600c60205260408120610f6d9083611956565b9392505050565b6000918252600b602090815260408084206001600160a01b0393909316845291905290205460ff1690565b6060600180546106d290612ca2565b610a60338383611962565b6013546000906001600160a01b03163314610fe65760405162461bcd60e51b81526004016107bd90612b23565b50601155600190565b6013546000906001600160a01b0316331461101c5760405162461bcd60e51b81526004016107bd90612b23565b50601555600190565b61102f338361133c565b61104b5760405162461bcd60e51b81526004016107bd90612bac565b61105784848484611a31565b50505050565b60606106bd82611a64565b6000818152600c602052604081206106bd90611bd3565b6000828152600b602052604090206001015461109b81336115cd565b6108f38383611653565b6060816110c95750506040805180820190915260018152600360fc1b602082015290565b8160005b81156110f357806110dd81612cdd565b91506110ec9050600a83612c15565b91506110cd565b60008167ffffffffffffffff81111561111c57634e487b7160e01b600052604160045260246000fd5b6040519080825280601f01601f191660200182016040528015611146576020820181803683370190505b5090505b84156111bf5761115b600183612c48565b9150611168600a86612cf8565b611173906030612bfd565b60f81b81838151811061119657634e487b7160e01b600052603260045260246000fd5b60200101906001600160f81b031916908160001a9053506111b8600a86612c15565b945061114a565b949350505050565b80546001019055565b5490565b6001600160a01b03831661122f5761122a81600880546000838152600960205260408120829055600182018355919091527ff3f7a9fe364faab93b216da50a3214154f22a0a2b415b23a84c8169e8b636ee30155565b611252565b816001600160a01b0316836001600160a01b031614611252576112528382611bdd565b6001600160a01b038216611269576108f381611c7a565b826001600160a01b0316826001600160a01b0316146108f3576108f38282611d53565b60006001600160e01b03198216635a05180f60e01b14806106bd57506106bd82611d97565b6000908152600260205260409020546001600160a01b0316151590565b600081815260046020526040902080546001600160a01b0319166001600160a01b038416908117909155819061130382610cc3565b6001600160a01b03167f8c5be1e5ebec7d5bd14f71427d1e84f3dd0314c0f7b2291e5b200ac8c7c3b92560405160405180910390a45050565b6000611347826112b1565b6113a85760405162461bcd60e51b815260206004820152602c60248201527f4552433732313a206f70657261746f7220717565727920666f72206e6f6e657860448201526b34b9ba32b73a103a37b5b2b760a11b60648201526084016107bd565b60006113b383610cc3565b9050806001600160a01b0316846001600160a01b031614806113ee5750836001600160a01b03166113e384610755565b6001600160a01b0316145b806111bf57506001600160a01b0380821660009081526005602090815260408083209388168352929052205460ff166111bf565b826001600160a01b031661143582610cc3565b6001600160a01b03161461149d5760405162461bcd60e51b815260206004820152602960248201527f4552433732313a207472616e73666572206f6620746f6b656e2074686174206960448201526839903737ba1037bbb760b91b60648201526084016107bd565b6001600160a01b0382166114ff5760405162461bcd60e51b8152602060048201526024808201527f4552433732313a207472616e7366657220746f20746865207a65726f206164646044820152637265737360e01b60648201526084016107bd565b61150a838383611dbc565b6115156000826112ce565b6001600160a01b038316600090815260036020526040812080546001929061153e908490612c48565b90915550506001600160a01b038216600090815260036020526040812080546001929061156c908490612bfd565b909155505060008181526002602052604080822080546001600160a01b0319166001600160a01b0386811691821790925591518493918716917fddf252ad1be2c89b69c2b068fc378daa952ba7f163c4a11628f55a4df523b3ef91a4505050565b6115d78282610f74565b610a60576115ef816001600160a01b03166014611dc7565b6115fa836020611dc7565b60405160200161160b929190612a5e565b60408051601f198184030181529082905262461bcd60e51b82526107bd91600401612b10565b61163b8282611fa9565b6000828152600c602052604090206108f3908261202f565b61165d8282612044565b6000828152600c602052604090206108f390826120ab565b600d5460ff166116be5760405162461bcd60e51b815260206004820152601460248201527314185d5cd8589b194e881b9bdd081c185d5cd95960621b60448201526064016107bd565b600d805460ff191690557f5db9ee0a495bf2e6ff9c91a7834c1ba4fdd244a5e8aa4e537bd38aeae4b073aa335b6040516001600160a01b03909116815260200160405180910390a1565b610b48816120c0565b6001600160a01b0382166117675760405162461bcd60e51b815260206004820181905260248201527f4552433732313a206d696e7420746f20746865207a65726f206164647265737360448201526064016107bd565b611770816112b1565b156117bd5760405162461bcd60e51b815260206004820152601c60248201527f4552433732313a20746f6b656e20616c7265616479206d696e7465640000000060448201526064016107bd565b6117c960008383611dbc565b6001600160a01b03821660009081526003602052604081208054600192906117f2908490612bfd565b909155505060008181526002602052604080822080546001600160a01b0319166001600160a01b03861690811790915590518392907fddf252ad1be2c89b69c2b068fc378daa952ba7f163c4a11628f55a4df523b3ef908290a45050565b611859826112b1565b6118bc5760405162461bcd60e51b815260206004820152602e60248201527f45524337323155524953746f726167653a2055524920736574206f66206e6f6e60448201526d32bc34b9ba32b73a103a37b5b2b760911b60648201526084016107bd565b6000828152600a6020908152604090912082516108f3928401906125a4565b600d5460ff16156119215760405162461bcd60e51b815260206004820152601060248201526f14185d5cd8589b194e881c185d5cd95960821b60448201526064016107bd565b600d805460ff191660011790557f62e78cea01bee320cd4e420270b5ea74000d11b0c9f74754ebdbfc544b05a2586116eb3390565b6000610f6d8383612100565b816001600160a01b0316836001600160a01b031614156119c45760405162461bcd60e51b815260206004820152601960248201527f4552433732313a20617070726f766520746f2063616c6c65720000000000000060448201526064016107bd565b6001600160a01b03838116600081815260056020908152604080832094871680845294825291829020805460ff191686151590811790915591519182527f17307eab39ab6107e8899845ad3d59bd9653f200f220920489ca2b5937696c31910160405180910390a3505050565b611a3c848484611422565b611a4884848484612138565b6110575760405162461bcd60e51b81526004016107bd90612b5a565b6060611a6f826112b1565b611ad55760405162461bcd60e51b815260206004820152603160248201527f45524337323155524953746f726167653a2055524920717565727920666f72206044820152703737b732bc34b9ba32b73a103a37b5b2b760791b60648201526084016107bd565b6000828152600a602052604081208054611aee90612ca2565b80601f0160208091040260200160405190810160405280929190818152602001828054611b1a90612ca2565b8015611b675780601f10611b3c57610100808354040283529160200191611b67565b820191906000526020600020905b815481529060010190602001808311611b4a57829003601f168201915b505050505090506000611b8560408051602081019091526000815290565b9050805160001415611b98575092915050565b815115611bca578082604051602001611bb2929190612989565b60405160208183030381529060405292505050919050565b6111bf84612245565b60006106bd825490565b60006001611bea84610d3a565b611bf49190612c48565b600083815260076020526040902054909150808214611c47576001600160a01b03841660009081526006602090815260408083208584528252808320548484528184208190558352600790915290208190555b5060009182526007602090815260408084208490556001600160a01b039094168352600681528383209183525290812055565b600854600090611c8c90600190612c48565b60008381526009602052604081205460088054939450909284908110611cc257634e487b7160e01b600052603260045260246000fd5b906000526020600020015490508060088381548110611cf157634e487b7160e01b600052603260045260246000fd5b6000918252602080832090910192909255828152600990915260408082208490558582528120556008805480611d3757634e487b7160e01b600052603160045260246000fd5b6001900381819060005260206000200160009055905550505050565b6000611d5e83610d3a565b6001600160a01b039093166000908152600660209081526040808320868452825280832085905593825260079052919091209190915550565b60006001600160e01b03198216637965db0b60e01b14806106bd57506106bd8261231c565b6108f38383836111d4565b60606000611dd6836002612c29565b611de1906002612bfd565b67ffffffffffffffff811115611e0757634e487b7160e01b600052604160045260246000fd5b6040519080825280601f01601f191660200182016040528015611e31576020820181803683370190505b509050600360fc1b81600081518110611e5a57634e487b7160e01b600052603260045260246000fd5b60200101906001600160f81b031916908160001a905350600f60fb1b81600181518110611e9757634e487b7160e01b600052603260045260246000fd5b60200101906001600160f81b031916908160001a9053506000611ebb846002612c29565b611ec6906001612bfd565b90505b6001811115611f5a576f181899199a1a9b1b9c1cb0b131b232b360811b85600f1660108110611f0857634e487b7160e01b600052603260045260246000fd5b1a60f81b828281518110611f2c57634e487b7160e01b600052603260045260246000fd5b60200101906001600160f81b031916908160001a90535060049490941c93611f5381612c8b565b9050611ec9565b508315610f6d5760405162461bcd60e51b815260206004820181905260248201527f537472696e67733a20686578206c656e67746820696e73756666696369656e7460448201526064016107bd565b611fb38282610f74565b610a60576000828152600b602090815260408083206001600160a01b03851684529091529020805460ff19166001179055611feb3390565b6001600160a01b0316816001600160a01b0316837f2f8788117e7eff1d82e926ec794901d17c78024a50270940304540a733656f0d60405160405180910390a45050565b6000610f6d836001600160a01b038416612341565b61204e8282610f74565b15610a60576000828152600b602090815260408083206001600160a01b0385168085529252808320805460ff1916905551339285917ff6391f5c32d9c69d2a47ea670b442974b53935d1edc7fd64eb21e047a839171b9190a45050565b6000610f6d836001600160a01b038416612390565b6120c9816124ad565b6000818152600a6020526040902080546120e290612ca2565b159050610b48576000818152600a60205260408120610b4891612628565b600082600001828154811061212557634e487b7160e01b600052603260045260246000fd5b9060005260206000200154905092915050565b60006001600160a01b0384163b1561223a57604051630a85bd0160e11b81526001600160a01b0385169063150b7a029061217c903390899088908890600401612ad3565b602060405180830381600087803b15801561219657600080fd5b505af19250505080156121c6575060408051601f3d908101601f191682019092526121c3918101906128df565b60015b612220573d8080156121f4576040519150601f19603f3d011682016040523d82523d6000602084013e6121f9565b606091505b5080516122185760405162461bcd60e51b81526004016107bd90612b5a565b805181602001fd5b6001600160e01b031916630a85bd0160e11b1490506111bf565b506001949350505050565b6060612250826112b1565b6122b45760405162461bcd60e51b815260206004820152602f60248201527f4552433732314d657461646174613a2055524920717565727920666f72206e6f60448201526e3732bc34b9ba32b73a103a37b5b2b760891b60648201526084016107bd565b60006122cb60408051602081019091526000815290565b905060008151116122eb5760405180602001604052806000815250610f6d565b806122f5846110a5565b604051602001612306929190612989565b6040516020818303038152906040529392505050565b60006001600160e01b0319821663780e9d6360e01b14806106bd57506106bd82612554565b6000818152600183016020526040812054612388575081546001818101845560008481526020808220909301849055845484825282860190935260409020919091556106bd565b5060006106bd565b600081815260018301602052604081205480156124a35760006123b4600183612c48565b85549091506000906123c890600190612c48565b90508181146124495760008660000182815481106123f657634e487b7160e01b600052603260045260246000fd5b906000526020600020015490508087600001848154811061242757634e487b7160e01b600052603260045260246000fd5b6000918252602080832090910192909255918252600188019052604090208390555b855486908061246857634e487b7160e01b600052603160045260246000fd5b6001900381819060005260206000200160009055905585600101600086815260200190815260200160002060009055600193505050506106bd565b60009150506106bd565b60006124b882610cc3565b90506124c681600084611dbc565b6124d16000836112ce565b6001600160a01b03811660009081526003602052604081208054600192906124fa908490612c48565b909155505060008281526002602052604080822080546001600160a01b0319169055518391906001600160a01b038416907fddf252ad1be2c89b69c2b068fc378daa952ba7f163c4a11628f55a4df523b3ef908390a45050565b60006001600160e01b031982166380ac58cd60e01b148061258557506001600160e01b03198216635b5e139f60e01b145b806106bd57506301ffc9a760e01b6001600160e01b03198316146106bd565b8280546125b090612ca2565b90600052602060002090601f0160209004810192826125d25760008555612618565b82601f106125eb57805160ff1916838001178555612618565b82800160010185558215612618579182015b828111156126185782518255916020019190600101906125fd565b5061262492915061265e565b5090565b50805461263490612ca2565b6000825580601f10612644575050565b601f016020900490600052602060002090810190610b4891905b5b80821115612624576000815560010161265f565b600067ffffffffffffffff8084111561268e5761268e612d38565b604051601f8501601f19908116603f011681019082821181831017156126b6576126b6612d38565b816040528093508581528686860111156126cf57600080fd5b858560208301376000602087830101525050509392505050565b80356001600160a01b038116811461270057600080fd5b919050565b600060208284031215612716578081fd5b610f6d826126e9565b60008060408385031215612731578081fd5b61273a836126e9565b9150612748602084016126e9565b90509250929050565b600080600060608486031215612765578081fd5b61276e846126e9565b925061277c602085016126e9565b9150604084013590509250925092565b600080600080608085870312156127a1578081fd5b6127aa856126e9565b93506127b8602086016126e9565b925060408501359150606085013567ffffffffffffffff8111156127da578182fd5b8501601f810187136127ea578182fd5b6127f987823560208401612673565b91505092959194509250565b60008060408385031215612817578182fd5b612820836126e9565b915060208301358015158114612834578182fd5b809150509250929050565b60008060408385031215612851578182fd5b61285a836126e9565b946020939093013593505050565b600060208284031215612879578081fd5b5035919050565b60008060408385031215612892578182fd5b82359150612748602084016126e9565b600080604083850312156128b4578182fd5b50508035926020909101359150565b6000602082840312156128d4578081fd5b8135610f6d81612d4e565b6000602082840312156128f0578081fd5b8151610f6d81612d4e565b60006020828403121561290c578081fd5b813567ffffffffffffffff811115612922578182fd5b8201601f81018413612932578182fd5b6111bf84823560208401612673565b60008151808452612959816020860160208601612c5f565b601f01601f19169290920160200192915050565b6000815161297f818560208601612c5f565b9290920192915050565b6000835161299b818460208801612c5f565b8351908301906129af818360208801612c5f565b01949350505050565b600080845482600182811c9150808316806129d457607f831692505b60208084108214156129f457634e487b7160e01b87526022600452602487fd5b818015612a085760018114612a1957612a45565b60ff19861689528489019650612a45565b60008b815260209020885b86811015612a3d5781548b820152908501908301612a24565b505084890196505b505050505050612a55818561296d565b95945050505050565b7f416363657373436f6e74726f6c3a206163636f756e7420000000000000000000815260008351612a96816017850160208801612c5f565b7001034b99036b4b9b9b4b733903937b6329607d1b6017918401918201528351612ac7816028840160208801612c5f565b01602801949350505050565b6001600160a01b0385811682528416602082015260408101839052608060608201819052600090612b0690830184612941565b9695505050505050565b602081526000610f6d6020830184612941565b60208082526019908201527f6f6e6c79207468652061646d696e20697320616c6c6f77656400000000000000604082015260600190565b60208082526032908201527f4552433732313a207472616e7366657220746f206e6f6e20455243373231526560408201527131b2b4bb32b91034b6b83632b6b2b73a32b960711b606082015260800190565b60208082526031908201527f4552433732313a207472616e736665722063616c6c6572206973206e6f74206f6040820152701ddb995c881b9bdc88185c1c1c9bdd9959607a1b606082015260800190565b60008219821115612c1057612c10612d0c565b500190565b600082612c2457612c24612d22565b500490565b6000816000190483118215151615612c4357612c43612d0c565b500290565b600082821015612c5a57612c5a612d0c565b500390565b60005b83811015612c7a578181015183820152602001612c62565b838111156110575750506000910152565b600081612c9a57612c9a612d0c565b506000190190565b600181811c90821680612cb657607f821691505b60208210811415612cd757634e487b7160e01b600052602260045260246000fd5b50919050565b6000600019821415612cf157612cf1612d0c565b5060010190565b600082612d0757612d07612d22565b500690565b634e487b7160e01b600052601160045260246000fd5b634e487b7160e01b600052601260045260246000fd5b634e487b7160e01b600052604160045260246000fd5b6001600160e01b031981168114610b4857600080fdfea264697066735822122066d0517f3719630856e7d0d0c8c674a513f8209f84a5ce8d80de4051e9e267d564736f6c63430008040033",
  "linkReferences": {},
  "deployedLinkReferences": {}
}