{
  "_format": "hh-sol-artifact-1",
  "contractName": "NFT",
  "sourceName": "contracts/NFT.sol",
  "abi": [
    {
      "inputs": [],
      "stateMutability": "nonpayable",
      "type": "constructor"
    },
    {
      "anonymous": false,
      "inputs": [
        {
          "indexed": true,
          "internalType": "address",
          "name": "owner",
          "type": "address"
        },
        {
          "indexed": true,
          "internalType": "address",
          "name": "approved",
          "type": "address"
        },
        {
          "indexed": true,
          "internalType": "uint256",
          "name": "tokenId",
          "type": "uint256"
        }
      ],
      "name": "Approval",
      "type": "event"
    },
    {
      "anonymous": false,
      "inputs": [
        {
          "indexed": true,
          "internalType": "address",
          "name": "owner",
          "type": "address"
        },
        {
          "indexed": true,
          "internalType": "address",
          "name": "operator",
          "type": "address"
        },
        {
          "indexed": false,
          "internalType": "bool",
          "name": "approved",
          "type": "bool"
        }
      ],
      "name": "ApprovalForAll",
      "type": "event"
    },
    {
      "anonymous": false,
      "inputs": [
        {
          "indexed": true,
          "internalType": "address",
          "name": "previousOwner",
          "type": "address"
        },
        {
          "indexed": true,
          "internalType": "address",
          "name": "newOwner",
          "type": "address"
        }
      ],
      "name": "OwnershipTransferred",
      "type": "event"
    },
    {
      "anonymous": false,
      "inputs": [
        {
          "indexed": false,
          "internalType": "address",
          "name": "account",
          "type": "address"
        }
      ],
      "name": "Paused",
      "type": "event"
    },
    {
      "anonymous": false,
      "inputs": [
        {
          "indexed": true,
          "internalType": "bytes32",
          "name": "role",
          "type": "bytes32"
        },
        {
          "indexed": true,
          "internalType": "bytes32",
          "name": "previousAdminRole",
          "type": "bytes32"
        },
        {
          "indexed": true,
          "internalType": "bytes32",
          "name": "newAdminRole",
          "type": "bytes32"
        }
      ],
      "name": "RoleAdminChanged",
      "type": "event"
    },
    {
      "anonymous": false,
      "inputs": [
        {
          "indexed": true,
          "internalType": "bytes32",
          "name": "role",
          "type": "bytes32"
        },
        {
          "indexed": true,
          "internalType": "address",
          "name": "account",
          "type": "address"
        },
        {
          "indexed": true,
          "internalType": "address",
          "name": "sender",
          "type": "address"
        }
      ],
      "name": "RoleGranted",
      "type": "event"
    },
    {
      "anonymous": false,
      "inputs": [
        {
          "indexed": true,
          "internalType": "bytes32",
          "name": "role",
          "type": "bytes32"
        },
        {
          "indexed": true,
          "internalType": "address",
          "name": "account",
          "type": "address"
        },
        {
          "indexed": true,
          "internalType": "address",
          "name": "sender",
          "type": "address"
        }
      ],
      "name": "RoleRevoked",
      "type": "event"
    },
    {
      "anonymous": false,
      "inputs": [
        {
          "indexed": true,
          "internalType": "address",
          "name": "from",
          "type": "address"
        },
        {
          "indexed": true,
          "internalType": "address",
          "name": "to",
          "type": "address"
        },
        {
          "indexed": true,
          "internalType": "uint256",
          "name": "tokenId",
          "type": "uint256"
        }
      ],
      "name": "Transfer",
      "type": "event"
    },
    {
      "anonymous": false,
      "inputs": [
        {
          "indexed": false,
          "internalType": "address",
          "name": "account",
          "type": "address"
        }
      ],
      "name": "Unpaused",
      "type": "event"
    },
    {
      "inputs": [],
      "name": "DEFAULT_ADMIN_ROLE",
      "outputs": [
        {
          "internalType": "bytes32",
          "name": "",
          "type": "bytes32"
        }
      ],
      "stateMutability": "view",
      "type": "function"
    },
    {
      "inputs": [],
      "name": "_claimNft",
      "outputs": [],
      "stateMutability": "payable",
      "type": "function"
    },
    {
      "inputs": [],
      "name": "admin",
      "outputs": [
        {
          "internalType": "address",
          "name": "",
          "type": "address"
        }
      ],
      "stateMutability": "view",
      "type": "function"
    },
    {
      "inputs": [
        {
          "internalType": "address",
          "name": "to",
          "type": "address"
        },
        {
          "internalType": "uint256",
          "name": "tokenId",
          "type": "uint256"
        }
      ],
      "name": "approve",
      "outputs": [],
      "stateMutability": "nonpayable",
      "type": "function"
    },
    {
      "inputs": [
        {
          "internalType": "address",
          "name": "owner",
          "type": "address"
        }
      ],
      "name": "balanceOf",
      "outputs": [
        {
          "internalType": "uint256",
          "name": "",
          "type": "uint256"
        }
      ],
      "stateMutability": "view",
      "type": "function"
    },
    {
      "inputs": [],
      "name": "baseUrl",
      "outputs": [
        {
          "internalType": "string",
          "name": "",
          "type": "string"
        }
      ],
      "stateMutability": "view",
      "type": "function"
    },
    {
      "inputs": [
        {
          "internalType": "uint256",
          "name": "tokenId",
          "type": "uint256"
        }
      ],
      "name": "burn",
      "outputs": [],
      "stateMutability": "nonpayable",
      "type": "function"
    },
    {
      "inputs": [
        {
          "internalType": "uint256",
          "name": "_newPrice",
          "type": "uint256"
        }
      ],
      "name": "changePrice",
      "outputs": [
        {
          "internalType": "bool",
          "name": "",
          "type": "bool"
        }
      ],
      "stateMutability": "nonpayable",
      "type": "function"
    },
    {
      "inputs": [
        {
          "internalType": "string",
          "name": "_newUrl",
          "type": "string"
        }
      ],
      "name": "changeUrl",
      "outputs": [
        {
          "internalType": "bool",
          "name": "",
          "type": "bool"
        }
      ],
      "stateMutability": "nonpayable",
      "type": "function"
    },
    {
      "inputs": [
        {
          "internalType": "uint256",
          "name": "tokenId",
          "type": "uint256"
        }
      ],
      "name": "getApproved",
      "outputs": [
        {
          "internalType": "address",
          "name": "",
          "type": "address"
        }
      ],
      "stateMutability": "view",
      "type": "function"
    },
    {
      "inputs": [],
      "name": "getPrice",
      "outputs": [
        {
          "internalType": "uint256",
          "name": "",
          "type": "uint256"
        }
      ],
      "stateMutability": "view",
      "type": "function"
    },
    {
      "inputs": [
        {
          "internalType": "bytes32",
          "name": "role",
          "type": "bytes32"
        }
      ],
      "name": "getRoleAdmin",
      "outputs": [
        {
          "internalType": "bytes32",
          "name": "",
          "type": "bytes32"
        }
      ],
      "stateMutability": "view",
      "type": "function"
    },
    {
      "inputs": [
        {
          "internalType": "bytes32",
          "name": "role",
          "type": "bytes32"
        },
        {
          "internalType": "uint256",
          "name": "index",
          "type": "uint256"
        }
      ],
      "name": "getRoleMember",
      "outputs": [
        {
          "internalType": "address",
          "name": "",
          "type": "address"
        }
      ],
      "stateMutability": "view",
      "type": "function"
    },
    {
      "inputs": [
        {
          "internalType": "bytes32",
          "name": "role",
          "type": "bytes32"
        }
      ],
      "name": "getRoleMemberCount",
      "outputs": [
        {
          "internalType": "uint256",
          "name": "",
          "type": "uint256"
        }
      ],
      "stateMutability": "view",
      "type": "function"
    },
    {
      "inputs": [
        {
          "internalType": "bytes32",
          "name": "role",
          "type": "bytes32"
        },
        {
          "internalType": "address",
          "name": "account",
          "type": "address"
        }
      ],
      "name": "grantRole",
      "outputs": [],
      "stateMutability": "nonpayable",
      "type": "function"
    },
    {
      "inputs": [
        {
          "internalType": "bytes32",
          "name": "role",
          "type": "bytes32"
        },
        {
          "internalType": "address",
          "name": "account",
          "type": "address"
        }
      ],
      "name": "hasRole",
      "outputs": [
        {
          "internalType": "bool",
          "name": "",
          "type": "bool"
        }
      ],
      "stateMutability": "view",
      "type": "function"
    },
    {
      "inputs": [
        {
          "internalType": "address",
          "name": "owner",
          "type": "address"
        },
        {
          "internalType": "address",
          "name": "operator",
          "type": "address"
        }
      ],
      "name": "isApprovedForAll",
      "outputs": [
        {
          "internalType": "bool",
          "name": "",
          "type": "bool"
        }
      ],
      "stateMutability": "view",
      "type": "function"
    },
    {
      "inputs": [],
      "name": "name",
      "outputs": [
        {
          "internalType": "string",
          "name": "",
          "type": "string"
        }
      ],
      "stateMutability": "view",
      "type": "function"
    },
    {
      "inputs": [],
      "name": "owner",
      "outputs": [
        {
          "internalType": "address",
          "name": "",
          "type": "address"
        }
      ],
      "stateMutability": "view",
      "type": "function"
    },
    {
      "inputs": [
        {
          "internalType": "uint256",
          "name": "tokenId",
          "type": "uint256"
        }
      ],
      "name": "ownerOf",
      "outputs": [
        {
          "internalType": "address",
          "name": "",
          "type": "address"
        }
      ],
      "stateMutability": "view",
      "type": "function"
    },
    {
      "inputs": [],
      "name": "pause",
      "outputs": [],
      "stateMutability": "nonpayable",
      "type": "function"
    },
    {
      "inputs": [],
      "name": "paused",
      "outputs": [
        {
          "internalType": "bool",
          "name": "",
          "type": "bool"
        }
      ],
      "stateMutability": "view",
      "type": "function"
    },
    {
      "inputs": [],
      "name": "renounceOwnership",
      "outputs": [],
      "stateMutability": "nonpayable",
      "type": "function"
    },
    {
      "inputs": [
        {
          "internalType": "bytes32",
          "name": "role",
          "type": "bytes32"
        },
        {
          "internalType": "address",
          "name": "account",
          "type": "address"
        }
      ],
      "name": "renounceRole",
      "outputs": [],
      "stateMutability": "nonpayable",
      "type": "function"
    },
    {
      "inputs": [
        {
          "internalType": "bytes32",
          "name": "role",
          "type": "bytes32"
        },
        {
          "internalType": "address",
          "name": "account",
          "type": "address"
        }
      ],
      "name": "revokeRole",
      "outputs": [],
      "stateMutability": "nonpayable",
      "type": "function"
    },
    {
      "inputs": [
        {
          "internalType": "address",
          "name": "from",
          "type": "address"
        },
        {
          "internalType": "address",
          "name": "to",
          "type": "address"
        },
        {
          "internalType": "uint256",
          "name": "tokenId",
          "type": "uint256"
        }
      ],
      "name": "safeTransferFrom",
      "outputs": [],
      "stateMutability": "nonpayable",
      "type": "function"
    },
    {
      "inputs": [
        {
          "internalType": "address",
          "name": "from",
          "type": "address"
        },
        {
          "internalType": "address",
          "name": "to",
          "type": "address"
        },
        {
          "internalType": "uint256",
          "name": "tokenId",
          "type": "uint256"
        },
        {
          "internalType": "bytes",
          "name": "_data",
          "type": "bytes"
        }
      ],
      "name": "safeTransferFrom",
      "outputs": [],
      "stateMutability": "nonpayable",
      "type": "function"
    },
    {
      "inputs": [
        {
          "internalType": "address",
          "name": "operator",
          "type": "address"
        },
        {
          "internalType": "bool",
          "name": "approved",
          "type": "bool"
        }
      ],
      "name": "setApprovalForAll",
      "outputs": [],
      "stateMutability": "nonpayable",
      "type": "function"
    },
    {
      "inputs": [
        {
          "internalType": "bytes4",
          "name": "interfaceId",
          "type": "bytes4"
        }
      ],
      "name": "supportsInterface",
      "outputs": [
        {
          "internalType": "bool",
          "name": "",
          "type": "bool"
        }
      ],
      "stateMutability": "view",
      "type": "function"
    },
    {
      "inputs": [],
      "name": "symbol",
      "outputs": [
        {
          "internalType": "string",
          "name": "",
          "type": "string"
        }
      ],
      "stateMutability": "view",
      "type": "function"
    },
    {
      "inputs": [
        {
          "internalType": "uint256",
          "name": "index",
          "type": "uint256"
        }
      ],
      "name": "tokenByIndex",
      "outputs": [
        {
          "internalType": "uint256",
          "name": "",
          "type": "uint256"
        }
      ],
      "stateMutability": "view",
      "type": "function"
    },
    {
      "inputs": [
        {
          "internalType": "address",
          "name": "owner",
          "type": "address"
        },
        {
          "internalType": "uint256",
          "name": "index",
          "type": "uint256"
        }
      ],
      "name": "tokenOfOwnerByIndex",
      "outputs": [
        {
          "internalType": "uint256",
          "name": "",
          "type": "uint256"
        }
      ],
      "stateMutability": "view",
      "type": "function"
    },
    {
      "inputs": [
        {
          "internalType": "uint256",
          "name": "tokenId",
          "type": "uint256"
        }
      ],
      "name": "tokenURI",
      "outputs": [
        {
          "internalType": "string",
          "name": "",
          "type": "string"
        }
      ],
      "stateMutability": "view",
      "type": "function"
    },
    {
      "inputs": [],
      "name": "totalSupply",
      "outputs": [
        {
          "internalType": "uint256",
          "name": "",
          "type": "uint256"
        }
      ],
      "stateMutability": "view",
      "type": "function"
    },
    {
      "inputs": [
        {
          "internalType": "address",
          "name": "from",
          "type": "address"
        },
        {
          "internalType": "address",
          "name": "to",
          "type": "address"
        },
        {
          "internalType": "uint256",
          "name": "tokenId",
          "type": "uint256"
        }
      ],
      "name": "transferFrom",
      "outputs": [],
      "stateMutability": "nonpayable",
      "type": "function"
    },
    {
      "inputs": [
        {
          "internalType": "address",
          "name": "newOwner",
          "type": "address"
        }
      ],
      "name": "transferOwnership",
      "outputs": [],
      "stateMutability": "nonpayable",
      "type": "function"
    },
    {
      "inputs": [],
      "name": "unpause",
      "outputs": [],
      "stateMutability": "nonpayable",
      "type": "function"
    }
  ],
  "bytecode": "0x666a94d74f4300006011556014805473324a3d5951f94b40c566b180066d6b2ab7be8d546001600160a01b031991821681179092556015805482168317905560168054821683178155601780548316841790556018805483168417905560198054909216909217905560c060405260808190527f68747470733a2f64736473647364736464736473642f0000000000000000000060a0908152620000a791601a919062000975565b50348015620000b557600080fd5b50604080518082018252601c81527f526176696e6720476f626c696e73204552432d37323120746f6b656e000000006020808301918252835180850190945260038452621491d560ea1b908401528151919291620001169160009162000975565b5080516200012c90600190602084019062000975565b5050600d805460ff19169055506200014433620001fb565b6001600e5560128054336001600160a01b0319918216811790925560138054909116909117905560145462000182906001600160a01b031662000255565b60155462000199906001600160a01b031662000255565b601654620001b0906001600160a01b031662000255565b601754620001c7906001600160a01b031662000255565b601854620001de906001600160a01b031662000255565b601954620001f5906001600160a01b031662000255565b62000bf1565b600d80546001600160a01b03838116610100818102610100600160a81b031985161790945560405193909204169182907f8be0079c531659141344cd1fd0a4f28419497f9722a3daafe3b4186f6b6457e090600090a35050565b6200026c600f620002dd60201b620011321760201c565b600062000285600f620002e660201b6200113b1760201c565b9050620002938282620002ea565b620002d981601a620002b0846200044460201b6200113f1760201c565b604051602001620002c392919062000a57565b60408051601f1981840301815291905262000579565b5050565b80546001019055565b5490565b6001600160a01b038216620003465760405162461bcd60e51b815260206004820181905260248201527f4552433732313a206d696e7420746f20746865207a65726f206164647265737360448201526064015b60405180910390fd5b6000818152600260205260409020546001600160a01b031615620003ad5760405162461bcd60e51b815260206004820152601c60248201527f4552433732313a20746f6b656e20616c7265616479206d696e7465640000000060448201526064016200033d565b620003bb600083836200061c565b6001600160a01b0382166000908152600360205260408120805460019290620003e690849062000b07565b909155505060008181526002602052604080822080546001600160a01b0319166001600160a01b03861690811790915590518392907fddf252ad1be2c89b69c2b068fc378daa952ba7f163c4a11628f55a4df523b3ef908290a45050565b606081620004695750506040805180820190915260018152600360fc1b602082015290565b8160005b8115620004995780620004808162000b90565b9150620004919050600a8362000b22565b91506200046d565b6000816001600160401b03811115620004c257634e487b7160e01b600052604160045260246000fd5b6040519080825280601f01601f191660200182016040528015620004ed576020820181803683370190505b5090505b841562000571576200050560018362000b39565b915062000514600a8662000bae565b6200052190603062000b07565b60f81b8183815181106200054557634e487b7160e01b600052603260045260246000fd5b60200101906001600160f81b031916908160001a90535062000569600a8662000b22565b9450620004f1565b949350505050565b6000828152600260205260409020546001600160a01b0316620005f65760405162461bcd60e51b815260206004820152602e60248201527f45524337323155524953746f726167653a2055524920736574206f66206e6f6e60448201526d32bc34b9ba32b73a103a37b5b2b760911b60648201526084016200033d565b6000828152600a602090815260409091208251620006179284019062000975565b505050565b620006178383836200063460201b620012611760201c565b6200064c8383836200061760201b620008ff1760201c565b6001600160a01b038316620006aa57620006a481600880546000838152600960205260408120829055600182018355919091527ff3f7a9fe364faab93b216da50a3214154f22a0a2b415b23a84c8169e8b636ee30155565b620006d0565b816001600160a01b0316836001600160a01b031614620006d057620006d0838262000710565b6001600160a01b038216620006ea576200061781620007bd565b826001600160a01b0316826001600160a01b03161462000617576200061782826200089b565b600060016200072a84620008ec60201b62000d361760201c565b62000736919062000b39565b6000838152600760205260409020549091508082146200078a576001600160a01b03841660009081526006602090815260408083208584528252808320548484528184208190558352600790915290208190555b5060009182526007602090815260408084208490556001600160a01b039094168352600681528383209183525290812055565b600854600090620007d19060019062000b39565b600083815260096020526040812054600880549394509092849081106200080857634e487b7160e01b600052603260045260246000fd5b9060005260206000200154905080600883815481106200083857634e487b7160e01b600052603260045260246000fd5b60009182526020808320909101929092558281526009909152604080822084905585825281205560088054806200087f57634e487b7160e01b600052603160045260246000fd5b6001900381819060005260206000200160009055905550505050565b6000620008b383620008ec60201b62000d361760201c565b6001600160a01b039093166000908152600660209081526040808320868452825280832085905593825260079052919091209190915550565b60006001600160a01b038216620009595760405162461bcd60e51b815260206004820152602a60248201527f4552433732313a2062616c616e636520717565727920666f7220746865207a65604482015269726f206164647265737360b01b60648201526084016200033d565b506001600160a01b031660009081526003602052604090205490565b828054620009839062000b53565b90600052602060002090601f016020900481019282620009a75760008555620009f2565b82601f10620009c257805160ff1916838001178555620009f2565b82800160010185558215620009f2579182015b82811115620009f2578251825591602001919060010190620009d5565b5062000a0092915062000a04565b5090565b5b8082111562000a00576000815560010162000a05565b60008151815b8181101562000a3d576020818501810151868301520162000a21565b8181111562000a4c5782828601525b509290920192915050565b600080845482600182811c91508083168062000a7457607f831692505b602080841082141562000a9557634e487b7160e01b87526022600452602487fd5b81801562000aac576001811462000abe5762000aec565b60ff1986168952848901965062000aec565b60008b815260209020885b8681101562000ae45781548b82015290850190830162000ac9565b505084890196505b50505050505062000afe818562000a1b565b95945050505050565b6000821982111562000b1d5762000b1d62000bc5565b500190565b60008262000b345762000b3462000bdb565b500490565b60008282101562000b4e5762000b4e62000bc5565b500390565b600181811c9082168062000b6857607f821691505b6020821081141562000b8a57634e487b7160e01b600052602260045260246000fd5b50919050565b600060001982141562000ba75762000ba762000bc5565b5060010190565b60008262000bc05762000bc062000bdb565b500690565b634e487b7160e01b600052601160045260246000fd5b634e487b7160e01b600052601260045260246000fd5b612e7a8062000c016000396000f3fe60806040526004361061021a5760003560e01c806370a0823111610123578063a217fddf116100ab578063ca15c8731161006f578063ca15c873146105f5578063d547741f14610615578063e985e9c514610635578063f2fde38b1461067e578063f851a4401461069e57600080fd5b8063a217fddf14610560578063a22cb46514610575578063a2b40d1914610595578063b88d4fde146105b5578063c87b56dd146105d557600080fd5b80638da5cb5b116100f25780638da5cb5b146104d35780639010d07c146104f657806391d148541461051657806395d89b411461053657806398d5fdca1461054b57600080fd5b806370a0823114610481578063715018a6146104a157806372fc3b5b146104b65780638456cb59146104be57600080fd5b806336568abe116101a65780634f6ccce7116101755780634f6ccce7146103f45780635bcabf04146104145780635c975abb146104295780635f823d28146104415780636352211e1461046157600080fd5b806336568abe1461037f5780633f4ba83a1461039f57806342842e0e146103b457806342966c68146103d457600080fd5b806318160ddd116101ed57806318160ddd146102d057806323b872dd146102ef578063248a9ca31461030f5780632f2ff15d1461033f5780632f745c591461035f57600080fd5b806301ffc9a71461021f57806306fdde0314610254578063081812fc14610276578063095ea7b3146102ae575b600080fd5b34801561022b57600080fd5b5061023f61023a3660046129a5565b6106be565b60405190151581526020015b60405180910390f35b34801561026057600080fd5b506102696106cf565b60405161024b9190612bf2565b34801561028257600080fd5b5061029661029136600461294a565b610761565b6040516001600160a01b03909116815260200161024b565b3480156102ba57600080fd5b506102ce6102c9366004612921565b6107ee565b005b3480156102dc57600080fd5b506008545b60405190815260200161024b565b3480156102fb57600080fd5b506102ce61030a366004612833565b610904565b34801561031b57600080fd5b506102e161032a36600461294a565b6000908152600b602052604090206001015490565b34801561034b57600080fd5b506102ce61035a366004612962565b610936565b34801561036b57600080fd5b506102e161037a366004612921565b61095c565b34801561038b57600080fd5b506102ce61039a366004612962565b6109f2565b3480156103ab57600080fd5b506102ce610a70565b3480156103c057600080fd5b506102ce6103cf366004612833565b610aaa565b3480156103e057600080fd5b506102ce6103ef36600461294a565b610ac5565b34801561040057600080fd5b506102e161040f36600461294a565b610b3f565b34801561042057600080fd5b50610269610be0565b34801561043557600080fd5b50600d5460ff1661023f565b34801561044d57600080fd5b5061023f61045c3660046129dd565b610c6e565b34801561046d57600080fd5b5061029661047c36600461294a565b610cbf565b34801561048d57600080fd5b506102e161049c3660046127e7565b610d36565b3480156104ad57600080fd5b506102ce610dbd565b6102ce610df7565b3480156104ca57600080fd5b506102ce610f3c565b3480156104df57600080fd5b50600d5461010090046001600160a01b0316610296565b34801561050257600080fd5b50610296610511366004612984565b610f74565b34801561052257600080fd5b5061023f610531366004612962565b610f93565b34801561054257600080fd5b50610269610fbe565b34801561055757600080fd5b506011546102e1565b34801561056c57600080fd5b506102e1600081565b34801561058157600080fd5b506102ce6105903660046128e7565b610fcd565b3480156105a157600080fd5b5061023f6105b036600461294a565b610fd8565b3480156105c157600080fd5b506102ce6105d036600461286e565b611014565b3480156105e157600080fd5b506102696105f036600461294a565b61104c565b34801561060157600080fd5b506102e161061036600461294a565b611057565b34801561062157600080fd5b506102ce610630366004612962565b61106e565b34801561064157600080fd5b5061023f610650366004612801565b6001600160a01b03918216600090815260056020908152604080832093909416825291909152205460ff1690565b34801561068a57600080fd5b506102ce6106993660046127e7565b611094565b3480156106aa57600080fd5b50601354610296906001600160a01b031681565b60006106c982611319565b92915050565b6060600080546106de90612d82565b80601f016020809104026020016040519081016040528092919081815260200182805461070a90612d82565b80156107575780601f1061072c57610100808354040283529160200191610757565b820191906000526020600020905b81548152906001019060200180831161073a57829003601f168201915b5050505050905090565b600061076c8261133e565b6107d25760405162461bcd60e51b815260206004820152602c60248201527f4552433732313a20617070726f76656420717565727920666f72206e6f6e657860448201526b34b9ba32b73a103a37b5b2b760a11b60648201526084015b60405180910390fd5b506000908152600460205260409020546001600160a01b031690565b60006107f982610cbf565b9050806001600160a01b0316836001600160a01b031614156108675760405162461bcd60e51b815260206004820152602160248201527f4552433732313a20617070726f76616c20746f2063757272656e74206f776e656044820152603960f91b60648201526084016107c9565b336001600160a01b038216148061088357506108838133610650565b6108f55760405162461bcd60e51b815260206004820152603860248201527f4552433732313a20617070726f76652063616c6c6572206973206e6f74206f7760448201527f6e6572206e6f7220617070726f76656420666f7220616c6c000000000000000060648201526084016107c9565b6108ff838361135b565b505050565b61090f335b826113c9565b61092b5760405162461bcd60e51b81526004016107c990612c8c565b6108ff8383836114af565b6000828152600b6020526040902060010154610952813361165a565b6108ff83836116be565b600061096783610d36565b82106109c95760405162461bcd60e51b815260206004820152602b60248201527f455243373231456e756d657261626c653a206f776e657220696e646578206f7560448201526a74206f6620626f756e647360a81b60648201526084016107c9565b506001600160a01b03919091166000908152600660209081526040808320938352929052205490565b6001600160a01b0381163314610a625760405162461bcd60e51b815260206004820152602f60248201527f416363657373436f6e74726f6c3a2063616e206f6e6c792072656e6f756e636560448201526e103937b632b9903337b91039b2b63360891b60648201526084016107c9565b610a6c82826116e0565b5050565b600d546001600160a01b03610100909104163314610aa05760405162461bcd60e51b81526004016107c990612c57565b610aa8611702565b565b6108ff83838360405180602001604052806000815250611014565b610ace33610909565b610b335760405162461bcd60e51b815260206004820152603060248201527f4552433732314275726e61626c653a2063616c6c6572206973206e6f74206f7760448201526f1b995c881b9bdc88185c1c1c9bdd995960821b60648201526084016107c9565b610b3c81611795565b50565b6000610b4a60085490565b8210610bad5760405162461bcd60e51b815260206004820152602c60248201527f455243373231456e756d657261626c653a20676c6f62616c20696e646578206f60448201526b7574206f6620626f756e647360a01b60648201526084016107c9565b60088281548110610bce57634e487b7160e01b600052603260045260246000fd5b90600052602060002001549050919050565b601a8054610bed90612d82565b80601f0160208091040260200160405190810160405280929190818152602001828054610c1990612d82565b8015610c665780601f10610c3b57610100808354040283529160200191610c66565b820191906000526020600020905b815481529060010190602001808311610c4957829003601f168201915b505050505081565b600d546000906001600160a01b03610100909104163314610ca15760405162461bcd60e51b81526004016107c990612c57565b8151610cb490601a90602085019061268b565b50600190505b919050565b6000818152600260205260408120546001600160a01b0316806106c95760405162461bcd60e51b815260206004820152602960248201527f4552433732313a206f776e657220717565727920666f72206e6f6e657869737460448201526832b73a103a37b5b2b760b91b60648201526084016107c9565b60006001600160a01b038216610da15760405162461bcd60e51b815260206004820152602a60248201527f4552433732313a2062616c616e636520717565727920666f7220746865207a65604482015269726f206164647265737360b01b60648201526084016107c9565b506001600160a01b031660009081526003602052604090205490565b600d546001600160a01b03610100909104163314610ded5760405162461bcd60e51b81526004016107c990612c57565b610aa8600061179e565b6002600e541415610e4a5760405162461bcd60e51b815260206004820152601f60248201527f5265656e7472616e637947756172643a207265656e7472616e742063616c6c0060448201526064016107c9565b6002600e55601154341015610e985760405162461bcd60e51b8152602060048201526014602482015273556e73756666696369656e742062616c616e636560601b60448201526064016107c9565b610ea6600f80546001019055565b6000610eb1600f5490565b9050610ebd33826117f8565b6000601a610eca8361113f565b604051602001610edb929190612a9a565b6040516020818303038152906040529050610ef68282611937565b6013546011546040516001600160a01b039092169181156108fc0291906000818181858888f19350505050158015610f32573d6000803e3d6000fd5b50506001600e5550565b600d546001600160a01b03610100909104163314610f6c5760405162461bcd60e51b81526004016107c990612c57565b610aa86119c2565b6000828152600c60205260408120610f8c9083611a3d565b9392505050565b6000918252600b602090815260408084206001600160a01b0393909316845291905290205460ff1690565b6060600180546106de90612d82565b610a6c338383611a49565b600d546000906001600160a01b0361010090910416331461100b5760405162461bcd60e51b81526004016107c990612c57565b50601155600190565b61101e33836113c9565b61103a5760405162461bcd60e51b81526004016107c990612c8c565b61104684848484611b18565b50505050565b60606106c982611b4b565b6000818152600c602052604081206106c990611cba565b6000828152600b602052604090206001015461108a813361165a565b6108ff83836116e0565b600d546001600160a01b036101009091041633146110c45760405162461bcd60e51b81526004016107c990612c57565b6001600160a01b0381166111295760405162461bcd60e51b815260206004820152602660248201527f4f776e61626c653a206e6577206f776e657220697320746865207a65726f206160448201526564647265737360d01b60648201526084016107c9565b610b3c8161179e565b80546001019055565b5490565b6060816111635750506040805180820190915260018152600360fc1b602082015290565b8160005b811561118d578061117781612dbd565b91506111869050600a83612cf5565b9150611167565b60008167ffffffffffffffff8111156111b657634e487b7160e01b600052604160045260246000fd5b6040519080825280601f01601f1916602001820160405280156111e0576020820181803683370190505b5090505b8415611259576111f5600183612d28565b9150611202600a86612dd8565b61120d906030612cdd565b60f81b81838151811061123057634e487b7160e01b600052603260045260246000fd5b60200101906001600160f81b031916908160001a905350611252600a86612cf5565b94506111e4565b949350505050565b6001600160a01b0383166112bc576112b781600880546000838152600960205260408120829055600182018355919091527ff3f7a9fe364faab93b216da50a3214154f22a0a2b415b23a84c8169e8b636ee30155565b6112df565b816001600160a01b0316836001600160a01b0316146112df576112df8382611cc4565b6001600160a01b0382166112f6576108ff81611d61565b826001600160a01b0316826001600160a01b0316146108ff576108ff8282611e3a565b60006001600160e01b03198216635a05180f60e01b14806106c957506106c982611e7e565b6000908152600260205260409020546001600160a01b0316151590565b600081815260046020526040902080546001600160a01b0319166001600160a01b038416908117909155819061139082610cbf565b6001600160a01b03167f8c5be1e5ebec7d5bd14f71427d1e84f3dd0314c0f7b2291e5b200ac8c7c3b92560405160405180910390a45050565b60006113d48261133e565b6114355760405162461bcd60e51b815260206004820152602c60248201527f4552433732313a206f70657261746f7220717565727920666f72206e6f6e657860448201526b34b9ba32b73a103a37b5b2b760a11b60648201526084016107c9565b600061144083610cbf565b9050806001600160a01b0316846001600160a01b0316148061147b5750836001600160a01b031661147084610761565b6001600160a01b0316145b8061125957506001600160a01b0380821660009081526005602090815260408083209388168352929052205460ff16611259565b826001600160a01b03166114c282610cbf565b6001600160a01b03161461152a5760405162461bcd60e51b815260206004820152602960248201527f4552433732313a207472616e73666572206f6620746f6b656e2074686174206960448201526839903737ba1037bbb760b91b60648201526084016107c9565b6001600160a01b03821661158c5760405162461bcd60e51b8152602060048201526024808201527f4552433732313a207472616e7366657220746f20746865207a65726f206164646044820152637265737360e01b60648201526084016107c9565b611597838383611ea3565b6115a260008261135b565b6001600160a01b03831660009081526003602052604081208054600192906115cb908490612d28565b90915550506001600160a01b03821660009081526003602052604081208054600192906115f9908490612cdd565b909155505060008181526002602052604080822080546001600160a01b0319166001600160a01b0386811691821790925591518493918716917fddf252ad1be2c89b69c2b068fc378daa952ba7f163c4a11628f55a4df523b3ef91a4505050565b6116648282610f93565b610a6c5761167c816001600160a01b03166014611eae565b611687836020611eae565b604051602001611698929190612b40565b60408051601f198184030181529082905262461bcd60e51b82526107c991600401612bf2565b6116c88282612090565b6000828152600c602052604090206108ff9082612116565b6116ea828261212b565b6000828152600c602052604090206108ff9082612192565b600d5460ff1661174b5760405162461bcd60e51b815260206004820152601460248201527314185d5cd8589b194e881b9bdd081c185d5cd95960621b60448201526064016107c9565b600d805460ff191690557f5db9ee0a495bf2e6ff9c91a7834c1ba4fdd244a5e8aa4e537bd38aeae4b073aa335b6040516001600160a01b03909116815260200160405180910390a1565b610b3c816121a7565b600d80546001600160a01b03838116610100818102610100600160a81b031985161790945560405193909204169182907f8be0079c531659141344cd1fd0a4f28419497f9722a3daafe3b4186f6b6457e090600090a35050565b6001600160a01b03821661184e5760405162461bcd60e51b815260206004820181905260248201527f4552433732313a206d696e7420746f20746865207a65726f206164647265737360448201526064016107c9565b6118578161133e565b156118a45760405162461bcd60e51b815260206004820152601c60248201527f4552433732313a20746f6b656e20616c7265616479206d696e7465640000000060448201526064016107c9565b6118b060008383611ea3565b6001600160a01b03821660009081526003602052604081208054600192906118d9908490612cdd565b909155505060008181526002602052604080822080546001600160a01b0319166001600160a01b03861690811790915590518392907fddf252ad1be2c89b69c2b068fc378daa952ba7f163c4a11628f55a4df523b3ef908290a45050565b6119408261133e565b6119a35760405162461bcd60e51b815260206004820152602e60248201527f45524337323155524953746f726167653a2055524920736574206f66206e6f6e60448201526d32bc34b9ba32b73a103a37b5b2b760911b60648201526084016107c9565b6000828152600a6020908152604090912082516108ff9284019061268b565b600d5460ff1615611a085760405162461bcd60e51b815260206004820152601060248201526f14185d5cd8589b194e881c185d5cd95960821b60448201526064016107c9565b600d805460ff191660011790557f62e78cea01bee320cd4e420270b5ea74000d11b0c9f74754ebdbfc544b05a2586117783390565b6000610f8c83836121e7565b816001600160a01b0316836001600160a01b03161415611aab5760405162461bcd60e51b815260206004820152601960248201527f4552433732313a20617070726f766520746f2063616c6c65720000000000000060448201526064016107c9565b6001600160a01b03838116600081815260056020908152604080832094871680845294825291829020805460ff191686151590811790915591519182527f17307eab39ab6107e8899845ad3d59bd9653f200f220920489ca2b5937696c31910160405180910390a3505050565b611b238484846114af565b611b2f8484848461221f565b6110465760405162461bcd60e51b81526004016107c990612c05565b6060611b568261133e565b611bbc5760405162461bcd60e51b815260206004820152603160248201527f45524337323155524953746f726167653a2055524920717565727920666f72206044820152703737b732bc34b9ba32b73a103a37b5b2b760791b60648201526084016107c9565b6000828152600a602052604081208054611bd590612d82565b80601f0160208091040260200160405190810160405280929190818152602001828054611c0190612d82565b8015611c4e5780601f10611c2357610100808354040283529160200191611c4e565b820191906000526020600020905b815481529060010190602001808311611c3157829003601f168201915b505050505090506000611c6c60408051602081019091526000815290565b9050805160001415611c7f575092915050565b815115611cb1578082604051602001611c99929190612a6b565b60405160208183030381529060405292505050919050565b6112598461232c565b60006106c9825490565b60006001611cd184610d36565b611cdb9190612d28565b600083815260076020526040902054909150808214611d2e576001600160a01b03841660009081526006602090815260408083208584528252808320548484528184208190558352600790915290208190555b5060009182526007602090815260408084208490556001600160a01b039094168352600681528383209183525290812055565b600854600090611d7390600190612d28565b60008381526009602052604081205460088054939450909284908110611da957634e487b7160e01b600052603260045260246000fd5b906000526020600020015490508060088381548110611dd857634e487b7160e01b600052603260045260246000fd5b6000918252602080832090910192909255828152600990915260408082208490558582528120556008805480611e1e57634e487b7160e01b600052603160045260246000fd5b6001900381819060005260206000200160009055905550505050565b6000611e4583610d36565b6001600160a01b039093166000908152600660209081526040808320868452825280832085905593825260079052919091209190915550565b60006001600160e01b03198216637965db0b60e01b14806106c957506106c982612403565b6108ff838383611261565b60606000611ebd836002612d09565b611ec8906002612cdd565b67ffffffffffffffff811115611eee57634e487b7160e01b600052604160045260246000fd5b6040519080825280601f01601f191660200182016040528015611f18576020820181803683370190505b509050600360fc1b81600081518110611f4157634e487b7160e01b600052603260045260246000fd5b60200101906001600160f81b031916908160001a905350600f60fb1b81600181518110611f7e57634e487b7160e01b600052603260045260246000fd5b60200101906001600160f81b031916908160001a9053506000611fa2846002612d09565b611fad906001612cdd565b90505b6001811115612041576f181899199a1a9b1b9c1cb0b131b232b360811b85600f1660108110611fef57634e487b7160e01b600052603260045260246000fd5b1a60f81b82828151811061201357634e487b7160e01b600052603260045260246000fd5b60200101906001600160f81b031916908160001a90535060049490941c9361203a81612d6b565b9050611fb0565b508315610f8c5760405162461bcd60e51b815260206004820181905260248201527f537472696e67733a20686578206c656e67746820696e73756666696369656e7460448201526064016107c9565b61209a8282610f93565b610a6c576000828152600b602090815260408083206001600160a01b03851684529091529020805460ff191660011790556120d23390565b6001600160a01b0316816001600160a01b0316837f2f8788117e7eff1d82e926ec794901d17c78024a50270940304540a733656f0d60405160405180910390a45050565b6000610f8c836001600160a01b038416612428565b6121358282610f93565b15610a6c576000828152600b602090815260408083206001600160a01b0385168085529252808320805460ff1916905551339285917ff6391f5c32d9c69d2a47ea670b442974b53935d1edc7fd64eb21e047a839171b9190a45050565b6000610f8c836001600160a01b038416612477565b6121b081612594565b6000818152600a6020526040902080546121c990612d82565b159050610b3c576000818152600a60205260408120610b3c9161270f565b600082600001828154811061220c57634e487b7160e01b600052603260045260246000fd5b9060005260206000200154905092915050565b60006001600160a01b0384163b1561232157604051630a85bd0160e11b81526001600160a01b0385169063150b7a0290612263903390899088908890600401612bb5565b602060405180830381600087803b15801561227d57600080fd5b505af19250505080156122ad575060408051601f3d908101601f191682019092526122aa918101906129c1565b60015b612307573d8080156122db576040519150601f19603f3d011682016040523d82523d6000602084013e6122e0565b606091505b5080516122ff5760405162461bcd60e51b81526004016107c990612c05565b805181602001fd5b6001600160e01b031916630a85bd0160e11b149050611259565b506001949350505050565b60606123378261133e565b61239b5760405162461bcd60e51b815260206004820152602f60248201527f4552433732314d657461646174613a2055524920717565727920666f72206e6f60448201526e3732bc34b9ba32b73a103a37b5b2b760891b60648201526084016107c9565b60006123b260408051602081019091526000815290565b905060008151116123d25760405180602001604052806000815250610f8c565b806123dc8461113f565b6040516020016123ed929190612a6b565b6040516020818303038152906040529392505050565b60006001600160e01b0319821663780e9d6360e01b14806106c957506106c98261263b565b600081815260018301602052604081205461246f575081546001818101845560008481526020808220909301849055845484825282860190935260409020919091556106c9565b5060006106c9565b6000818152600183016020526040812054801561258a57600061249b600183612d28565b85549091506000906124af90600190612d28565b90508181146125305760008660000182815481106124dd57634e487b7160e01b600052603260045260246000fd5b906000526020600020015490508087600001848154811061250e57634e487b7160e01b600052603260045260246000fd5b6000918252602080832090910192909255918252600188019052604090208390555b855486908061254f57634e487b7160e01b600052603160045260246000fd5b6001900381819060005260206000200160009055905585600101600086815260200190815260200160002060009055600193505050506106c9565b60009150506106c9565b600061259f82610cbf565b90506125ad81600084611ea3565b6125b860008361135b565b6001600160a01b03811660009081526003602052604081208054600192906125e1908490612d28565b909155505060008281526002602052604080822080546001600160a01b0319169055518391906001600160a01b038416907fddf252ad1be2c89b69c2b068fc378daa952ba7f163c4a11628f55a4df523b3ef908390a45050565b60006001600160e01b031982166380ac58cd60e01b148061266c57506001600160e01b03198216635b5e139f60e01b145b806106c957506301ffc9a760e01b6001600160e01b03198316146106c9565b82805461269790612d82565b90600052602060002090601f0160209004810192826126b957600085556126ff565b82601f106126d257805160ff19168380011785556126ff565b828001600101855582156126ff579182015b828111156126ff5782518255916020019190600101906126e4565b5061270b929150612745565b5090565b50805461271b90612d82565b6000825580601f1061272b575050565b601f016020900490600052602060002090810190610b3c91905b5b8082111561270b5760008155600101612746565b600067ffffffffffffffff8084111561277557612775612e18565b604051601f8501601f19908116603f0116810190828211818310171561279d5761279d612e18565b816040528093508581528686860111156127b657600080fd5b858560208301376000602087830101525050509392505050565b80356001600160a01b0381168114610cba57600080fd5b6000602082840312156127f8578081fd5b610f8c826127d0565b60008060408385031215612813578081fd5b61281c836127d0565b915061282a602084016127d0565b90509250929050565b600080600060608486031215612847578081fd5b612850846127d0565b925061285e602085016127d0565b9150604084013590509250925092565b60008060008060808587031215612883578081fd5b61288c856127d0565b935061289a602086016127d0565b925060408501359150606085013567ffffffffffffffff8111156128bc578182fd5b8501601f810187136128cc578182fd5b6128db8782356020840161275a565b91505092959194509250565b600080604083850312156128f9578182fd5b612902836127d0565b915060208301358015158114612916578182fd5b809150509250929050565b60008060408385031215612933578182fd5b61293c836127d0565b946020939093013593505050565b60006020828403121561295b578081fd5b5035919050565b60008060408385031215612974578182fd5b8235915061282a602084016127d0565b60008060408385031215612996578182fd5b50508035926020909101359150565b6000602082840312156129b6578081fd5b8135610f8c81612e2e565b6000602082840312156129d2578081fd5b8151610f8c81612e2e565b6000602082840312156129ee578081fd5b813567ffffffffffffffff811115612a04578182fd5b8201601f81018413612a14578182fd5b6112598482356020840161275a565b60008151808452612a3b816020860160208601612d3f565b601f01601f19169290920160200192915050565b60008151612a61818560208601612d3f565b9290920192915050565b60008351612a7d818460208801612d3f565b835190830190612a91818360208801612d3f565b01949350505050565b600080845482600182811c915080831680612ab657607f831692505b6020808410821415612ad657634e487b7160e01b87526022600452602487fd5b818015612aea5760018114612afb57612b27565b60ff19861689528489019650612b27565b60008b815260209020885b86811015612b1f5781548b820152908501908301612b06565b505084890196505b505050505050612b378185612a4f565b95945050505050565b7f416363657373436f6e74726f6c3a206163636f756e7420000000000000000000815260008351612b78816017850160208801612d3f565b7001034b99036b4b9b9b4b733903937b6329607d1b6017918401918201528351612ba9816028840160208801612d3f565b01602801949350505050565b6001600160a01b0385811682528416602082015260408101839052608060608201819052600090612be890830184612a23565b9695505050505050565b602081526000610f8c6020830184612a23565b60208082526032908201527f4552433732313a207472616e7366657220746f206e6f6e20455243373231526560408201527131b2b4bb32b91034b6b83632b6b2b73a32b960711b606082015260800190565b6020808252818101527f4f776e61626c653a2063616c6c6572206973206e6f7420746865206f776e6572604082015260600190565b60208082526031908201527f4552433732313a207472616e736665722063616c6c6572206973206e6f74206f6040820152701ddb995c881b9bdc88185c1c1c9bdd9959607a1b606082015260800190565b60008219821115612cf057612cf0612dec565b500190565b600082612d0457612d04612e02565b500490565b6000816000190483118215151615612d2357612d23612dec565b500290565b600082821015612d3a57612d3a612dec565b500390565b60005b83811015612d5a578181015183820152602001612d42565b838111156110465750506000910152565b600081612d7a57612d7a612dec565b506000190190565b600181811c90821680612d9657607f821691505b60208210811415612db757634e487b7160e01b600052602260045260246000fd5b50919050565b6000600019821415612dd157612dd1612dec565b5060010190565b600082612de757612de7612e02565b500690565b634e487b7160e01b600052601160045260246000fd5b634e487b7160e01b600052601260045260246000fd5b634e487b7160e01b600052604160045260246000fd5b6001600160e01b031981168114610b3c57600080fdfea264697066735822122051204d7dc71d446e15f5dd6c1db20577982f6466d876b0c30c7fde6ef834259064736f6c63430008040033",
  "linkReferences": {},
  "deployedLinkReferences": {}
}