{
  "_format": "hh-sol-artifact-1",
  "contractName": "NFT",
  "sourceName": "contracts/NFT.sol",
  "abi": [
    {
      "inputs": [
        {
          "internalType": "address",
          "name": "_addr",
          "type": "address"
        }
      ],
      "stateMutability": "nonpayable",
      "type": "constructor"
    },
    {
      "anonymous": false,
      "inputs": [
        {
          "indexed": true,
          "internalType": "address",
          "name": "owner",
          "type": "address"
        },
        {
          "indexed": true,
          "internalType": "address",
          "name": "approved",
          "type": "address"
        },
        {
          "indexed": true,
          "internalType": "uint256",
          "name": "tokenId",
          "type": "uint256"
        }
      ],
      "name": "Approval",
      "type": "event"
    },
    {
      "anonymous": false,
      "inputs": [
        {
          "indexed": true,
          "internalType": "address",
          "name": "owner",
          "type": "address"
        },
        {
          "indexed": true,
          "internalType": "address",
          "name": "operator",
          "type": "address"
        },
        {
          "indexed": false,
          "internalType": "bool",
          "name": "approved",
          "type": "bool"
        }
      ],
      "name": "ApprovalForAll",
      "type": "event"
    },
    {
      "anonymous": false,
      "inputs": [
        {
          "indexed": true,
          "internalType": "bytes32",
          "name": "role",
          "type": "bytes32"
        },
        {
          "indexed": true,
          "internalType": "bytes32",
          "name": "previousAdminRole",
          "type": "bytes32"
        },
        {
          "indexed": true,
          "internalType": "bytes32",
          "name": "newAdminRole",
          "type": "bytes32"
        }
      ],
      "name": "RoleAdminChanged",
      "type": "event"
    },
    {
      "anonymous": false,
      "inputs": [
        {
          "indexed": true,
          "internalType": "bytes32",
          "name": "role",
          "type": "bytes32"
        },
        {
          "indexed": true,
          "internalType": "address",
          "name": "account",
          "type": "address"
        },
        {
          "indexed": true,
          "internalType": "address",
          "name": "sender",
          "type": "address"
        }
      ],
      "name": "RoleGranted",
      "type": "event"
    },
    {
      "anonymous": false,
      "inputs": [
        {
          "indexed": true,
          "internalType": "bytes32",
          "name": "role",
          "type": "bytes32"
        },
        {
          "indexed": true,
          "internalType": "address",
          "name": "account",
          "type": "address"
        },
        {
          "indexed": true,
          "internalType": "address",
          "name": "sender",
          "type": "address"
        }
      ],
      "name": "RoleRevoked",
      "type": "event"
    },
    {
      "anonymous": false,
      "inputs": [
        {
          "indexed": true,
          "internalType": "address",
          "name": "from",
          "type": "address"
        },
        {
          "indexed": true,
          "internalType": "address",
          "name": "to",
          "type": "address"
        },
        {
          "indexed": true,
          "internalType": "uint256",
          "name": "tokenId",
          "type": "uint256"
        }
      ],
      "name": "Transfer",
      "type": "event"
    },
    {
      "inputs": [],
      "name": "DEFAULT_ADMIN_ROLE",
      "outputs": [
        {
          "internalType": "bytes32",
          "name": "",
          "type": "bytes32"
        }
      ],
      "stateMutability": "view",
      "type": "function"
    },
    {
      "inputs": [
        {
          "internalType": "string",
          "name": "ipfs",
          "type": "string"
        }
      ],
      "name": "MintIsAllowed",
      "outputs": [
        {
          "internalType": "bool",
          "name": "",
          "type": "bool"
        }
      ],
      "stateMutability": "view",
      "type": "function"
    },
    {
      "inputs": [
        {
          "internalType": "uint256",
          "name": "",
          "type": "uint256"
        }
      ],
      "name": "MintedNFTs",
      "outputs": [
        {
          "internalType": "string",
          "name": "",
          "type": "string"
        }
      ],
      "stateMutability": "view",
      "type": "function"
    },
    {
      "inputs": [],
      "name": "_possibleToMint",
      "outputs": [
        {
          "internalType": "uint256",
          "name": "",
          "type": "uint256"
        }
      ],
      "stateMutability": "view",
      "type": "function"
    },
    {
      "inputs": [
        {
          "internalType": "address",
          "name": "to",
          "type": "address"
        },
        {
          "internalType": "uint256",
          "name": "tokenId",
          "type": "uint256"
        }
      ],
      "name": "approve",
      "outputs": [],
      "stateMutability": "nonpayable",
      "type": "function"
    },
    {
      "inputs": [
        {
          "internalType": "address",
          "name": "owner",
          "type": "address"
        }
      ],
      "name": "balanceOf",
      "outputs": [
        {
          "internalType": "uint256",
          "name": "",
          "type": "uint256"
        }
      ],
      "stateMutability": "view",
      "type": "function"
    },
    {
      "inputs": [
        {
          "internalType": "uint256",
          "name": "_newValue",
          "type": "uint256"
        }
      ],
      "name": "changePossibleToMint",
      "outputs": [
        {
          "internalType": "bool",
          "name": "",
          "type": "bool"
        }
      ],
      "stateMutability": "nonpayable",
      "type": "function"
    },
    {
      "inputs": [
        {
          "internalType": "uint256",
          "name": "_newPrice",
          "type": "uint256"
        }
      ],
      "name": "changePrice",
      "outputs": [
        {
          "internalType": "bool",
          "name": "",
          "type": "bool"
        }
      ],
      "stateMutability": "nonpayable",
      "type": "function"
    },
    {
      "inputs": [
        {
          "internalType": "uint256",
          "name": "tokenId",
          "type": "uint256"
        }
      ],
      "name": "getApproved",
      "outputs": [
        {
          "internalType": "address",
          "name": "",
          "type": "address"
        }
      ],
      "stateMutability": "view",
      "type": "function"
    },
    {
      "inputs": [],
      "name": "getPrice",
      "outputs": [
        {
          "internalType": "uint256",
          "name": "",
          "type": "uint256"
        }
      ],
      "stateMutability": "view",
      "type": "function"
    },
    {
      "inputs": [
        {
          "internalType": "bytes32",
          "name": "role",
          "type": "bytes32"
        }
      ],
      "name": "getRoleAdmin",
      "outputs": [
        {
          "internalType": "bytes32",
          "name": "",
          "type": "bytes32"
        }
      ],
      "stateMutability": "view",
      "type": "function"
    },
    {
      "inputs": [
        {
          "internalType": "bytes32",
          "name": "role",
          "type": "bytes32"
        },
        {
          "internalType": "uint256",
          "name": "index",
          "type": "uint256"
        }
      ],
      "name": "getRoleMember",
      "outputs": [
        {
          "internalType": "address",
          "name": "",
          "type": "address"
        }
      ],
      "stateMutability": "view",
      "type": "function"
    },
    {
      "inputs": [
        {
          "internalType": "bytes32",
          "name": "role",
          "type": "bytes32"
        }
      ],
      "name": "getRoleMemberCount",
      "outputs": [
        {
          "internalType": "uint256",
          "name": "",
          "type": "uint256"
        }
      ],
      "stateMutability": "view",
      "type": "function"
    },
    {
      "inputs": [
        {
          "internalType": "address",
          "name": "_team",
          "type": "address"
        },
        {
          "internalType": "string",
          "name": "nftURI",
          "type": "string"
        },
        {
          "internalType": "string",
          "name": "ipfshash",
          "type": "string"
        }
      ],
      "name": "giveAway",
      "outputs": [
        {
          "internalType": "uint256",
          "name": "",
          "type": "uint256"
        }
      ],
      "stateMutability": "nonpayable",
      "type": "function"
    },
    {
      "inputs": [
        {
          "internalType": "bytes32",
          "name": "role",
          "type": "bytes32"
        },
        {
          "internalType": "address",
          "name": "account",
          "type": "address"
        }
      ],
      "name": "grantRole",
      "outputs": [],
      "stateMutability": "nonpayable",
      "type": "function"
    },
    {
      "inputs": [
        {
          "internalType": "bytes32",
          "name": "role",
          "type": "bytes32"
        },
        {
          "internalType": "address",
          "name": "account",
          "type": "address"
        }
      ],
      "name": "hasRole",
      "outputs": [
        {
          "internalType": "bool",
          "name": "",
          "type": "bool"
        }
      ],
      "stateMutability": "view",
      "type": "function"
    },
    {
      "inputs": [
        {
          "internalType": "address",
          "name": "owner",
          "type": "address"
        },
        {
          "internalType": "address",
          "name": "operator",
          "type": "address"
        }
      ],
      "name": "isApprovedForAll",
      "outputs": [
        {
          "internalType": "bool",
          "name": "",
          "type": "bool"
        }
      ],
      "stateMutability": "view",
      "type": "function"
    },
    {
      "inputs": [
        {
          "internalType": "string",
          "name": "nftURI",
          "type": "string"
        },
        {
          "internalType": "string",
          "name": "ipfshash",
          "type": "string"
        }
      ],
      "name": "mintItem",
      "outputs": [
        {
          "internalType": "uint256",
          "name": "",
          "type": "uint256"
        }
      ],
      "stateMutability": "payable",
      "type": "function"
    },
    {
      "inputs": [],
      "name": "name",
      "outputs": [
        {
          "internalType": "string",
          "name": "",
          "type": "string"
        }
      ],
      "stateMutability": "view",
      "type": "function"
    },
    {
      "inputs": [
        {
          "internalType": "uint256",
          "name": "tokenId",
          "type": "uint256"
        }
      ],
      "name": "ownerOf",
      "outputs": [
        {
          "internalType": "address",
          "name": "",
          "type": "address"
        }
      ],
      "stateMutability": "view",
      "type": "function"
    },
    {
      "inputs": [],
      "name": "price",
      "outputs": [
        {
          "internalType": "uint256",
          "name": "",
          "type": "uint256"
        }
      ],
      "stateMutability": "view",
      "type": "function"
    },
    {
      "inputs": [
        {
          "internalType": "bytes32",
          "name": "role",
          "type": "bytes32"
        },
        {
          "internalType": "address",
          "name": "account",
          "type": "address"
        }
      ],
      "name": "renounceRole",
      "outputs": [],
      "stateMutability": "nonpayable",
      "type": "function"
    },
    {
      "inputs": [
        {
          "internalType": "bytes32",
          "name": "role",
          "type": "bytes32"
        },
        {
          "internalType": "address",
          "name": "account",
          "type": "address"
        }
      ],
      "name": "revokeRole",
      "outputs": [],
      "stateMutability": "nonpayable",
      "type": "function"
    },
    {
      "inputs": [
        {
          "internalType": "address",
          "name": "from",
          "type": "address"
        },
        {
          "internalType": "address",
          "name": "to",
          "type": "address"
        },
        {
          "internalType": "uint256",
          "name": "tokenId",
          "type": "uint256"
        }
      ],
      "name": "safeTransferFrom",
      "outputs": [],
      "stateMutability": "nonpayable",
      "type": "function"
    },
    {
      "inputs": [
        {
          "internalType": "address",
          "name": "from",
          "type": "address"
        },
        {
          "internalType": "address",
          "name": "to",
          "type": "address"
        },
        {
          "internalType": "uint256",
          "name": "tokenId",
          "type": "uint256"
        },
        {
          "internalType": "bytes",
          "name": "_data",
          "type": "bytes"
        }
      ],
      "name": "safeTransferFrom",
      "outputs": [],
      "stateMutability": "nonpayable",
      "type": "function"
    },
    {
      "inputs": [
        {
          "internalType": "address",
          "name": "operator",
          "type": "address"
        },
        {
          "internalType": "bool",
          "name": "approved",
          "type": "bool"
        }
      ],
      "name": "setApprovalForAll",
      "outputs": [],
      "stateMutability": "nonpayable",
      "type": "function"
    },
    {
      "inputs": [
        {
          "internalType": "bytes4",
          "name": "interfaceId",
          "type": "bytes4"
        }
      ],
      "name": "supportsInterface",
      "outputs": [
        {
          "internalType": "bool",
          "name": "",
          "type": "bool"
        }
      ],
      "stateMutability": "view",
      "type": "function"
    },
    {
      "inputs": [],
      "name": "symbol",
      "outputs": [
        {
          "internalType": "string",
          "name": "",
          "type": "string"
        }
      ],
      "stateMutability": "view",
      "type": "function"
    },
    {
      "inputs": [
        {
          "internalType": "uint256",
          "name": "index",
          "type": "uint256"
        }
      ],
      "name": "tokenByIndex",
      "outputs": [
        {
          "internalType": "uint256",
          "name": "",
          "type": "uint256"
        }
      ],
      "stateMutability": "view",
      "type": "function"
    },
    {
      "inputs": [
        {
          "internalType": "address",
          "name": "owner",
          "type": "address"
        },
        {
          "internalType": "uint256",
          "name": "index",
          "type": "uint256"
        }
      ],
      "name": "tokenOfOwnerByIndex",
      "outputs": [
        {
          "internalType": "uint256",
          "name": "",
          "type": "uint256"
        }
      ],
      "stateMutability": "view",
      "type": "function"
    },
    {
      "inputs": [
        {
          "internalType": "uint256",
          "name": "tokenId",
          "type": "uint256"
        }
      ],
      "name": "tokenURI",
      "outputs": [
        {
          "internalType": "string",
          "name": "",
          "type": "string"
        }
      ],
      "stateMutability": "view",
      "type": "function"
    },
    {
      "inputs": [],
      "name": "totalSupply",
      "outputs": [
        {
          "internalType": "uint256",
          "name": "",
          "type": "uint256"
        }
      ],
      "stateMutability": "view",
      "type": "function"
    },
    {
      "inputs": [
        {
          "internalType": "address",
          "name": "from",
          "type": "address"
        },
        {
          "internalType": "address",
          "name": "to",
          "type": "address"
        },
        {
          "internalType": "uint256",
          "name": "tokenId",
          "type": "uint256"
        }
      ],
      "name": "transferFrom",
      "outputs": [],
      "stateMutability": "nonpayable",
      "type": "function"
    }
  ],
  "bytecode": "0x60806040526107d0601055666a94d74f4300006011553480156200002257600080fd5b5060405162002f3838038062002f3883398101604081905262000045916200018a565b604080518082018252600f81526e02930bb34b7339023b7b13634b7399608d1b6020808301918252835180850190945260038452621491d560ea1b9084015281519192916200009791600091620000e4565b508051620000ad906001906020840190620000e4565b50506001600d5550601380546001600160a01b039092166001600160a01b0319928316179055600f805490911633179055620001f7565b828054620000f290620001ba565b90600052602060002090601f01602090048101928262000116576000855562000161565b82601f106200013157805160ff191683800117855562000161565b8280016001018555821562000161579182015b828111156200016157825182559160200191906001019062000144565b506200016f92915062000173565b5090565b5b808211156200016f576000815560010162000174565b6000602082840312156200019c578081fd5b81516001600160a01b0381168114620001b3578182fd5b9392505050565b600181811c90821680620001cf57607f821691505b60208210811415620001f157634e487b7160e01b600052602260045260246000fd5b50919050565b612d3180620002076000396000f3fe6080604052600436106101ee5760003560e01c806370a082311161010d578063a22cb465116100a0578063c2b380651161006f578063c2b3806514610571578063c87b56dd14610591578063ca15c873146105b1578063d547741f146105d1578063e985e9c5146105f157600080fd5b8063a22cb465146104f1578063a2b40d1914610511578063b88d4fde14610531578063c26a9c981461055157600080fd5b806395d89b41116100dc57806395d89b411461049c57806398d5fdca146104b1578063a035b1fe146104c6578063a217fddf146104dc57600080fd5b806370a082311461041c57806388d0de031461043c5780639010d07c1461045c57806391d148541461047c57600080fd5b806329cbc29d1161018557806342842e0e1161015457806342842e0e146103a95780634f6ccce7146103c95780636352211e146103e9578063705bb0711461040957600080fd5b806329cbc29d146103335780632f2ff15d146103495780632f745c591461036957806336568abe1461038957600080fd5b80631524eec9116101c15780631524eec9146102a457806318160ddd146102c457806323b872dd146102e3578063248a9ca31461030357600080fd5b806301ffc9a7146101f357806306fdde0314610228578063081812fc1461024a578063095ea7b314610282575b600080fd5b3480156101ff57600080fd5b5061021361020e366004612867565b61063a565b60405190151581526020015b60405180910390f35b34801561023457600080fd5b5061023d61064b565b60405161021f9190612adb565b34801561025657600080fd5b5061026a61026536600461280c565b6106dd565b6040516001600160a01b03909116815260200161021f565b34801561028e57600080fd5b506102a261029d3660046127e3565b61076a565b005b3480156102b057600080fd5b506102136102bf36600461289f565b610880565b3480156102d057600080fd5b506008545b60405190815260200161021f565b3480156102ef57600080fd5b506102a26102fe366004612684565b610900565b34801561030f57600080fd5b506102d561031e36600461280c565b6000908152600b602052604090206001015490565b34801561033f57600080fd5b506102d560105481565b34801561035557600080fd5b506102a2610364366004612824565b610931565b34801561037557600080fd5b506102d56103843660046127e3565b610957565b34801561039557600080fd5b506102a26103a4366004612824565b6109ed565b3480156103b557600080fd5b506102a26103c4366004612684565b610a6b565b3480156103d557600080fd5b506102d56103e436600461280c565b610a86565b3480156103f557600080fd5b5061026a61040436600461280c565b610b27565b6102d56104173660046128d2565b610b9e565b34801561042857600080fd5b506102d5610437366004612638565b610dbf565b34801561044857600080fd5b506102d5610457366004612772565b610e46565b34801561046857600080fd5b5061026a610477366004612846565b610f49565b34801561048857600080fd5b50610213610497366004612824565b610f68565b3480156104a857600080fd5b5061023d610f93565b3480156104bd57600080fd5b506011546102d5565b3480156104d257600080fd5b506102d560115481565b3480156104e857600080fd5b506102d5600081565b3480156104fd57600080fd5b506102a261050c366004612738565b610fa2565b34801561051d57600080fd5b5061021361052c36600461280c565b610fad565b34801561053d57600080fd5b506102a261054c3660046126bf565b61101f565b34801561055d57600080fd5b5061023d61056c36600461280c565b611057565b34801561057d57600080fd5b5061021361058c36600461280c565b611103565b34801561059d57600080fd5b5061023d6105ac36600461280c565b611177565b3480156105bd57600080fd5b506102d56105cc36600461280c565b611182565b3480156105dd57600080fd5b506102a26105ec366004612824565b611199565b3480156105fd57600080fd5b5061021361060c366004612652565b6001600160a01b03918216600090815260056020908152604080832093909416825291909152205460ff1690565b6000610645826111bf565b92915050565b60606000805461065a90612c36565b80601f016020809104026020016040519081016040528092919081815260200182805461068690612c36565b80156106d35780601f106106a8576101008083540402835291602001916106d3565b820191906000526020600020905b8154815290600101906020018083116106b657829003601f168201915b5050505050905090565b60006106e8826111e4565b61074e5760405162461bcd60e51b815260206004820152602c60248201527f4552433732313a20617070726f76656420717565727920666f72206e6f6e657860448201526b34b9ba32b73a103a37b5b2b760a11b60648201526084015b60405180910390fd5b506000908152600460205260409020546001600160a01b031690565b600061077582610b27565b9050806001600160a01b0316836001600160a01b031614156107e35760405162461bcd60e51b815260206004820152602160248201527f4552433732313a20617070726f76616c20746f2063757272656e74206f776e656044820152603960f91b6064820152608401610745565b336001600160a01b03821614806107ff57506107ff813361060c565b6108715760405162461bcd60e51b815260206004820152603860248201527f4552433732313a20617070726f76652063616c6c6572206973206e6f74206f7760448201527f6e6572206e6f7220617070726f76656420666f7220616c6c00000000000000006064820152608401610745565b61087b8383611201565b505050565b6000805b6012548110156108f7578280519060200120601282815481106108b757634e487b7160e01b600052603260045260246000fd5b906000526020600020016040516108ce919061295f565b604051809103902014156108e55750600092915050565b806108ef81612c71565b915050610884565b50600192915050565b61090a338261126f565b6109265760405162461bcd60e51b815260040161074590612b40565b61087b838383611355565b6000828152600b602052604090206001015461094d8133611500565b61087b8383611564565b600061096283610dbf565b82106109c45760405162461bcd60e51b815260206004820152602b60248201527f455243373231456e756d657261626c653a206f776e657220696e646578206f7560448201526a74206f6620626f756e647360a81b6064820152608401610745565b506001600160a01b03919091166000908152600660209081526040808320938352929052205490565b6001600160a01b0381163314610a5d5760405162461bcd60e51b815260206004820152602f60248201527f416363657373436f6e74726f6c3a2063616e206f6e6c792072656e6f756e636560448201526e103937b632b9903337b91039b2b63360891b6064820152608401610745565b610a678282611586565b5050565b61087b8383836040518060200160405280600081525061101f565b6000610a9160085490565b8210610af45760405162461bcd60e51b815260206004820152602c60248201527f455243373231456e756d657261626c653a20676c6f62616c20696e646578206f60448201526b7574206f6620626f756e647360a01b6064820152608401610745565b60088281548110610b1557634e487b7160e01b600052603260045260246000fd5b90600052602060002001549050919050565b6000818152600260205260408120546001600160a01b0316806106455760405162461bcd60e51b815260206004820152602960248201527f4552433732313a206f776e657220717565727920666f72206e6f6e657869737460448201526832b73a103a37b5b2b760b91b6064820152608401610745565b60006002600d541415610bf35760405162461bcd60e51b815260206004820152601f60248201527f5265656e7472616e637947756172643a207265656e7472616e742063616c6c006044820152606401610745565b6002600d55610c0182610880565b610c4d5760405162461bcd60e51b815260206004820152601c60248201527f4e6f7420666f722073616c652c20616c7265616479206d696e746564000000006044820152606401610745565b600060115411610c9f5760405162461bcd60e51b815260206004820152601c60248201527f5072696365206d757374206265206174206c65617374203120776569000000006044820152606401610745565b6011543414610ce55760405162461bcd60e51b8152602060048201526012602482015271756e73756666696369656e742066756e647360701b6044820152606401610745565b600060105411610d2c5760405162461bcd60e51b81526020600482015260126024820152712334b939ba10323937b81034b99037bb32b960711b6044820152606401610745565b610d3a600e80546001019055565b6000610d45600e5490565b9050610d5133826115a8565b610d5b81856116e7565b6013546040516001600160a01b03909116903480156108fc02916000818181858888f19350505050158015610d94573d6000803e3d6000fd5b5060108054906000610da583612c1f565b9190505550610db383611772565b6001600d559392505050565b60006001600160a01b038216610e2a5760405162461bcd60e51b815260206004820152602a60248201527f4552433732313a2062616c616e636520717565727920666f7220746865207a65604482015269726f206164647265737360b01b6064820152608401610745565b506001600160a01b031660009081526003602052604090205490565b600f546000906001600160a01b03163314610eb45760405162461bcd60e51b815260206004820152602860248201527f6f6e6c79207468652041646d696e2063616e2067697665206177617920736f6d6044820152676520746f6b656e7360c01b6064820152608401610745565b610ebd82610880565b610f095760405162461bcd60e51b815260206004820152601c60248201527f4e6f7420666f722073616c652c20616c7265616479206d696e746564000000006044820152606401610745565b610f17600e80546001019055565b6000610f22600e5490565b9050610f2e85826115a8565b610f3881856116e7565b610f4183611772565b949350505050565b6000828152600c60205260408120610f6190836117b5565b9392505050565b6000918252600b602090815260408084206001600160a01b0393909316845291905290205460ff1690565b60606001805461065a90612c36565b610a673383836117c1565b600f546000906001600160a01b031633146110165760405162461bcd60e51b815260206004820152602360248201527f6f6e6c79207468652041646d696e2063616e206368616e67652074686520707260448201526269636560e81b6064820152608401610745565b50601155600190565b611029338361126f565b6110455760405162461bcd60e51b815260040161074590612b40565b61105184848484611890565b50505050565b6012818154811061106757600080fd5b90600052602060002001600091509050805461108290612c36565b80601f01602080910402602001604051908101604052809291908181526020018280546110ae90612c36565b80156110fb5780601f106110d0576101008083540402835291602001916110fb565b820191906000526020600020905b8154815290600101906020018083116110de57829003601f168201915b505050505081565b600f546000906001600160a01b0316331461116e5760405162461bcd60e51b815260206004820152602560248201527f6f6e6c79207468652041646d696e2063616e206368616e67652074686973206e6044820152643ab6b132b960d91b6064820152608401610745565b50601055600190565b6060610645826118c3565b6000818152600c6020526040812061064590611a32565b6000828152600b60205260409020600101546111b58133611500565b61087b8383611586565b60006001600160e01b03198216635a05180f60e01b1480610645575061064582611a3c565b6000908152600260205260409020546001600160a01b0316151590565b600081815260046020526040902080546001600160a01b0319166001600160a01b038416908117909155819061123682610b27565b6001600160a01b03167f8c5be1e5ebec7d5bd14f71427d1e84f3dd0314c0f7b2291e5b200ac8c7c3b92560405160405180910390a45050565b600061127a826111e4565b6112db5760405162461bcd60e51b815260206004820152602c60248201527f4552433732313a206f70657261746f7220717565727920666f72206e6f6e657860448201526b34b9ba32b73a103a37b5b2b760a11b6064820152608401610745565b60006112e683610b27565b9050806001600160a01b0316846001600160a01b031614806113215750836001600160a01b0316611316846106dd565b6001600160a01b0316145b80610f4157506001600160a01b0380821660009081526005602090815260408083209388168352929052205460ff16610f41565b826001600160a01b031661136882610b27565b6001600160a01b0316146113d05760405162461bcd60e51b815260206004820152602960248201527f4552433732313a207472616e73666572206f6620746f6b656e2074686174206960448201526839903737ba1037bbb760b91b6064820152608401610745565b6001600160a01b0382166114325760405162461bcd60e51b8152602060048201526024808201527f4552433732313a207472616e7366657220746f20746865207a65726f206164646044820152637265737360e01b6064820152608401610745565b61143d838383611a61565b611448600082611201565b6001600160a01b0383166000908152600360205260408120805460019290611471908490612bdc565b90915550506001600160a01b038216600090815260036020526040812080546001929061149f908490612b91565b909155505060008181526002602052604080822080546001600160a01b0319166001600160a01b0386811691821790925591518493918716917fddf252ad1be2c89b69c2b068fc378daa952ba7f163c4a11628f55a4df523b3ef91a4505050565b61150a8282610f68565b610a6757611522816001600160a01b03166014611a6c565b61152d836020611a6c565b60405160200161153e929190612a29565b60408051601f198184030181529082905262461bcd60e51b825261074591600401612adb565b61156e8282611c4e565b6000828152600c6020526040902061087b9082611cd4565b6115908282611ce9565b6000828152600c6020526040902061087b9082611d50565b6001600160a01b0382166115fe5760405162461bcd60e51b815260206004820181905260248201527f4552433732313a206d696e7420746f20746865207a65726f20616464726573736044820152606401610745565b611607816111e4565b156116545760405162461bcd60e51b815260206004820152601c60248201527f4552433732313a20746f6b656e20616c7265616479206d696e746564000000006044820152606401610745565b61166060008383611a61565b6001600160a01b0382166000908152600360205260408120805460019290611689908490612b91565b909155505060008181526002602052604080822080546001600160a01b0319166001600160a01b03861690811790915590518392907fddf252ad1be2c89b69c2b068fc378daa952ba7f163c4a11628f55a4df523b3ef908290a45050565b6116f0826111e4565b6117535760405162461bcd60e51b815260206004820152602e60248201527f45524337323155524953746f726167653a2055524920736574206f66206e6f6e60448201526d32bc34b9ba32b73a103a37b5b2b760911b6064820152608401610745565b6000828152600a60209081526040909120825161087b928401906124ee565b601280546001810182556000919091528151610a67917fbb8a6a4669ba250d26cd7a459eca9d215f8307e33aebe50379bc5a3617ec3444019060208401906124ee565b6000610f618383611d65565b816001600160a01b0316836001600160a01b031614156118235760405162461bcd60e51b815260206004820152601960248201527f4552433732313a20617070726f766520746f2063616c6c6572000000000000006044820152606401610745565b6001600160a01b03838116600081815260056020908152604080832094871680845294825291829020805460ff191686151590811790915591519182527f17307eab39ab6107e8899845ad3d59bd9653f200f220920489ca2b5937696c31910160405180910390a3505050565b61189b848484611355565b6118a784848484611d9d565b6110515760405162461bcd60e51b815260040161074590612aee565b60606118ce826111e4565b6119345760405162461bcd60e51b815260206004820152603160248201527f45524337323155524953746f726167653a2055524920717565727920666f72206044820152703737b732bc34b9ba32b73a103a37b5b2b760791b6064820152608401610745565b6000828152600a60205260408120805461194d90612c36565b80601f016020809104026020016040519081016040528092919081815260200182805461197990612c36565b80156119c65780601f1061199b576101008083540402835291602001916119c6565b820191906000526020600020905b8154815290600101906020018083116119a957829003601f168201915b5050505050905060006119e460408051602081019091526000815290565b90508051600014156119f7575092915050565b815115611a29578082604051602001611a119291906129fa565b60405160208183030381529060405292505050919050565b610f4184611eaa565b6000610645825490565b60006001600160e01b03198216637965db0b60e01b1480610645575061064582611f81565b61087b838383611fa6565b60606000611a7b836002612bbd565b611a86906002612b91565b67ffffffffffffffff811115611aac57634e487b7160e01b600052604160045260246000fd5b6040519080825280601f01601f191660200182016040528015611ad6576020820181803683370190505b509050600360fc1b81600081518110611aff57634e487b7160e01b600052603260045260246000fd5b60200101906001600160f81b031916908160001a905350600f60fb1b81600181518110611b3c57634e487b7160e01b600052603260045260246000fd5b60200101906001600160f81b031916908160001a9053506000611b60846002612bbd565b611b6b906001612b91565b90505b6001811115611bff576f181899199a1a9b1b9c1cb0b131b232b360811b85600f1660108110611bad57634e487b7160e01b600052603260045260246000fd5b1a60f81b828281518110611bd157634e487b7160e01b600052603260045260246000fd5b60200101906001600160f81b031916908160001a90535060049490941c93611bf881612c1f565b9050611b6e565b508315610f615760405162461bcd60e51b815260206004820181905260248201527f537472696e67733a20686578206c656e67746820696e73756666696369656e746044820152606401610745565b611c588282610f68565b610a67576000828152600b602090815260408083206001600160a01b03851684529091529020805460ff19166001179055611c903390565b6001600160a01b0316816001600160a01b0316837f2f8788117e7eff1d82e926ec794901d17c78024a50270940304540a733656f0d60405160405180910390a45050565b6000610f61836001600160a01b03841661205e565b611cf38282610f68565b15610a67576000828152600b602090815260408083206001600160a01b0385168085529252808320805460ff1916905551339285917ff6391f5c32d9c69d2a47ea670b442974b53935d1edc7fd64eb21e047a839171b9190a45050565b6000610f61836001600160a01b0384166120ad565b6000826000018281548110611d8a57634e487b7160e01b600052603260045260246000fd5b9060005260206000200154905092915050565b60006001600160a01b0384163b15611e9f57604051630a85bd0160e11b81526001600160a01b0385169063150b7a0290611de1903390899088908890600401612a9e565b602060405180830381600087803b158015611dfb57600080fd5b505af1925050508015611e2b575060408051601f3d908101601f19168201909252611e2891810190612883565b60015b611e85573d808015611e59576040519150601f19603f3d011682016040523d82523d6000602084013e611e5e565b606091505b508051611e7d5760405162461bcd60e51b815260040161074590612aee565b805181602001fd5b6001600160e01b031916630a85bd0160e11b149050610f41565b506001949350505050565b6060611eb5826111e4565b611f195760405162461bcd60e51b815260206004820152602f60248201527f4552433732314d657461646174613a2055524920717565727920666f72206e6f60448201526e3732bc34b9ba32b73a103a37b5b2b760891b6064820152608401610745565b6000611f3060408051602081019091526000815290565b90506000815111611f505760405180602001604052806000815250610f61565b80611f5a846121ca565b604051602001611f6b9291906129fa565b6040516020818303038152906040529392505050565b60006001600160e01b0319821663780e9d6360e01b14806106455750610645826122e4565b6001600160a01b03831661200157611ffc81600880546000838152600960205260408120829055600182018355919091527ff3f7a9fe364faab93b216da50a3214154f22a0a2b415b23a84c8169e8b636ee30155565b612024565b816001600160a01b0316836001600160a01b031614612024576120248382612334565b6001600160a01b03821661203b5761087b816123d1565b826001600160a01b0316826001600160a01b03161461087b5761087b82826124aa565b60008181526001830160205260408120546120a557508154600181810184556000848152602080822090930184905584548482528286019093526040902091909155610645565b506000610645565b600081815260018301602052604081205480156121c05760006120d1600183612bdc565b85549091506000906120e590600190612bdc565b905081811461216657600086600001828154811061211357634e487b7160e01b600052603260045260246000fd5b906000526020600020015490508087600001848154811061214457634e487b7160e01b600052603260045260246000fd5b6000918252602080832090910192909255918252600188019052604090208390555b855486908061218557634e487b7160e01b600052603160045260246000fd5b600190038181906000526020600020016000905590558560010160008681526020019081526020016000206000905560019350505050610645565b6000915050610645565b6060816121ee5750506040805180820190915260018152600360fc1b602082015290565b8160005b8115612218578061220281612c71565b91506122119050600a83612ba9565b91506121f2565b60008167ffffffffffffffff81111561224157634e487b7160e01b600052604160045260246000fd5b6040519080825280601f01601f19166020018201604052801561226b576020820181803683370190505b5090505b8415610f4157612280600183612bdc565b915061228d600a86612c8c565b612298906030612b91565b60f81b8183815181106122bb57634e487b7160e01b600052603260045260246000fd5b60200101906001600160f81b031916908160001a9053506122dd600a86612ba9565b945061226f565b60006001600160e01b031982166380ac58cd60e01b148061231557506001600160e01b03198216635b5e139f60e01b145b8061064557506301ffc9a760e01b6001600160e01b0319831614610645565b6000600161234184610dbf565b61234b9190612bdc565b60008381526007602052604090205490915080821461239e576001600160a01b03841660009081526006602090815260408083208584528252808320548484528184208190558352600790915290208190555b5060009182526007602090815260408084208490556001600160a01b039094168352600681528383209183525290812055565b6008546000906123e390600190612bdc565b6000838152600960205260408120546008805493945090928490811061241957634e487b7160e01b600052603260045260246000fd5b90600052602060002001549050806008838154811061244857634e487b7160e01b600052603260045260246000fd5b600091825260208083209091019290925582815260099091526040808220849055858252812055600880548061248e57634e487b7160e01b600052603160045260246000fd5b6001900381819060005260206000200160009055905550505050565b60006124b583610dbf565b6001600160a01b039093166000908152600660209081526040808320868452825280832085905593825260079052919091209190915550565b8280546124fa90612c36565b90600052602060002090601f01602090048101928261251c5760008555612562565b82601f1061253557805160ff1916838001178555612562565b82800160010185558215612562579182015b82811115612562578251825591602001919060010190612547565b5061256e929150612572565b5090565b5b8082111561256e5760008155600101612573565b600067ffffffffffffffff808411156125a2576125a2612ccc565b604051601f8501601f19908116603f011681019082821181831017156125ca576125ca612ccc565b816040528093508581528686860111156125e357600080fd5b858560208301376000602087830101525050509392505050565b80356001600160a01b038116811461261457600080fd5b919050565b600082601f830112612629578081fd5b610f6183833560208501612587565b600060208284031215612649578081fd5b610f61826125fd565b60008060408385031215612664578081fd5b61266d836125fd565b915061267b602084016125fd565b90509250929050565b600080600060608486031215612698578081fd5b6126a1846125fd565b92506126af602085016125fd565b9150604084013590509250925092565b600080600080608085870312156126d4578081fd5b6126dd856125fd565b93506126eb602086016125fd565b925060408501359150606085013567ffffffffffffffff81111561270d578182fd5b8501601f8101871361271d578182fd5b61272c87823560208401612587565b91505092959194509250565b6000806040838503121561274a578182fd5b612753836125fd565b915060208301358015158114612767578182fd5b809150509250929050565b600080600060608486031215612786578283fd5b61278f846125fd565b9250602084013567ffffffffffffffff808211156127ab578384fd5b6127b787838801612619565b935060408601359150808211156127cc578283fd5b506127d986828701612619565b9150509250925092565b600080604083850312156127f5578182fd5b6127fe836125fd565b946020939093013593505050565b60006020828403121561281d578081fd5b5035919050565b60008060408385031215612836578182fd5b8235915061267b602084016125fd565b60008060408385031215612858578182fd5b50508035926020909101359150565b600060208284031215612878578081fd5b8135610f6181612ce2565b600060208284031215612894578081fd5b8151610f6181612ce2565b6000602082840312156128b0578081fd5b813567ffffffffffffffff8111156128c6578182fd5b610f4184828501612619565b600080604083850312156128e4578182fd5b823567ffffffffffffffff808211156128fb578384fd5b61290786838701612619565b9350602085013591508082111561291c578283fd5b5061292985828601612619565b9150509250929050565b6000815180845261294b816020860160208601612bf3565b601f01601f19169290920160200192915050565b600080835482600182811c91508083168061297b57607f831692505b602080841082141561299b57634e487b7160e01b87526022600452602487fd5b8180156129af57600181146129c0576129ec565b60ff198616895284890196506129ec565b60008a815260209020885b868110156129e45781548b8201529085019083016129cb565b505084890196505b509498975050505050505050565b60008351612a0c818460208801612bf3565b835190830190612a20818360208801612bf3565b01949350505050565b7f416363657373436f6e74726f6c3a206163636f756e7420000000000000000000815260008351612a61816017850160208801612bf3565b7001034b99036b4b9b9b4b733903937b6329607d1b6017918401918201528351612a92816028840160208801612bf3565b01602801949350505050565b6001600160a01b0385811682528416602082015260408101839052608060608201819052600090612ad190830184612933565b9695505050505050565b602081526000610f616020830184612933565b60208082526032908201527f4552433732313a207472616e7366657220746f206e6f6e20455243373231526560408201527131b2b4bb32b91034b6b83632b6b2b73a32b960711b606082015260800190565b60208082526031908201527f4552433732313a207472616e736665722063616c6c6572206973206e6f74206f6040820152701ddb995c881b9bdc88185c1c1c9bdd9959607a1b606082015260800190565b60008219821115612ba457612ba4612ca0565b500190565b600082612bb857612bb8612cb6565b500490565b6000816000190483118215151615612bd757612bd7612ca0565b500290565b600082821015612bee57612bee612ca0565b500390565b60005b83811015612c0e578181015183820152602001612bf6565b838111156110515750506000910152565b600081612c2e57612c2e612ca0565b506000190190565b600181811c90821680612c4a57607f821691505b60208210811415612c6b57634e487b7160e01b600052602260045260246000fd5b50919050565b6000600019821415612c8557612c85612ca0565b5060010190565b600082612c9b57612c9b612cb6565b500690565b634e487b7160e01b600052601160045260246000fd5b634e487b7160e01b600052601260045260246000fd5b634e487b7160e01b600052604160045260246000fd5b6001600160e01b031981168114612cf857600080fd5b5056fea26469706673582212201db6b1e75f2801be3b800ea76bb8b26503454adec921cf2d7ca2db281df5440664736f6c63430008040033",
  "linkReferences": {},
  "deployedLinkReferences": {}
}