{
  "_format": "hh-sol-artifact-1",
  "contractName": "NFT",
  "sourceName": "contracts/NFT.sol",
  "abi": [
    {
      "inputs": [
        {
          "internalType": "address",
          "name": "_addr",
          "type": "address"
        }
      ],
      "stateMutability": "nonpayable",
      "type": "constructor"
    },
    {
      "anonymous": false,
      "inputs": [
        {
          "indexed": true,
          "internalType": "address",
          "name": "owner",
          "type": "address"
        },
        {
          "indexed": true,
          "internalType": "address",
          "name": "approved",
          "type": "address"
        },
        {
          "indexed": true,
          "internalType": "uint256",
          "name": "tokenId",
          "type": "uint256"
        }
      ],
      "name": "Approval",
      "type": "event"
    },
    {
      "anonymous": false,
      "inputs": [
        {
          "indexed": true,
          "internalType": "address",
          "name": "owner",
          "type": "address"
        },
        {
          "indexed": true,
          "internalType": "address",
          "name": "operator",
          "type": "address"
        },
        {
          "indexed": false,
          "internalType": "bool",
          "name": "approved",
          "type": "bool"
        }
      ],
      "name": "ApprovalForAll",
      "type": "event"
    },
    {
      "anonymous": false,
      "inputs": [
        {
          "indexed": true,
          "internalType": "bytes32",
          "name": "role",
          "type": "bytes32"
        },
        {
          "indexed": true,
          "internalType": "bytes32",
          "name": "previousAdminRole",
          "type": "bytes32"
        },
        {
          "indexed": true,
          "internalType": "bytes32",
          "name": "newAdminRole",
          "type": "bytes32"
        }
      ],
      "name": "RoleAdminChanged",
      "type": "event"
    },
    {
      "anonymous": false,
      "inputs": [
        {
          "indexed": true,
          "internalType": "bytes32",
          "name": "role",
          "type": "bytes32"
        },
        {
          "indexed": true,
          "internalType": "address",
          "name": "account",
          "type": "address"
        },
        {
          "indexed": true,
          "internalType": "address",
          "name": "sender",
          "type": "address"
        }
      ],
      "name": "RoleGranted",
      "type": "event"
    },
    {
      "anonymous": false,
      "inputs": [
        {
          "indexed": true,
          "internalType": "bytes32",
          "name": "role",
          "type": "bytes32"
        },
        {
          "indexed": true,
          "internalType": "address",
          "name": "account",
          "type": "address"
        },
        {
          "indexed": true,
          "internalType": "address",
          "name": "sender",
          "type": "address"
        }
      ],
      "name": "RoleRevoked",
      "type": "event"
    },
    {
      "anonymous": false,
      "inputs": [
        {
          "indexed": true,
          "internalType": "address",
          "name": "from",
          "type": "address"
        },
        {
          "indexed": true,
          "internalType": "address",
          "name": "to",
          "type": "address"
        },
        {
          "indexed": true,
          "internalType": "uint256",
          "name": "tokenId",
          "type": "uint256"
        }
      ],
      "name": "Transfer",
      "type": "event"
    },
    {
      "inputs": [],
      "name": "DEFAULT_ADMIN_ROLE",
      "outputs": [
        {
          "internalType": "bytes32",
          "name": "",
          "type": "bytes32"
        }
      ],
      "stateMutability": "view",
      "type": "function"
    },
    {
      "inputs": [
        {
          "internalType": "string",
          "name": "ipfs",
          "type": "string"
        }
      ],
      "name": "MintIsAllowed",
      "outputs": [
        {
          "internalType": "bool",
          "name": "",
          "type": "bool"
        }
      ],
      "stateMutability": "view",
      "type": "function"
    },
    {
      "inputs": [
        {
          "internalType": "uint256",
          "name": "",
          "type": "uint256"
        }
      ],
      "name": "MintedNFTs",
      "outputs": [
        {
          "internalType": "string",
          "name": "",
          "type": "string"
        }
      ],
      "stateMutability": "view",
      "type": "function"
    },
    {
      "inputs": [],
      "name": "_possibleToMint",
      "outputs": [
        {
          "internalType": "uint256",
          "name": "",
          "type": "uint256"
        }
      ],
      "stateMutability": "view",
      "type": "function"
    },
    {
      "inputs": [
        {
          "internalType": "address",
          "name": "to",
          "type": "address"
        },
        {
          "internalType": "uint256",
          "name": "tokenId",
          "type": "uint256"
        }
      ],
      "name": "approve",
      "outputs": [],
      "stateMutability": "nonpayable",
      "type": "function"
    },
    {
      "inputs": [
        {
          "internalType": "address",
          "name": "owner",
          "type": "address"
        }
      ],
      "name": "balanceOf",
      "outputs": [
        {
          "internalType": "uint256",
          "name": "",
          "type": "uint256"
        }
      ],
      "stateMutability": "view",
      "type": "function"
    },
    {
      "inputs": [
        {
          "internalType": "address",
          "name": "_newaddr",
          "type": "address"
        }
      ],
      "name": "changeHolder",
      "outputs": [
        {
          "internalType": "bool",
          "name": "",
          "type": "bool"
        }
      ],
      "stateMutability": "nonpayable",
      "type": "function"
    },
    {
      "inputs": [
        {
          "internalType": "uint256",
          "name": "_newValue",
          "type": "uint256"
        }
      ],
      "name": "changePossibleToMint",
      "outputs": [
        {
          "internalType": "bool",
          "name": "",
          "type": "bool"
        }
      ],
      "stateMutability": "nonpayable",
      "type": "function"
    },
    {
      "inputs": [
        {
          "internalType": "uint256",
          "name": "_newPrice",
          "type": "uint256"
        }
      ],
      "name": "changePrice",
      "outputs": [
        {
          "internalType": "bool",
          "name": "",
          "type": "bool"
        }
      ],
      "stateMutability": "nonpayable",
      "type": "function"
    },
    {
      "inputs": [
        {
          "internalType": "uint256",
          "name": "tokenId",
          "type": "uint256"
        }
      ],
      "name": "getApproved",
      "outputs": [
        {
          "internalType": "address",
          "name": "",
          "type": "address"
        }
      ],
      "stateMutability": "view",
      "type": "function"
    },
    {
      "inputs": [],
      "name": "getPrice",
      "outputs": [
        {
          "internalType": "uint256",
          "name": "",
          "type": "uint256"
        }
      ],
      "stateMutability": "view",
      "type": "function"
    },
    {
      "inputs": [
        {
          "internalType": "bytes32",
          "name": "role",
          "type": "bytes32"
        }
      ],
      "name": "getRoleAdmin",
      "outputs": [
        {
          "internalType": "bytes32",
          "name": "",
          "type": "bytes32"
        }
      ],
      "stateMutability": "view",
      "type": "function"
    },
    {
      "inputs": [
        {
          "internalType": "bytes32",
          "name": "role",
          "type": "bytes32"
        },
        {
          "internalType": "uint256",
          "name": "index",
          "type": "uint256"
        }
      ],
      "name": "getRoleMember",
      "outputs": [
        {
          "internalType": "address",
          "name": "",
          "type": "address"
        }
      ],
      "stateMutability": "view",
      "type": "function"
    },
    {
      "inputs": [
        {
          "internalType": "bytes32",
          "name": "role",
          "type": "bytes32"
        }
      ],
      "name": "getRoleMemberCount",
      "outputs": [
        {
          "internalType": "uint256",
          "name": "",
          "type": "uint256"
        }
      ],
      "stateMutability": "view",
      "type": "function"
    },
    {
      "inputs": [
        {
          "internalType": "address",
          "name": "_team",
          "type": "address"
        },
        {
          "internalType": "string",
          "name": "nftURI",
          "type": "string"
        },
        {
          "internalType": "string",
          "name": "ipfshash",
          "type": "string"
        }
      ],
      "name": "giveAway",
      "outputs": [
        {
          "internalType": "uint256",
          "name": "",
          "type": "uint256"
        }
      ],
      "stateMutability": "nonpayable",
      "type": "function"
    },
    {
      "inputs": [
        {
          "internalType": "bytes32",
          "name": "role",
          "type": "bytes32"
        },
        {
          "internalType": "address",
          "name": "account",
          "type": "address"
        }
      ],
      "name": "grantRole",
      "outputs": [],
      "stateMutability": "nonpayable",
      "type": "function"
    },
    {
      "inputs": [
        {
          "internalType": "bytes32",
          "name": "role",
          "type": "bytes32"
        },
        {
          "internalType": "address",
          "name": "account",
          "type": "address"
        }
      ],
      "name": "hasRole",
      "outputs": [
        {
          "internalType": "bool",
          "name": "",
          "type": "bool"
        }
      ],
      "stateMutability": "view",
      "type": "function"
    },
    {
      "inputs": [
        {
          "internalType": "address",
          "name": "owner",
          "type": "address"
        },
        {
          "internalType": "address",
          "name": "operator",
          "type": "address"
        }
      ],
      "name": "isApprovedForAll",
      "outputs": [
        {
          "internalType": "bool",
          "name": "",
          "type": "bool"
        }
      ],
      "stateMutability": "view",
      "type": "function"
    },
    {
      "inputs": [
        {
          "internalType": "string",
          "name": "nftURI",
          "type": "string"
        },
        {
          "internalType": "string",
          "name": "ipfshash",
          "type": "string"
        }
      ],
      "name": "mintItem",
      "outputs": [
        {
          "internalType": "uint256",
          "name": "",
          "type": "uint256"
        }
      ],
      "stateMutability": "payable",
      "type": "function"
    },
    {
      "inputs": [],
      "name": "name",
      "outputs": [
        {
          "internalType": "string",
          "name": "",
          "type": "string"
        }
      ],
      "stateMutability": "view",
      "type": "function"
    },
    {
      "inputs": [
        {
          "internalType": "uint256",
          "name": "tokenId",
          "type": "uint256"
        }
      ],
      "name": "ownerOf",
      "outputs": [
        {
          "internalType": "address",
          "name": "",
          "type": "address"
        }
      ],
      "stateMutability": "view",
      "type": "function"
    },
    {
      "inputs": [],
      "name": "price",
      "outputs": [
        {
          "internalType": "uint256",
          "name": "",
          "type": "uint256"
        }
      ],
      "stateMutability": "view",
      "type": "function"
    },
    {
      "inputs": [
        {
          "internalType": "bytes32",
          "name": "role",
          "type": "bytes32"
        },
        {
          "internalType": "address",
          "name": "account",
          "type": "address"
        }
      ],
      "name": "renounceRole",
      "outputs": [],
      "stateMutability": "nonpayable",
      "type": "function"
    },
    {
      "inputs": [
        {
          "internalType": "bytes32",
          "name": "role",
          "type": "bytes32"
        },
        {
          "internalType": "address",
          "name": "account",
          "type": "address"
        }
      ],
      "name": "revokeRole",
      "outputs": [],
      "stateMutability": "nonpayable",
      "type": "function"
    },
    {
      "inputs": [
        {
          "internalType": "address",
          "name": "from",
          "type": "address"
        },
        {
          "internalType": "address",
          "name": "to",
          "type": "address"
        },
        {
          "internalType": "uint256",
          "name": "tokenId",
          "type": "uint256"
        }
      ],
      "name": "safeTransferFrom",
      "outputs": [],
      "stateMutability": "nonpayable",
      "type": "function"
    },
    {
      "inputs": [
        {
          "internalType": "address",
          "name": "from",
          "type": "address"
        },
        {
          "internalType": "address",
          "name": "to",
          "type": "address"
        },
        {
          "internalType": "uint256",
          "name": "tokenId",
          "type": "uint256"
        },
        {
          "internalType": "bytes",
          "name": "_data",
          "type": "bytes"
        }
      ],
      "name": "safeTransferFrom",
      "outputs": [],
      "stateMutability": "nonpayable",
      "type": "function"
    },
    {
      "inputs": [
        {
          "internalType": "address",
          "name": "operator",
          "type": "address"
        },
        {
          "internalType": "bool",
          "name": "approved",
          "type": "bool"
        }
      ],
      "name": "setApprovalForAll",
      "outputs": [],
      "stateMutability": "nonpayable",
      "type": "function"
    },
    {
      "inputs": [
        {
          "internalType": "bytes4",
          "name": "interfaceId",
          "type": "bytes4"
        }
      ],
      "name": "supportsInterface",
      "outputs": [
        {
          "internalType": "bool",
          "name": "",
          "type": "bool"
        }
      ],
      "stateMutability": "view",
      "type": "function"
    },
    {
      "inputs": [],
      "name": "symbol",
      "outputs": [
        {
          "internalType": "string",
          "name": "",
          "type": "string"
        }
      ],
      "stateMutability": "view",
      "type": "function"
    },
    {
      "inputs": [
        {
          "internalType": "uint256",
          "name": "index",
          "type": "uint256"
        }
      ],
      "name": "tokenByIndex",
      "outputs": [
        {
          "internalType": "uint256",
          "name": "",
          "type": "uint256"
        }
      ],
      "stateMutability": "view",
      "type": "function"
    },
    {
      "inputs": [
        {
          "internalType": "address",
          "name": "owner",
          "type": "address"
        },
        {
          "internalType": "uint256",
          "name": "index",
          "type": "uint256"
        }
      ],
      "name": "tokenOfOwnerByIndex",
      "outputs": [
        {
          "internalType": "uint256",
          "name": "",
          "type": "uint256"
        }
      ],
      "stateMutability": "view",
      "type": "function"
    },
    {
      "inputs": [
        {
          "internalType": "uint256",
          "name": "tokenId",
          "type": "uint256"
        }
      ],
      "name": "tokenURI",
      "outputs": [
        {
          "internalType": "string",
          "name": "",
          "type": "string"
        }
      ],
      "stateMutability": "view",
      "type": "function"
    },
    {
      "inputs": [],
      "name": "totalSupply",
      "outputs": [
        {
          "internalType": "uint256",
          "name": "",
          "type": "uint256"
        }
      ],
      "stateMutability": "view",
      "type": "function"
    },
    {
      "inputs": [
        {
          "internalType": "address",
          "name": "from",
          "type": "address"
        },
        {
          "internalType": "address",
          "name": "to",
          "type": "address"
        },
        {
          "internalType": "uint256",
          "name": "tokenId",
          "type": "uint256"
        }
      ],
      "name": "transferFrom",
      "outputs": [],
      "stateMutability": "nonpayable",
      "type": "function"
    }
  ],
  "bytecode": "0x60806040526107d0601055666a94d74f4300006011553480156200002257600080fd5b5060405162002ff238038062002ff283398101604081905262000045916200018a565b604080518082018252600f81526e02930bb34b7339023b7b13634b7399608d1b6020808301918252835180850190945260038452621491d560ea1b9084015281519192916200009791600091620000e4565b508051620000ad906001906020840190620000e4565b50506001600d5550601380546001600160a01b039092166001600160a01b0319928316179055600f805490911633179055620001f7565b828054620000f290620001ba565b90600052602060002090601f01602090048101928262000116576000855562000161565b82601f106200013157805160ff191683800117855562000161565b8280016001018555821562000161579182015b828111156200016157825182559160200191906001019062000144565b506200016f92915062000173565b5090565b5b808211156200016f576000815560010162000174565b6000602082840312156200019c578081fd5b81516001600160a01b0381168114620001b3578182fd5b9392505050565b600181811c90821680620001cf57607f821691505b60208210811415620001f157634e487b7160e01b600052602260045260246000fd5b50919050565b612deb80620002076000396000f3fe6080604052600436106101f95760003560e01c806370a082311161010d578063a22cb465116100a0578063c2b380651161006f578063c2b380651461059c578063c87b56dd146105bc578063ca15c873146105dc578063d547741f146105fc578063e985e9c51461061c57600080fd5b8063a22cb4651461051c578063a2b40d191461053c578063b88d4fde1461055c578063c26a9c981461057c57600080fd5b806395d89b41116100dc57806395d89b41146104c757806398d5fdca146104dc578063a035b1fe146104f1578063a217fddf1461050757600080fd5b806370a082311461044757806388d0de03146104675780639010d07c1461048757806391d14854146104a757600080fd5b806329cbc29d1161019057806342842e0e1161015f57806342842e0e146103b45780634f6ccce7146103d45780635a87db75146103f45780636352211e14610414578063705bb0711461043457600080fd5b806329cbc29d1461033e5780632f2ff15d146103545780632f745c591461037457806336568abe1461039457600080fd5b80631524eec9116101cc5780631524eec9146102af57806318160ddd146102cf57806323b872dd146102ee578063248a9ca31461030e57600080fd5b806301ffc9a7146101fe57806306fdde0314610233578063081812fc14610255578063095ea7b31461028d575b600080fd5b34801561020a57600080fd5b5061021e610219366004612921565b610665565b60405190151581526020015b60405180910390f35b34801561023f57600080fd5b50610248610676565b60405161022a9190612b95565b34801561026157600080fd5b506102756102703660046128c6565b610708565b6040516001600160a01b03909116815260200161022a565b34801561029957600080fd5b506102ad6102a836600461289d565b610795565b005b3480156102bb57600080fd5b5061021e6102ca366004612959565b6108ab565b3480156102db57600080fd5b506008545b60405190815260200161022a565b3480156102fa57600080fd5b506102ad61030936600461273e565b61092b565b34801561031a57600080fd5b506102e06103293660046128c6565b6000908152600b602052604090206001015490565b34801561034a57600080fd5b506102e060105481565b34801561036057600080fd5b506102ad61036f3660046128de565b61095c565b34801561038057600080fd5b506102e061038f36600461289d565b610982565b3480156103a057600080fd5b506102ad6103af3660046128de565b610a18565b3480156103c057600080fd5b506102ad6103cf36600461273e565b610a96565b3480156103e057600080fd5b506102e06103ef3660046128c6565b610ab1565b34801561040057600080fd5b5061021e61040f3660046126f2565b610b52565b34801561042057600080fd5b5061027561042f3660046128c6565b610be1565b6102e061044236600461298c565b610c58565b34801561045357600080fd5b506102e06104623660046126f2565b610e79565b34801561047357600080fd5b506102e061048236600461282c565b610f00565b34801561049357600080fd5b506102756104a2366004612900565b611003565b3480156104b357600080fd5b5061021e6104c23660046128de565b611022565b3480156104d357600080fd5b5061024861104d565b3480156104e857600080fd5b506011546102e0565b3480156104fd57600080fd5b506102e060115481565b34801561051357600080fd5b506102e0600081565b34801561052857600080fd5b506102ad6105373660046127f2565b61105c565b34801561054857600080fd5b5061021e6105573660046128c6565b611067565b34801561056857600080fd5b506102ad610577366004612779565b6110d9565b34801561058857600080fd5b506102486105973660046128c6565b611111565b3480156105a857600080fd5b5061021e6105b73660046128c6565b6111bd565b3480156105c857600080fd5b506102486105d73660046128c6565b611231565b3480156105e857600080fd5b506102e06105f73660046128c6565b61123c565b34801561060857600080fd5b506102ad6106173660046128de565b611253565b34801561062857600080fd5b5061021e61063736600461270c565b6001600160a01b03918216600090815260056020908152604080832093909416825291909152205460ff1690565b600061067082611279565b92915050565b60606000805461068590612cf0565b80601f01602080910402602001604051908101604052809291908181526020018280546106b190612cf0565b80156106fe5780601f106106d3576101008083540402835291602001916106fe565b820191906000526020600020905b8154815290600101906020018083116106e157829003601f168201915b5050505050905090565b60006107138261129e565b6107795760405162461bcd60e51b815260206004820152602c60248201527f4552433732313a20617070726f76656420717565727920666f72206e6f6e657860448201526b34b9ba32b73a103a37b5b2b760a11b60648201526084015b60405180910390fd5b506000908152600460205260409020546001600160a01b031690565b60006107a082610be1565b9050806001600160a01b0316836001600160a01b0316141561080e5760405162461bcd60e51b815260206004820152602160248201527f4552433732313a20617070726f76616c20746f2063757272656e74206f776e656044820152603960f91b6064820152608401610770565b336001600160a01b038216148061082a575061082a8133610637565b61089c5760405162461bcd60e51b815260206004820152603860248201527f4552433732313a20617070726f76652063616c6c6572206973206e6f74206f7760448201527f6e6572206e6f7220617070726f76656420666f7220616c6c00000000000000006064820152608401610770565b6108a683836112bb565b505050565b6000805b601254811015610922578280519060200120601282815481106108e257634e487b7160e01b600052603260045260246000fd5b906000526020600020016040516108f99190612a19565b604051809103902014156109105750600092915050565b8061091a81612d2b565b9150506108af565b50600192915050565b6109353382611329565b6109515760405162461bcd60e51b815260040161077090612bfa565b6108a683838361140f565b6000828152600b602052604090206001015461097881336115ba565b6108a6838361161e565b600061098d83610e79565b82106109ef5760405162461bcd60e51b815260206004820152602b60248201527f455243373231456e756d657261626c653a206f776e657220696e646578206f7560448201526a74206f6620626f756e647360a81b6064820152608401610770565b506001600160a01b03919091166000908152600660209081526040808320938352929052205490565b6001600160a01b0381163314610a885760405162461bcd60e51b815260206004820152602f60248201527f416363657373436f6e74726f6c3a2063616e206f6e6c792072656e6f756e636560448201526e103937b632b9903337b91039b2b63360891b6064820152608401610770565b610a928282611640565b5050565b6108a6838383604051806020016040528060008152506110d9565b6000610abc60085490565b8210610b1f5760405162461bcd60e51b815260206004820152602c60248201527f455243373231456e756d657261626c653a20676c6f62616c20696e646578206f60448201526b7574206f6620626f756e647360a01b6064820152608401610770565b60088281548110610b4057634e487b7160e01b600052603260045260246000fd5b90600052602060002001549050919050565b600f546000906001600160a01b03163314610bbb5760405162461bcd60e51b8152602060048201526024808201527f6f6e6c79207468652061646d696e2063616e206368616e67652074686520686f604482015263363232b960e11b6064820152608401610770565b50601380546001600160a01b0319166001600160a01b0392909216919091179055600190565b6000818152600260205260408120546001600160a01b0316806106705760405162461bcd60e51b815260206004820152602960248201527f4552433732313a206f776e657220717565727920666f72206e6f6e657869737460448201526832b73a103a37b5b2b760b91b6064820152608401610770565b60006002600d541415610cad5760405162461bcd60e51b815260206004820152601f60248201527f5265656e7472616e637947756172643a207265656e7472616e742063616c6c006044820152606401610770565b6002600d55610cbb826108ab565b610d075760405162461bcd60e51b815260206004820152601c60248201527f4e6f7420666f722073616c652c20616c7265616479206d696e746564000000006044820152606401610770565b600060115411610d595760405162461bcd60e51b815260206004820152601c60248201527f5072696365206d757374206265206174206c65617374203120776569000000006044820152606401610770565b6011543414610d9f5760405162461bcd60e51b8152602060048201526012602482015271756e73756666696369656e742066756e647360701b6044820152606401610770565b600060105411610de65760405162461bcd60e51b81526020600482015260126024820152712334b939ba10323937b81034b99037bb32b960711b6044820152606401610770565b610df4600e80546001019055565b6000610dff600e5490565b9050610e0b3382611662565b610e1581856117a1565b6013546040516001600160a01b03909116903480156108fc02916000818181858888f19350505050158015610e4e573d6000803e3d6000fd5b5060108054906000610e5f83612cd9565b9190505550610e6d8361182c565b6001600d559392505050565b60006001600160a01b038216610ee45760405162461bcd60e51b815260206004820152602a60248201527f4552433732313a2062616c616e636520717565727920666f7220746865207a65604482015269726f206164647265737360b01b6064820152608401610770565b506001600160a01b031660009081526003602052604090205490565b600f546000906001600160a01b03163314610f6e5760405162461bcd60e51b815260206004820152602860248201527f6f6e6c79207468652041646d696e2063616e2067697665206177617920736f6d6044820152676520746f6b656e7360c01b6064820152608401610770565b610f77826108ab565b610fc35760405162461bcd60e51b815260206004820152601c60248201527f4e6f7420666f722073616c652c20616c7265616479206d696e746564000000006044820152606401610770565b610fd1600e80546001019055565b6000610fdc600e5490565b9050610fe88582611662565b610ff281856117a1565b610ffb8361182c565b949350505050565b6000828152600c6020526040812061101b908361186f565b9392505050565b6000918252600b602090815260408084206001600160a01b0393909316845291905290205460ff1690565b60606001805461068590612cf0565b610a9233838361187b565b600f546000906001600160a01b031633146110d05760405162461bcd60e51b815260206004820152602360248201527f6f6e6c79207468652041646d696e2063616e206368616e67652074686520707260448201526269636560e81b6064820152608401610770565b50601155600190565b6110e33383611329565b6110ff5760405162461bcd60e51b815260040161077090612bfa565b61110b8484848461194a565b50505050565b6012818154811061112157600080fd5b90600052602060002001600091509050805461113c90612cf0565b80601f016020809104026020016040519081016040528092919081815260200182805461116890612cf0565b80156111b55780601f1061118a576101008083540402835291602001916111b5565b820191906000526020600020905b81548152906001019060200180831161119857829003601f168201915b505050505081565b600f546000906001600160a01b031633146112285760405162461bcd60e51b815260206004820152602560248201527f6f6e6c79207468652041646d696e2063616e206368616e67652074686973206e6044820152643ab6b132b960d91b6064820152608401610770565b50601055600190565b60606106708261197d565b6000818152600c6020526040812061067090611aec565b6000828152600b602052604090206001015461126f81336115ba565b6108a68383611640565b60006001600160e01b03198216635a05180f60e01b1480610670575061067082611af6565b6000908152600260205260409020546001600160a01b0316151590565b600081815260046020526040902080546001600160a01b0319166001600160a01b03841690811790915581906112f082610be1565b6001600160a01b03167f8c5be1e5ebec7d5bd14f71427d1e84f3dd0314c0f7b2291e5b200ac8c7c3b92560405160405180910390a45050565b60006113348261129e565b6113955760405162461bcd60e51b815260206004820152602c60248201527f4552433732313a206f70657261746f7220717565727920666f72206e6f6e657860448201526b34b9ba32b73a103a37b5b2b760a11b6064820152608401610770565b60006113a083610be1565b9050806001600160a01b0316846001600160a01b031614806113db5750836001600160a01b03166113d084610708565b6001600160a01b0316145b80610ffb57506001600160a01b0380821660009081526005602090815260408083209388168352929052205460ff16610ffb565b826001600160a01b031661142282610be1565b6001600160a01b03161461148a5760405162461bcd60e51b815260206004820152602960248201527f4552433732313a207472616e73666572206f6620746f6b656e2074686174206960448201526839903737ba1037bbb760b91b6064820152608401610770565b6001600160a01b0382166114ec5760405162461bcd60e51b8152602060048201526024808201527f4552433732313a207472616e7366657220746f20746865207a65726f206164646044820152637265737360e01b6064820152608401610770565b6114f7838383611b1b565b6115026000826112bb565b6001600160a01b038316600090815260036020526040812080546001929061152b908490612c96565b90915550506001600160a01b0382166000908152600360205260408120805460019290611559908490612c4b565b909155505060008181526002602052604080822080546001600160a01b0319166001600160a01b0386811691821790925591518493918716917fddf252ad1be2c89b69c2b068fc378daa952ba7f163c4a11628f55a4df523b3ef91a4505050565b6115c48282611022565b610a92576115dc816001600160a01b03166014611b26565b6115e7836020611b26565b6040516020016115f8929190612ae3565b60408051601f198184030181529082905262461bcd60e51b825261077091600401612b95565b6116288282611d08565b6000828152600c602052604090206108a69082611d8e565b61164a8282611da3565b6000828152600c602052604090206108a69082611e0a565b6001600160a01b0382166116b85760405162461bcd60e51b815260206004820181905260248201527f4552433732313a206d696e7420746f20746865207a65726f20616464726573736044820152606401610770565b6116c18161129e565b1561170e5760405162461bcd60e51b815260206004820152601c60248201527f4552433732313a20746f6b656e20616c7265616479206d696e746564000000006044820152606401610770565b61171a60008383611b1b565b6001600160a01b0382166000908152600360205260408120805460019290611743908490612c4b565b909155505060008181526002602052604080822080546001600160a01b0319166001600160a01b03861690811790915590518392907fddf252ad1be2c89b69c2b068fc378daa952ba7f163c4a11628f55a4df523b3ef908290a45050565b6117aa8261129e565b61180d5760405162461bcd60e51b815260206004820152602e60248201527f45524337323155524953746f726167653a2055524920736574206f66206e6f6e60448201526d32bc34b9ba32b73a103a37b5b2b760911b6064820152608401610770565b6000828152600a6020908152604090912082516108a6928401906125a8565b601280546001810182556000919091528151610a92917fbb8a6a4669ba250d26cd7a459eca9d215f8307e33aebe50379bc5a3617ec3444019060208401906125a8565b600061101b8383611e1f565b816001600160a01b0316836001600160a01b031614156118dd5760405162461bcd60e51b815260206004820152601960248201527f4552433732313a20617070726f766520746f2063616c6c6572000000000000006044820152606401610770565b6001600160a01b03838116600081815260056020908152604080832094871680845294825291829020805460ff191686151590811790915591519182527f17307eab39ab6107e8899845ad3d59bd9653f200f220920489ca2b5937696c31910160405180910390a3505050565b61195584848461140f565b61196184848484611e57565b61110b5760405162461bcd60e51b815260040161077090612ba8565b60606119888261129e565b6119ee5760405162461bcd60e51b815260206004820152603160248201527f45524337323155524953746f726167653a2055524920717565727920666f72206044820152703737b732bc34b9ba32b73a103a37b5b2b760791b6064820152608401610770565b6000828152600a602052604081208054611a0790612cf0565b80601f0160208091040260200160405190810160405280929190818152602001828054611a3390612cf0565b8015611a805780601f10611a5557610100808354040283529160200191611a80565b820191906000526020600020905b815481529060010190602001808311611a6357829003601f168201915b505050505090506000611a9e60408051602081019091526000815290565b9050805160001415611ab1575092915050565b815115611ae3578082604051602001611acb929190612ab4565b60405160208183030381529060405292505050919050565b610ffb84611f64565b6000610670825490565b60006001600160e01b03198216637965db0b60e01b148061067057506106708261203b565b6108a6838383612060565b60606000611b35836002612c77565b611b40906002612c4b565b67ffffffffffffffff811115611b6657634e487b7160e01b600052604160045260246000fd5b6040519080825280601f01601f191660200182016040528015611b90576020820181803683370190505b509050600360fc1b81600081518110611bb957634e487b7160e01b600052603260045260246000fd5b60200101906001600160f81b031916908160001a905350600f60fb1b81600181518110611bf657634e487b7160e01b600052603260045260246000fd5b60200101906001600160f81b031916908160001a9053506000611c1a846002612c77565b611c25906001612c4b565b90505b6001811115611cb9576f181899199a1a9b1b9c1cb0b131b232b360811b85600f1660108110611c6757634e487b7160e01b600052603260045260246000fd5b1a60f81b828281518110611c8b57634e487b7160e01b600052603260045260246000fd5b60200101906001600160f81b031916908160001a90535060049490941c93611cb281612cd9565b9050611c28565b50831561101b5760405162461bcd60e51b815260206004820181905260248201527f537472696e67733a20686578206c656e67746820696e73756666696369656e746044820152606401610770565b611d128282611022565b610a92576000828152600b602090815260408083206001600160a01b03851684529091529020805460ff19166001179055611d4a3390565b6001600160a01b0316816001600160a01b0316837f2f8788117e7eff1d82e926ec794901d17c78024a50270940304540a733656f0d60405160405180910390a45050565b600061101b836001600160a01b038416612118565b611dad8282611022565b15610a92576000828152600b602090815260408083206001600160a01b0385168085529252808320805460ff1916905551339285917ff6391f5c32d9c69d2a47ea670b442974b53935d1edc7fd64eb21e047a839171b9190a45050565b600061101b836001600160a01b038416612167565b6000826000018281548110611e4457634e487b7160e01b600052603260045260246000fd5b9060005260206000200154905092915050565b60006001600160a01b0384163b15611f5957604051630a85bd0160e11b81526001600160a01b0385169063150b7a0290611e9b903390899088908890600401612b58565b602060405180830381600087803b158015611eb557600080fd5b505af1925050508015611ee5575060408051601f3d908101601f19168201909252611ee29181019061293d565b60015b611f3f573d808015611f13576040519150601f19603f3d011682016040523d82523d6000602084013e611f18565b606091505b508051611f375760405162461bcd60e51b815260040161077090612ba8565b805181602001fd5b6001600160e01b031916630a85bd0160e11b149050610ffb565b506001949350505050565b6060611f6f8261129e565b611fd35760405162461bcd60e51b815260206004820152602f60248201527f4552433732314d657461646174613a2055524920717565727920666f72206e6f60448201526e3732bc34b9ba32b73a103a37b5b2b760891b6064820152608401610770565b6000611fea60408051602081019091526000815290565b9050600081511161200a576040518060200160405280600081525061101b565b8061201484612284565b604051602001612025929190612ab4565b6040516020818303038152906040529392505050565b60006001600160e01b0319821663780e9d6360e01b148061067057506106708261239e565b6001600160a01b0383166120bb576120b681600880546000838152600960205260408120829055600182018355919091527ff3f7a9fe364faab93b216da50a3214154f22a0a2b415b23a84c8169e8b636ee30155565b6120de565b816001600160a01b0316836001600160a01b0316146120de576120de83826123ee565b6001600160a01b0382166120f5576108a68161248b565b826001600160a01b0316826001600160a01b0316146108a6576108a68282612564565b600081815260018301602052604081205461215f57508154600181810184556000848152602080822090930184905584548482528286019093526040902091909155610670565b506000610670565b6000818152600183016020526040812054801561227a57600061218b600183612c96565b855490915060009061219f90600190612c96565b90508181146122205760008660000182815481106121cd57634e487b7160e01b600052603260045260246000fd5b90600052602060002001549050808760000184815481106121fe57634e487b7160e01b600052603260045260246000fd5b6000918252602080832090910192909255918252600188019052604090208390555b855486908061223f57634e487b7160e01b600052603160045260246000fd5b600190038181906000526020600020016000905590558560010160008681526020019081526020016000206000905560019350505050610670565b6000915050610670565b6060816122a85750506040805180820190915260018152600360fc1b602082015290565b8160005b81156122d257806122bc81612d2b565b91506122cb9050600a83612c63565b91506122ac565b60008167ffffffffffffffff8111156122fb57634e487b7160e01b600052604160045260246000fd5b6040519080825280601f01601f191660200182016040528015612325576020820181803683370190505b5090505b8415610ffb5761233a600183612c96565b9150612347600a86612d46565b612352906030612c4b565b60f81b81838151811061237557634e487b7160e01b600052603260045260246000fd5b60200101906001600160f81b031916908160001a905350612397600a86612c63565b9450612329565b60006001600160e01b031982166380ac58cd60e01b14806123cf57506001600160e01b03198216635b5e139f60e01b145b8061067057506301ffc9a760e01b6001600160e01b0319831614610670565b600060016123fb84610e79565b6124059190612c96565b600083815260076020526040902054909150808214612458576001600160a01b03841660009081526006602090815260408083208584528252808320548484528184208190558352600790915290208190555b5060009182526007602090815260408084208490556001600160a01b039094168352600681528383209183525290812055565b60085460009061249d90600190612c96565b600083815260096020526040812054600880549394509092849081106124d357634e487b7160e01b600052603260045260246000fd5b90600052602060002001549050806008838154811061250257634e487b7160e01b600052603260045260246000fd5b600091825260208083209091019290925582815260099091526040808220849055858252812055600880548061254857634e487b7160e01b600052603160045260246000fd5b6001900381819060005260206000200160009055905550505050565b600061256f83610e79565b6001600160a01b039093166000908152600660209081526040808320868452825280832085905593825260079052919091209190915550565b8280546125b490612cf0565b90600052602060002090601f0160209004810192826125d6576000855561261c565b82601f106125ef57805160ff191683800117855561261c565b8280016001018555821561261c579182015b8281111561261c578251825591602001919060010190612601565b5061262892915061262c565b5090565b5b80821115612628576000815560010161262d565b600067ffffffffffffffff8084111561265c5761265c612d86565b604051601f8501601f19908116603f0116810190828211818310171561268457612684612d86565b8160405280935085815286868601111561269d57600080fd5b858560208301376000602087830101525050509392505050565b80356001600160a01b03811681146126ce57600080fd5b919050565b600082601f8301126126e3578081fd5b61101b83833560208501612641565b600060208284031215612703578081fd5b61101b826126b7565b6000806040838503121561271e578081fd5b612727836126b7565b9150612735602084016126b7565b90509250929050565b600080600060608486031215612752578081fd5b61275b846126b7565b9250612769602085016126b7565b9150604084013590509250925092565b6000806000806080858703121561278e578081fd5b612797856126b7565b93506127a5602086016126b7565b925060408501359150606085013567ffffffffffffffff8111156127c7578182fd5b8501601f810187136127d7578182fd5b6127e687823560208401612641565b91505092959194509250565b60008060408385031215612804578182fd5b61280d836126b7565b915060208301358015158114612821578182fd5b809150509250929050565b600080600060608486031215612840578283fd5b612849846126b7565b9250602084013567ffffffffffffffff80821115612865578384fd5b612871878388016126d3565b93506040860135915080821115612886578283fd5b50612893868287016126d3565b9150509250925092565b600080604083850312156128af578182fd5b6128b8836126b7565b946020939093013593505050565b6000602082840312156128d7578081fd5b5035919050565b600080604083850312156128f0578182fd5b82359150612735602084016126b7565b60008060408385031215612912578182fd5b50508035926020909101359150565b600060208284031215612932578081fd5b813561101b81612d9c565b60006020828403121561294e578081fd5b815161101b81612d9c565b60006020828403121561296a578081fd5b813567ffffffffffffffff811115612980578182fd5b610ffb848285016126d3565b6000806040838503121561299e578182fd5b823567ffffffffffffffff808211156129b5578384fd5b6129c1868387016126d3565b935060208501359150808211156129d6578283fd5b506129e3858286016126d3565b9150509250929050565b60008151808452612a05816020860160208601612cad565b601f01601f19169290920160200192915050565b600080835482600182811c915080831680612a3557607f831692505b6020808410821415612a5557634e487b7160e01b87526022600452602487fd5b818015612a695760018114612a7a57612aa6565b60ff19861689528489019650612aa6565b60008a815260209020885b86811015612a9e5781548b820152908501908301612a85565b505084890196505b509498975050505050505050565b60008351612ac6818460208801612cad565b835190830190612ada818360208801612cad565b01949350505050565b7f416363657373436f6e74726f6c3a206163636f756e7420000000000000000000815260008351612b1b816017850160208801612cad565b7001034b99036b4b9b9b4b733903937b6329607d1b6017918401918201528351612b4c816028840160208801612cad565b01602801949350505050565b6001600160a01b0385811682528416602082015260408101839052608060608201819052600090612b8b908301846129ed565b9695505050505050565b60208152600061101b60208301846129ed565b60208082526032908201527f4552433732313a207472616e7366657220746f206e6f6e20455243373231526560408201527131b2b4bb32b91034b6b83632b6b2b73a32b960711b606082015260800190565b60208082526031908201527f4552433732313a207472616e736665722063616c6c6572206973206e6f74206f6040820152701ddb995c881b9bdc88185c1c1c9bdd9959607a1b606082015260800190565b60008219821115612c5e57612c5e612d5a565b500190565b600082612c7257612c72612d70565b500490565b6000816000190483118215151615612c9157612c91612d5a565b500290565b600082821015612ca857612ca8612d5a565b500390565b60005b83811015612cc8578181015183820152602001612cb0565b8381111561110b5750506000910152565b600081612ce857612ce8612d5a565b506000190190565b600181811c90821680612d0457607f821691505b60208210811415612d2557634e487b7160e01b600052602260045260246000fd5b50919050565b6000600019821415612d3f57612d3f612d5a565b5060010190565b600082612d5557612d55612d70565b500690565b634e487b7160e01b600052601160045260246000fd5b634e487b7160e01b600052601260045260246000fd5b634e487b7160e01b600052604160045260246000fd5b6001600160e01b031981168114612db257600080fd5b5056fea2646970667358221220179d061b99637ed43d49176ab1db32220a5ed1959db9d21f5ef07b6e638f30aa64736f6c63430008040033",
  "linkReferences": {},
  "deployedLinkReferences": {}
}