{
  "_format": "hh-sol-artifact-1",
  "contractName": "NFT",
  "sourceName": "contracts/NFT.sol",
  "abi": [
    {
      "inputs": [],
      "stateMutability": "nonpayable",
      "type": "constructor"
    },
    {
      "anonymous": false,
      "inputs": [
        {
          "indexed": true,
          "internalType": "address",
          "name": "owner",
          "type": "address"
        },
        {
          "indexed": true,
          "internalType": "address",
          "name": "approved",
          "type": "address"
        },
        {
          "indexed": true,
          "internalType": "uint256",
          "name": "tokenId",
          "type": "uint256"
        }
      ],
      "name": "Approval",
      "type": "event"
    },
    {
      "anonymous": false,
      "inputs": [
        {
          "indexed": true,
          "internalType": "address",
          "name": "owner",
          "type": "address"
        },
        {
          "indexed": true,
          "internalType": "address",
          "name": "operator",
          "type": "address"
        },
        {
          "indexed": false,
          "internalType": "bool",
          "name": "approved",
          "type": "bool"
        }
      ],
      "name": "ApprovalForAll",
      "type": "event"
    },
    {
      "anonymous": false,
      "inputs": [
        {
          "indexed": true,
          "internalType": "bytes32",
          "name": "role",
          "type": "bytes32"
        },
        {
          "indexed": true,
          "internalType": "bytes32",
          "name": "previousAdminRole",
          "type": "bytes32"
        },
        {
          "indexed": true,
          "internalType": "bytes32",
          "name": "newAdminRole",
          "type": "bytes32"
        }
      ],
      "name": "RoleAdminChanged",
      "type": "event"
    },
    {
      "anonymous": false,
      "inputs": [
        {
          "indexed": true,
          "internalType": "bytes32",
          "name": "role",
          "type": "bytes32"
        },
        {
          "indexed": true,
          "internalType": "address",
          "name": "account",
          "type": "address"
        },
        {
          "indexed": true,
          "internalType": "address",
          "name": "sender",
          "type": "address"
        }
      ],
      "name": "RoleGranted",
      "type": "event"
    },
    {
      "anonymous": false,
      "inputs": [
        {
          "indexed": true,
          "internalType": "bytes32",
          "name": "role",
          "type": "bytes32"
        },
        {
          "indexed": true,
          "internalType": "address",
          "name": "account",
          "type": "address"
        },
        {
          "indexed": true,
          "internalType": "address",
          "name": "sender",
          "type": "address"
        }
      ],
      "name": "RoleRevoked",
      "type": "event"
    },
    {
      "anonymous": false,
      "inputs": [
        {
          "indexed": true,
          "internalType": "address",
          "name": "from",
          "type": "address"
        },
        {
          "indexed": true,
          "internalType": "address",
          "name": "to",
          "type": "address"
        },
        {
          "indexed": true,
          "internalType": "uint256",
          "name": "tokenId",
          "type": "uint256"
        }
      ],
      "name": "Transfer",
      "type": "event"
    },
    {
      "inputs": [],
      "name": "DEFAULT_ADMIN_ROLE",
      "outputs": [
        {
          "internalType": "bytes32",
          "name": "",
          "type": "bytes32"
        }
      ],
      "stateMutability": "view",
      "type": "function"
    },
    {
      "inputs": [
        {
          "internalType": "string",
          "name": "ipfs",
          "type": "string"
        }
      ],
      "name": "MintIsAllowed",
      "outputs": [
        {
          "internalType": "bool",
          "name": "",
          "type": "bool"
        }
      ],
      "stateMutability": "view",
      "type": "function"
    },
    {
      "inputs": [
        {
          "internalType": "uint256",
          "name": "",
          "type": "uint256"
        }
      ],
      "name": "MintedNFTs",
      "outputs": [
        {
          "internalType": "string",
          "name": "",
          "type": "string"
        }
      ],
      "stateMutability": "view",
      "type": "function"
    },
    {
      "inputs": [],
      "name": "_possibleToMint",
      "outputs": [
        {
          "internalType": "uint256",
          "name": "",
          "type": "uint256"
        }
      ],
      "stateMutability": "view",
      "type": "function"
    },
    {
      "inputs": [
        {
          "internalType": "address",
          "name": "to",
          "type": "address"
        },
        {
          "internalType": "uint256",
          "name": "tokenId",
          "type": "uint256"
        }
      ],
      "name": "approve",
      "outputs": [],
      "stateMutability": "nonpayable",
      "type": "function"
    },
    {
      "inputs": [
        {
          "internalType": "address",
          "name": "owner",
          "type": "address"
        }
      ],
      "name": "balanceOf",
      "outputs": [
        {
          "internalType": "uint256",
          "name": "",
          "type": "uint256"
        }
      ],
      "stateMutability": "view",
      "type": "function"
    },
    {
      "inputs": [
        {
          "internalType": "uint256",
          "name": "_newValue",
          "type": "uint256"
        }
      ],
      "name": "changePossibleToMint",
      "outputs": [
        {
          "internalType": "bool",
          "name": "",
          "type": "bool"
        }
      ],
      "stateMutability": "nonpayable",
      "type": "function"
    },
    {
      "inputs": [
        {
          "internalType": "uint256",
          "name": "_newPrice",
          "type": "uint256"
        }
      ],
      "name": "changePrice",
      "outputs": [
        {
          "internalType": "bool",
          "name": "",
          "type": "bool"
        }
      ],
      "stateMutability": "nonpayable",
      "type": "function"
    },
    {
      "inputs": [
        {
          "internalType": "uint256",
          "name": "tokenId",
          "type": "uint256"
        }
      ],
      "name": "getApproved",
      "outputs": [
        {
          "internalType": "address",
          "name": "",
          "type": "address"
        }
      ],
      "stateMutability": "view",
      "type": "function"
    },
    {
      "inputs": [],
      "name": "getPrice",
      "outputs": [
        {
          "internalType": "uint256",
          "name": "",
          "type": "uint256"
        }
      ],
      "stateMutability": "view",
      "type": "function"
    },
    {
      "inputs": [
        {
          "internalType": "bytes32",
          "name": "role",
          "type": "bytes32"
        }
      ],
      "name": "getRoleAdmin",
      "outputs": [
        {
          "internalType": "bytes32",
          "name": "",
          "type": "bytes32"
        }
      ],
      "stateMutability": "view",
      "type": "function"
    },
    {
      "inputs": [
        {
          "internalType": "bytes32",
          "name": "role",
          "type": "bytes32"
        },
        {
          "internalType": "uint256",
          "name": "index",
          "type": "uint256"
        }
      ],
      "name": "getRoleMember",
      "outputs": [
        {
          "internalType": "address",
          "name": "",
          "type": "address"
        }
      ],
      "stateMutability": "view",
      "type": "function"
    },
    {
      "inputs": [
        {
          "internalType": "bytes32",
          "name": "role",
          "type": "bytes32"
        }
      ],
      "name": "getRoleMemberCount",
      "outputs": [
        {
          "internalType": "uint256",
          "name": "",
          "type": "uint256"
        }
      ],
      "stateMutability": "view",
      "type": "function"
    },
    {
      "inputs": [
        {
          "internalType": "address",
          "name": "_team",
          "type": "address"
        },
        {
          "internalType": "string",
          "name": "nftURI",
          "type": "string"
        },
        {
          "internalType": "string",
          "name": "ipfshash",
          "type": "string"
        }
      ],
      "name": "giveAway",
      "outputs": [
        {
          "internalType": "uint256",
          "name": "",
          "type": "uint256"
        }
      ],
      "stateMutability": "nonpayable",
      "type": "function"
    },
    {
      "inputs": [
        {
          "internalType": "bytes32",
          "name": "role",
          "type": "bytes32"
        },
        {
          "internalType": "address",
          "name": "account",
          "type": "address"
        }
      ],
      "name": "grantRole",
      "outputs": [],
      "stateMutability": "nonpayable",
      "type": "function"
    },
    {
      "inputs": [
        {
          "internalType": "bytes32",
          "name": "role",
          "type": "bytes32"
        },
        {
          "internalType": "address",
          "name": "account",
          "type": "address"
        }
      ],
      "name": "hasRole",
      "outputs": [
        {
          "internalType": "bool",
          "name": "",
          "type": "bool"
        }
      ],
      "stateMutability": "view",
      "type": "function"
    },
    {
      "inputs": [
        {
          "internalType": "address",
          "name": "owner",
          "type": "address"
        },
        {
          "internalType": "address",
          "name": "operator",
          "type": "address"
        }
      ],
      "name": "isApprovedForAll",
      "outputs": [
        {
          "internalType": "bool",
          "name": "",
          "type": "bool"
        }
      ],
      "stateMutability": "view",
      "type": "function"
    },
    {
      "inputs": [
        {
          "internalType": "string",
          "name": "nftURI",
          "type": "string"
        },
        {
          "internalType": "string",
          "name": "ipfshash",
          "type": "string"
        }
      ],
      "name": "mintItem",
      "outputs": [
        {
          "internalType": "uint256",
          "name": "",
          "type": "uint256"
        }
      ],
      "stateMutability": "payable",
      "type": "function"
    },
    {
      "inputs": [],
      "name": "name",
      "outputs": [
        {
          "internalType": "string",
          "name": "",
          "type": "string"
        }
      ],
      "stateMutability": "view",
      "type": "function"
    },
    {
      "inputs": [
        {
          "internalType": "uint256",
          "name": "tokenId",
          "type": "uint256"
        }
      ],
      "name": "ownerOf",
      "outputs": [
        {
          "internalType": "address",
          "name": "",
          "type": "address"
        }
      ],
      "stateMutability": "view",
      "type": "function"
    },
    {
      "inputs": [],
      "name": "price",
      "outputs": [
        {
          "internalType": "uint256",
          "name": "",
          "type": "uint256"
        }
      ],
      "stateMutability": "view",
      "type": "function"
    },
    {
      "inputs": [
        {
          "internalType": "bytes32",
          "name": "role",
          "type": "bytes32"
        },
        {
          "internalType": "address",
          "name": "account",
          "type": "address"
        }
      ],
      "name": "renounceRole",
      "outputs": [],
      "stateMutability": "nonpayable",
      "type": "function"
    },
    {
      "inputs": [
        {
          "internalType": "bytes32",
          "name": "role",
          "type": "bytes32"
        },
        {
          "internalType": "address",
          "name": "account",
          "type": "address"
        }
      ],
      "name": "revokeRole",
      "outputs": [],
      "stateMutability": "nonpayable",
      "type": "function"
    },
    {
      "inputs": [
        {
          "internalType": "address",
          "name": "from",
          "type": "address"
        },
        {
          "internalType": "address",
          "name": "to",
          "type": "address"
        },
        {
          "internalType": "uint256",
          "name": "tokenId",
          "type": "uint256"
        }
      ],
      "name": "safeTransferFrom",
      "outputs": [],
      "stateMutability": "nonpayable",
      "type": "function"
    },
    {
      "inputs": [
        {
          "internalType": "address",
          "name": "from",
          "type": "address"
        },
        {
          "internalType": "address",
          "name": "to",
          "type": "address"
        },
        {
          "internalType": "uint256",
          "name": "tokenId",
          "type": "uint256"
        },
        {
          "internalType": "bytes",
          "name": "_data",
          "type": "bytes"
        }
      ],
      "name": "safeTransferFrom",
      "outputs": [],
      "stateMutability": "nonpayable",
      "type": "function"
    },
    {
      "inputs": [
        {
          "internalType": "address",
          "name": "operator",
          "type": "address"
        },
        {
          "internalType": "bool",
          "name": "approved",
          "type": "bool"
        }
      ],
      "name": "setApprovalForAll",
      "outputs": [],
      "stateMutability": "nonpayable",
      "type": "function"
    },
    {
      "inputs": [
        {
          "internalType": "bytes4",
          "name": "interfaceId",
          "type": "bytes4"
        }
      ],
      "name": "supportsInterface",
      "outputs": [
        {
          "internalType": "bool",
          "name": "",
          "type": "bool"
        }
      ],
      "stateMutability": "view",
      "type": "function"
    },
    {
      "inputs": [],
      "name": "symbol",
      "outputs": [
        {
          "internalType": "string",
          "name": "",
          "type": "string"
        }
      ],
      "stateMutability": "view",
      "type": "function"
    },
    {
      "inputs": [
        {
          "internalType": "uint256",
          "name": "index",
          "type": "uint256"
        }
      ],
      "name": "tokenByIndex",
      "outputs": [
        {
          "internalType": "uint256",
          "name": "",
          "type": "uint256"
        }
      ],
      "stateMutability": "view",
      "type": "function"
    },
    {
      "inputs": [
        {
          "internalType": "address",
          "name": "owner",
          "type": "address"
        },
        {
          "internalType": "uint256",
          "name": "index",
          "type": "uint256"
        }
      ],
      "name": "tokenOfOwnerByIndex",
      "outputs": [
        {
          "internalType": "uint256",
          "name": "",
          "type": "uint256"
        }
      ],
      "stateMutability": "view",
      "type": "function"
    },
    {
      "inputs": [
        {
          "internalType": "uint256",
          "name": "tokenId",
          "type": "uint256"
        }
      ],
      "name": "tokenURI",
      "outputs": [
        {
          "internalType": "string",
          "name": "",
          "type": "string"
        }
      ],
      "stateMutability": "view",
      "type": "function"
    },
    {
      "inputs": [],
      "name": "totalSupply",
      "outputs": [
        {
          "internalType": "uint256",
          "name": "",
          "type": "uint256"
        }
      ],
      "stateMutability": "view",
      "type": "function"
    },
    {
      "inputs": [
        {
          "internalType": "address",
          "name": "from",
          "type": "address"
        },
        {
          "internalType": "address",
          "name": "to",
          "type": "address"
        },
        {
          "internalType": "uint256",
          "name": "tokenId",
          "type": "uint256"
        }
      ],
      "name": "transferFrom",
      "outputs": [],
      "stateMutability": "nonpayable",
      "type": "function"
    },
    {
      "inputs": [
        {
          "internalType": "address payable",
          "name": "_addr",
          "type": "address"
        }
      ],
      "name": "withEth",
      "outputs": [
        {
          "internalType": "bool",
          "name": "",
          "type": "bool"
        }
      ],
      "stateMutability": "nonpayable",
      "type": "function"
    }
  ],
  "bytecode": "0x60806040526107d0601055666a94d74f4300006011553480156200002257600080fd5b50604080518082018252601b81527f526176696e6720476f626c696e732045524337323120546f6b656e00000000006020808301918252835180850190945260038452621491d560ea1b9084015281519192916200008391600091620000b9565b50805162000099906001906020840190620000b9565b50506001600d5550600f80546001600160a01b031916331790556200019c565b828054620000c7906200015f565b90600052602060002090601f016020900481019282620000eb576000855562000136565b82601f106200010657805160ff191683800117855562000136565b8280016001018555821562000136579182015b828111156200013657825182559160200191906001019062000119565b506200014492915062000148565b5090565b5b8082111562000144576000815560010162000149565b600181811c908216806200017457607f821691505b602082108114156200019657634e487b7160e01b600052602260045260246000fd5b50919050565b612df580620001ac6000396000f3fe6080604052600436106101f95760003560e01c806388d0de031161010d578063a2b40d19116100a0578063c87b56dd1161006f578063c87b56dd1461059c578063ca15c873146105bc578063d547741f146105dc578063e985e9c5146105fc578063fefd7e131461064557600080fd5b8063a2b40d191461051c578063b88d4fde1461053c578063c26a9c981461055c578063c2b380651461057c57600080fd5b806398d5fdca116100dc57806398d5fdca146104bc578063a035b1fe146104d1578063a217fddf146104e7578063a22cb465146104fc57600080fd5b806388d0de03146104475780639010d07c1461046757806391d148541461048757806395d89b41146104a757600080fd5b806329cbc29d1161019057806342842e0e1161015f57806342842e0e146103b45780634f6ccce7146103d45780636352211e146103f4578063705bb0711461041457806370a082311461042757600080fd5b806329cbc29d1461033e5780632f2ff15d146103545780632f745c591461037457806336568abe1461039457600080fd5b80631524eec9116101cc5780631524eec9146102af57806318160ddd146102cf57806323b872dd146102ee578063248a9ca31461030e57600080fd5b806301ffc9a7146101fe57806306fdde0314610233578063081812fc14610255578063095ea7b31461028d575b600080fd5b34801561020a57600080fd5b5061021e610219366004612916565b610665565b60405190151581526020015b60405180910390f35b34801561023f57600080fd5b50610248610676565b60405161022a9190612b8a565b34801561026157600080fd5b506102756102703660046128b9565b610708565b6040516001600160a01b03909116815260200161022a565b34801561029957600080fd5b506102ad6102a836600461288e565b610795565b005b3480156102bb57600080fd5b5061021e6102ca36600461294e565b6108ab565b3480156102db57600080fd5b506008545b60405190815260200161022a565b3480156102fa57600080fd5b506102ad61030936600461272d565b61092b565b34801561031a57600080fd5b506102e06103293660046128b9565b6000908152600b602052604090206001015490565b34801561034a57600080fd5b506102e060105481565b34801561036057600080fd5b506102ad61036f3660046128d1565b61095c565b34801561038057600080fd5b506102e061038f36600461288e565b610982565b3480156103a057600080fd5b506102ad6103af3660046128d1565b610a18565b3480156103c057600080fd5b506102ad6103cf36600461272d565b610a96565b3480156103e057600080fd5b506102e06103ef3660046128b9565b610ab1565b34801561040057600080fd5b5061027561040f3660046128b9565b610b52565b6102e0610422366004612981565b610bc9565b34801561043357600080fd5b506102e06104423660046126d9565b610dea565b34801561045357600080fd5b506102e061046236600461281b565b610e71565b34801561047357600080fd5b506102756104823660046128f5565b610f74565b34801561049357600080fd5b5061021e6104a23660046128d1565b610f93565b3480156104b357600080fd5b50610248610fbe565b3480156104c857600080fd5b506011546102e0565b3480156104dd57600080fd5b506102e060115481565b3480156104f357600080fd5b506102e0600081565b34801561050857600080fd5b506102ad6105173660046127ea565b610fcd565b34801561052857600080fd5b5061021e6105373660046128b9565b610fd8565b34801561054857600080fd5b506102ad61055736600461276d565b61104a565b34801561056857600080fd5b506102486105773660046128b9565b611082565b34801561058857600080fd5b5061021e6105973660046128b9565b61112e565b3480156105a857600080fd5b506102486105b73660046128b9565b6111a2565b3480156105c857600080fd5b506102e06105d73660046128b9565b6111ad565b3480156105e857600080fd5b506102ad6105f73660046128d1565b6111c4565b34801561060857600080fd5b5061021e6106173660046126f5565b6001600160a01b03918216600090815260056020908152604080832093909416825291909152205460ff1690565b34801561065157600080fd5b5061021e6106603660046126d9565b6111ea565b60006106708261127c565b92915050565b60606000805461068590612ce5565b80601f01602080910402602001604051908101604052809291908181526020018280546106b190612ce5565b80156106fe5780601f106106d3576101008083540402835291602001916106fe565b820191906000526020600020905b8154815290600101906020018083116106e157829003601f168201915b5050505050905090565b6000610713826112a1565b6107795760405162461bcd60e51b815260206004820152602c60248201527f4552433732313a20617070726f76656420717565727920666f72206e6f6e657860448201526b34b9ba32b73a103a37b5b2b760a11b60648201526084015b60405180910390fd5b506000908152600460205260409020546001600160a01b031690565b60006107a082610b52565b9050806001600160a01b0316836001600160a01b0316141561080e5760405162461bcd60e51b815260206004820152602160248201527f4552433732313a20617070726f76616c20746f2063757272656e74206f776e656044820152603960f91b6064820152608401610770565b336001600160a01b038216148061082a575061082a8133610617565b61089c5760405162461bcd60e51b815260206004820152603860248201527f4552433732313a20617070726f76652063616c6c6572206973206e6f74206f7760448201527f6e6572206e6f7220617070726f76656420666f7220616c6c00000000000000006064820152608401610770565b6108a683836112be565b505050565b6000805b601254811015610922578280519060200120601282815481106108e257634e487b7160e01b600052603260045260246000fd5b906000526020600020016040516108f99190612a0e565b604051809103902014156109105750600092915050565b8061091a81612d20565b9150506108af565b50600192915050565b610935338261132c565b6109515760405162461bcd60e51b815260040161077090612bef565b6108a6838383611412565b6000828152600b602052604090206001015461097881336115bd565b6108a68383611621565b600061098d83610dea565b82106109ef5760405162461bcd60e51b815260206004820152602b60248201527f455243373231456e756d657261626c653a206f776e657220696e646578206f7560448201526a74206f6620626f756e647360a81b6064820152608401610770565b506001600160a01b03919091166000908152600660209081526040808320938352929052205490565b6001600160a01b0381163314610a885760405162461bcd60e51b815260206004820152602f60248201527f416363657373436f6e74726f6c3a2063616e206f6e6c792072656e6f756e636560448201526e103937b632b9903337b91039b2b63360891b6064820152608401610770565b610a928282611643565b5050565b6108a68383836040518060200160405280600081525061104a565b6000610abc60085490565b8210610b1f5760405162461bcd60e51b815260206004820152602c60248201527f455243373231456e756d657261626c653a20676c6f62616c20696e646578206f60448201526b7574206f6620626f756e647360a01b6064820152608401610770565b60088281548110610b4057634e487b7160e01b600052603260045260246000fd5b90600052602060002001549050919050565b6000818152600260205260408120546001600160a01b0316806106705760405162461bcd60e51b815260206004820152602960248201527f4552433732313a206f776e657220717565727920666f72206e6f6e657869737460448201526832b73a103a37b5b2b760b91b6064820152608401610770565b60006002600d541415610c1e5760405162461bcd60e51b815260206004820152601f60248201527f5265656e7472616e637947756172643a207265656e7472616e742063616c6c006044820152606401610770565b6002600d55610c2c826108ab565b610c785760405162461bcd60e51b815260206004820152601c60248201527f4e6f7420666f722073616c652c20616c7265616479206d696e746564000000006044820152606401610770565b600060115411610cca5760405162461bcd60e51b815260206004820152601c60248201527f5072696365206d757374206265206174206c65617374203120776569000000006044820152606401610770565b6011543414610d105760405162461bcd60e51b8152602060048201526012602482015271756e73756666696369656e742066756e647360701b6044820152606401610770565b600060105411610d575760405162461bcd60e51b81526020600482015260126024820152712334b939ba10323937b81034b99037bb32b960711b6044820152606401610770565b610d65600e80546001019055565b6000610d70600e5490565b9050610d7c3382611665565b610d8681856117a4565b600f546040516001600160a01b03909116903480156108fc02916000818181858888f19350505050158015610dbf573d6000803e3d6000fd5b5060108054906000610dd083612cce565b9190505550610dde8361182f565b6001600d559392505050565b60006001600160a01b038216610e555760405162461bcd60e51b815260206004820152602a60248201527f4552433732313a2062616c616e636520717565727920666f7220746865207a65604482015269726f206164647265737360b01b6064820152608401610770565b506001600160a01b031660009081526003602052604090205490565b600f546000906001600160a01b03163314610edf5760405162461bcd60e51b815260206004820152602860248201527f6f6e6c79207468652041646d696e2063616e2067697665206177617920736f6d6044820152676520746f6b656e7360c01b6064820152608401610770565b610ee8826108ab565b610f345760405162461bcd60e51b815260206004820152601c60248201527f4e6f7420666f722073616c652c20616c7265616479206d696e746564000000006044820152606401610770565b610f42600e80546001019055565b6000610f4d600e5490565b9050610f598582611665565b610f6381856117a4565b610f6c8361182f565b949350505050565b6000828152600c60205260408120610f8c9083611872565b9392505050565b6000918252600b602090815260408084206001600160a01b0393909316845291905290205460ff1690565b60606001805461068590612ce5565b610a9233838361187e565b600f546000906001600160a01b031633146110415760405162461bcd60e51b815260206004820152602360248201527f6f6e6c79207468652041646d696e2063616e206368616e67652074686520707260448201526269636560e81b6064820152608401610770565b50601155600190565b611054338361132c565b6110705760405162461bcd60e51b815260040161077090612bef565b61107c8484848461194d565b50505050565b6012818154811061109257600080fd5b9060005260206000200160009150905080546110ad90612ce5565b80601f01602080910402602001604051908101604052809291908181526020018280546110d990612ce5565b80156111265780601f106110fb57610100808354040283529160200191611126565b820191906000526020600020905b81548152906001019060200180831161110957829003601f168201915b505050505081565b600f546000906001600160a01b031633146111995760405162461bcd60e51b815260206004820152602560248201527f6f6e6c79207468652041646d696e2063616e206368616e67652074686973206e6044820152643ab6b132b960d91b6064820152608401610770565b50601055600190565b606061067082611980565b6000818152600c6020526040812061067090611aef565b6000828152600b60205260409020600101546111e081336115bd565b6108a68383611643565b600f546000906001600160a01b031633146112475760405162461bcd60e51b815260206004820152601b60248201527f6f6e6c79207468652041646d696e2063616e20776974686472617700000000006044820152606401610770565b6040516001600160a01b038316904780156108fc02916000818181858888f19350505050158015610922573d6000803e3d6000fd5b60006001600160e01b03198216635a05180f60e01b1480610670575061067082611af9565b6000908152600260205260409020546001600160a01b0316151590565b600081815260046020526040902080546001600160a01b0319166001600160a01b03841690811790915581906112f382610b52565b6001600160a01b03167f8c5be1e5ebec7d5bd14f71427d1e84f3dd0314c0f7b2291e5b200ac8c7c3b92560405160405180910390a45050565b6000611337826112a1565b6113985760405162461bcd60e51b815260206004820152602c60248201527f4552433732313a206f70657261746f7220717565727920666f72206e6f6e657860448201526b34b9ba32b73a103a37b5b2b760a11b6064820152608401610770565b60006113a383610b52565b9050806001600160a01b0316846001600160a01b031614806113de5750836001600160a01b03166113d384610708565b6001600160a01b0316145b80610f6c57506001600160a01b0380821660009081526005602090815260408083209388168352929052205460ff16610f6c565b826001600160a01b031661142582610b52565b6001600160a01b03161461148d5760405162461bcd60e51b815260206004820152602960248201527f4552433732313a207472616e73666572206f6620746f6b656e2074686174206960448201526839903737ba1037bbb760b91b6064820152608401610770565b6001600160a01b0382166114ef5760405162461bcd60e51b8152602060048201526024808201527f4552433732313a207472616e7366657220746f20746865207a65726f206164646044820152637265737360e01b6064820152608401610770565b6114fa838383611b1e565b6115056000826112be565b6001600160a01b038316600090815260036020526040812080546001929061152e908490612c8b565b90915550506001600160a01b038216600090815260036020526040812080546001929061155c908490612c40565b909155505060008181526002602052604080822080546001600160a01b0319166001600160a01b0386811691821790925591518493918716917fddf252ad1be2c89b69c2b068fc378daa952ba7f163c4a11628f55a4df523b3ef91a4505050565b6115c78282610f93565b610a92576115df816001600160a01b03166014611b29565b6115ea836020611b29565b6040516020016115fb929190612ad8565b60408051601f198184030181529082905262461bcd60e51b825261077091600401612b8a565b61162b8282611d0b565b6000828152600c602052604090206108a69082611d91565b61164d8282611da6565b6000828152600c602052604090206108a69082611e0d565b6001600160a01b0382166116bb5760405162461bcd60e51b815260206004820181905260248201527f4552433732313a206d696e7420746f20746865207a65726f20616464726573736044820152606401610770565b6116c4816112a1565b156117115760405162461bcd60e51b815260206004820152601c60248201527f4552433732313a20746f6b656e20616c7265616479206d696e746564000000006044820152606401610770565b61171d60008383611b1e565b6001600160a01b0382166000908152600360205260408120805460019290611746908490612c40565b909155505060008181526002602052604080822080546001600160a01b0319166001600160a01b03861690811790915590518392907fddf252ad1be2c89b69c2b068fc378daa952ba7f163c4a11628f55a4df523b3ef908290a45050565b6117ad826112a1565b6118105760405162461bcd60e51b815260206004820152602e60248201527f45524337323155524953746f726167653a2055524920736574206f66206e6f6e60448201526d32bc34b9ba32b73a103a37b5b2b760911b6064820152608401610770565b6000828152600a6020908152604090912082516108a6928401906125ab565b601280546001810182556000919091528151610a92917fbb8a6a4669ba250d26cd7a459eca9d215f8307e33aebe50379bc5a3617ec3444019060208401906125ab565b6000610f8c8383611e22565b816001600160a01b0316836001600160a01b031614156118e05760405162461bcd60e51b815260206004820152601960248201527f4552433732313a20617070726f766520746f2063616c6c6572000000000000006044820152606401610770565b6001600160a01b03838116600081815260056020908152604080832094871680845294825291829020805460ff191686151590811790915591519182527f17307eab39ab6107e8899845ad3d59bd9653f200f220920489ca2b5937696c31910160405180910390a3505050565b611958848484611412565b61196484848484611e5a565b61107c5760405162461bcd60e51b815260040161077090612b9d565b606061198b826112a1565b6119f15760405162461bcd60e51b815260206004820152603160248201527f45524337323155524953746f726167653a2055524920717565727920666f72206044820152703737b732bc34b9ba32b73a103a37b5b2b760791b6064820152608401610770565b6000828152600a602052604081208054611a0a90612ce5565b80601f0160208091040260200160405190810160405280929190818152602001828054611a3690612ce5565b8015611a835780601f10611a5857610100808354040283529160200191611a83565b820191906000526020600020905b815481529060010190602001808311611a6657829003601f168201915b505050505090506000611aa160408051602081019091526000815290565b9050805160001415611ab4575092915050565b815115611ae6578082604051602001611ace929190612aa9565b60405160208183030381529060405292505050919050565b610f6c84611f67565b6000610670825490565b60006001600160e01b03198216637965db0b60e01b148061067057506106708261203e565b6108a6838383612063565b60606000611b38836002612c6c565b611b43906002612c40565b67ffffffffffffffff811115611b6957634e487b7160e01b600052604160045260246000fd5b6040519080825280601f01601f191660200182016040528015611b93576020820181803683370190505b509050600360fc1b81600081518110611bbc57634e487b7160e01b600052603260045260246000fd5b60200101906001600160f81b031916908160001a905350600f60fb1b81600181518110611bf957634e487b7160e01b600052603260045260246000fd5b60200101906001600160f81b031916908160001a9053506000611c1d846002612c6c565b611c28906001612c40565b90505b6001811115611cbc576f181899199a1a9b1b9c1cb0b131b232b360811b85600f1660108110611c6a57634e487b7160e01b600052603260045260246000fd5b1a60f81b828281518110611c8e57634e487b7160e01b600052603260045260246000fd5b60200101906001600160f81b031916908160001a90535060049490941c93611cb581612cce565b9050611c2b565b508315610f8c5760405162461bcd60e51b815260206004820181905260248201527f537472696e67733a20686578206c656e67746820696e73756666696369656e746044820152606401610770565b611d158282610f93565b610a92576000828152600b602090815260408083206001600160a01b03851684529091529020805460ff19166001179055611d4d3390565b6001600160a01b0316816001600160a01b0316837f2f8788117e7eff1d82e926ec794901d17c78024a50270940304540a733656f0d60405160405180910390a45050565b6000610f8c836001600160a01b03841661211b565b611db08282610f93565b15610a92576000828152600b602090815260408083206001600160a01b0385168085529252808320805460ff1916905551339285917ff6391f5c32d9c69d2a47ea670b442974b53935d1edc7fd64eb21e047a839171b9190a45050565b6000610f8c836001600160a01b03841661216a565b6000826000018281548110611e4757634e487b7160e01b600052603260045260246000fd5b9060005260206000200154905092915050565b60006001600160a01b0384163b15611f5c57604051630a85bd0160e11b81526001600160a01b0385169063150b7a0290611e9e903390899088908890600401612b4d565b602060405180830381600087803b158015611eb857600080fd5b505af1925050508015611ee8575060408051601f3d908101601f19168201909252611ee591810190612932565b60015b611f42573d808015611f16576040519150601f19603f3d011682016040523d82523d6000602084013e611f1b565b606091505b508051611f3a5760405162461bcd60e51b815260040161077090612b9d565b805181602001fd5b6001600160e01b031916630a85bd0160e11b149050610f6c565b506001949350505050565b6060611f72826112a1565b611fd65760405162461bcd60e51b815260206004820152602f60248201527f4552433732314d657461646174613a2055524920717565727920666f72206e6f60448201526e3732bc34b9ba32b73a103a37b5b2b760891b6064820152608401610770565b6000611fed60408051602081019091526000815290565b9050600081511161200d5760405180602001604052806000815250610f8c565b8061201784612287565b604051602001612028929190612aa9565b6040516020818303038152906040529392505050565b60006001600160e01b0319821663780e9d6360e01b14806106705750610670826123a1565b6001600160a01b0383166120be576120b981600880546000838152600960205260408120829055600182018355919091527ff3f7a9fe364faab93b216da50a3214154f22a0a2b415b23a84c8169e8b636ee30155565b6120e1565b816001600160a01b0316836001600160a01b0316146120e1576120e183826123f1565b6001600160a01b0382166120f8576108a68161248e565b826001600160a01b0316826001600160a01b0316146108a6576108a68282612567565b600081815260018301602052604081205461216257508154600181810184556000848152602080822090930184905584548482528286019093526040902091909155610670565b506000610670565b6000818152600183016020526040812054801561227d57600061218e600183612c8b565b85549091506000906121a290600190612c8b565b90508181146122235760008660000182815481106121d057634e487b7160e01b600052603260045260246000fd5b906000526020600020015490508087600001848154811061220157634e487b7160e01b600052603260045260246000fd5b6000918252602080832090910192909255918252600188019052604090208390555b855486908061224257634e487b7160e01b600052603160045260246000fd5b600190038181906000526020600020016000905590558560010160008681526020019081526020016000206000905560019350505050610670565b6000915050610670565b6060816122ab5750506040805180820190915260018152600360fc1b602082015290565b8160005b81156122d557806122bf81612d20565b91506122ce9050600a83612c58565b91506122af565b60008167ffffffffffffffff8111156122fe57634e487b7160e01b600052604160045260246000fd5b6040519080825280601f01601f191660200182016040528015612328576020820181803683370190505b5090505b8415610f6c5761233d600183612c8b565b915061234a600a86612d3b565b612355906030612c40565b60f81b81838151811061237857634e487b7160e01b600052603260045260246000fd5b60200101906001600160f81b031916908160001a90535061239a600a86612c58565b945061232c565b60006001600160e01b031982166380ac58cd60e01b14806123d257506001600160e01b03198216635b5e139f60e01b145b8061067057506301ffc9a760e01b6001600160e01b0319831614610670565b600060016123fe84610dea565b6124089190612c8b565b60008381526007602052604090205490915080821461245b576001600160a01b03841660009081526006602090815260408083208584528252808320548484528184208190558352600790915290208190555b5060009182526007602090815260408084208490556001600160a01b039094168352600681528383209183525290812055565b6008546000906124a090600190612c8b565b600083815260096020526040812054600880549394509092849081106124d657634e487b7160e01b600052603260045260246000fd5b90600052602060002001549050806008838154811061250557634e487b7160e01b600052603260045260246000fd5b600091825260208083209091019290925582815260099091526040808220849055858252812055600880548061254b57634e487b7160e01b600052603160045260246000fd5b6001900381819060005260206000200160009055905550505050565b600061257283610dea565b6001600160a01b039093166000908152600660209081526040808320868452825280832085905593825260079052919091209190915550565b8280546125b790612ce5565b90600052602060002090601f0160209004810192826125d9576000855561261f565b82601f106125f257805160ff191683800117855561261f565b8280016001018555821561261f579182015b8281111561261f578251825591602001919060010190612604565b5061262b92915061262f565b5090565b5b8082111561262b5760008155600101612630565b600067ffffffffffffffff8084111561265f5761265f612d7b565b604051601f8501601f19908116603f0116810190828211818310171561268757612687612d7b565b816040528093508581528686860111156126a057600080fd5b858560208301376000602087830101525050509392505050565b600082601f8301126126ca578081fd5b610f8c83833560208501612644565b6000602082840312156126ea578081fd5b8135610f8c81612d91565b60008060408385031215612707578081fd5b823561271281612d91565b9150602083013561272281612d91565b809150509250929050565b600080600060608486031215612741578081fd5b833561274c81612d91565b9250602084013561275c81612d91565b929592945050506040919091013590565b60008060008060808587031215612782578081fd5b843561278d81612d91565b9350602085013561279d81612d91565b925060408501359150606085013567ffffffffffffffff8111156127bf578182fd5b8501601f810187136127cf578182fd5b6127de87823560208401612644565b91505092959194509250565b600080604083850312156127fc578182fd5b823561280781612d91565b915060208301358015158114612722578182fd5b60008060006060848603121561282f578283fd5b833561283a81612d91565b9250602084013567ffffffffffffffff80821115612856578384fd5b612862878388016126ba565b93506040860135915080821115612877578283fd5b50612884868287016126ba565b9150509250925092565b600080604083850312156128a0578182fd5b82356128ab81612d91565b946020939093013593505050565b6000602082840312156128ca578081fd5b5035919050565b600080604083850312156128e3578182fd5b82359150602083013561272281612d91565b60008060408385031215612907578182fd5b50508035926020909101359150565b600060208284031215612927578081fd5b8135610f8c81612da9565b600060208284031215612943578081fd5b8151610f8c81612da9565b60006020828403121561295f578081fd5b813567ffffffffffffffff811115612975578182fd5b610f6c848285016126ba565b60008060408385031215612993578182fd5b823567ffffffffffffffff808211156129aa578384fd5b6129b6868387016126ba565b935060208501359150808211156129cb578283fd5b506129d8858286016126ba565b9150509250929050565b600081518084526129fa816020860160208601612ca2565b601f01601f19169290920160200192915050565b600080835482600182811c915080831680612a2a57607f831692505b6020808410821415612a4a57634e487b7160e01b87526022600452602487fd5b818015612a5e5760018114612a6f57612a9b565b60ff19861689528489019650612a9b565b60008a815260209020885b86811015612a935781548b820152908501908301612a7a565b505084890196505b509498975050505050505050565b60008351612abb818460208801612ca2565b835190830190612acf818360208801612ca2565b01949350505050565b7f416363657373436f6e74726f6c3a206163636f756e7420000000000000000000815260008351612b10816017850160208801612ca2565b7001034b99036b4b9b9b4b733903937b6329607d1b6017918401918201528351612b41816028840160208801612ca2565b01602801949350505050565b6001600160a01b0385811682528416602082015260408101839052608060608201819052600090612b80908301846129e2565b9695505050505050565b602081526000610f8c60208301846129e2565b60208082526032908201527f4552433732313a207472616e7366657220746f206e6f6e20455243373231526560408201527131b2b4bb32b91034b6b83632b6b2b73a32b960711b606082015260800190565b60208082526031908201527f4552433732313a207472616e736665722063616c6c6572206973206e6f74206f6040820152701ddb995c881b9bdc88185c1c1c9bdd9959607a1b606082015260800190565b60008219821115612c5357612c53612d4f565b500190565b600082612c6757612c67612d65565b500490565b6000816000190483118215151615612c8657612c86612d4f565b500290565b600082821015612c9d57612c9d612d4f565b500390565b60005b83811015612cbd578181015183820152602001612ca5565b8381111561107c5750506000910152565b600081612cdd57612cdd612d4f565b506000190190565b600181811c90821680612cf957607f821691505b60208210811415612d1a57634e487b7160e01b600052602260045260246000fd5b50919050565b6000600019821415612d3457612d34612d4f565b5060010190565b600082612d4a57612d4a612d65565b500690565b634e487b7160e01b600052601160045260246000fd5b634e487b7160e01b600052601260045260246000fd5b634e487b7160e01b600052604160045260246000fd5b6001600160a01b0381168114612da657600080fd5b50565b6001600160e01b031981168114612da657600080fdfea26469706673582212202cd75bbec9fabf11f877a61aea852cc721cc6f403ce8b73aa9806be1d990797f64736f6c63430008040033",
  "linkReferences": {},
  "deployedLinkReferences": {}
}