{
  "_format": "hh-sol-artifact-1",
  "contractName": "NFT",
  "sourceName": "contracts/NFT.sol",
  "abi": [
    {
      "inputs": [],
      "stateMutability": "nonpayable",
      "type": "constructor"
    },
    {
      "anonymous": false,
      "inputs": [
        {
          "indexed": true,
          "internalType": "address",
          "name": "owner",
          "type": "address"
        },
        {
          "indexed": true,
          "internalType": "address",
          "name": "approved",
          "type": "address"
        },
        {
          "indexed": true,
          "internalType": "uint256",
          "name": "tokenId",
          "type": "uint256"
        }
      ],
      "name": "Approval",
      "type": "event"
    },
    {
      "anonymous": false,
      "inputs": [
        {
          "indexed": true,
          "internalType": "address",
          "name": "owner",
          "type": "address"
        },
        {
          "indexed": true,
          "internalType": "address",
          "name": "operator",
          "type": "address"
        },
        {
          "indexed": false,
          "internalType": "bool",
          "name": "approved",
          "type": "bool"
        }
      ],
      "name": "ApprovalForAll",
      "type": "event"
    },
    {
      "anonymous": false,
      "inputs": [
        {
          "indexed": false,
          "internalType": "address",
          "name": "account",
          "type": "address"
        }
      ],
      "name": "Paused",
      "type": "event"
    },
    {
      "anonymous": false,
      "inputs": [
        {
          "indexed": true,
          "internalType": "bytes32",
          "name": "role",
          "type": "bytes32"
        },
        {
          "indexed": true,
          "internalType": "bytes32",
          "name": "previousAdminRole",
          "type": "bytes32"
        },
        {
          "indexed": true,
          "internalType": "bytes32",
          "name": "newAdminRole",
          "type": "bytes32"
        }
      ],
      "name": "RoleAdminChanged",
      "type": "event"
    },
    {
      "anonymous": false,
      "inputs": [
        {
          "indexed": true,
          "internalType": "bytes32",
          "name": "role",
          "type": "bytes32"
        },
        {
          "indexed": true,
          "internalType": "address",
          "name": "account",
          "type": "address"
        },
        {
          "indexed": true,
          "internalType": "address",
          "name": "sender",
          "type": "address"
        }
      ],
      "name": "RoleGranted",
      "type": "event"
    },
    {
      "anonymous": false,
      "inputs": [
        {
          "indexed": true,
          "internalType": "bytes32",
          "name": "role",
          "type": "bytes32"
        },
        {
          "indexed": true,
          "internalType": "address",
          "name": "account",
          "type": "address"
        },
        {
          "indexed": true,
          "internalType": "address",
          "name": "sender",
          "type": "address"
        }
      ],
      "name": "RoleRevoked",
      "type": "event"
    },
    {
      "anonymous": false,
      "inputs": [
        {
          "indexed": true,
          "internalType": "address",
          "name": "from",
          "type": "address"
        },
        {
          "indexed": true,
          "internalType": "address",
          "name": "to",
          "type": "address"
        },
        {
          "indexed": true,
          "internalType": "uint256",
          "name": "tokenId",
          "type": "uint256"
        }
      ],
      "name": "Transfer",
      "type": "event"
    },
    {
      "anonymous": false,
      "inputs": [
        {
          "indexed": false,
          "internalType": "address",
          "name": "account",
          "type": "address"
        }
      ],
      "name": "Unpaused",
      "type": "event"
    },
    {
      "inputs": [],
      "name": "DEFAULT_ADMIN_ROLE",
      "outputs": [
        {
          "internalType": "bytes32",
          "name": "",
          "type": "bytes32"
        }
      ],
      "stateMutability": "view",
      "type": "function"
    },
    {
      "inputs": [],
      "name": "_claimNft",
      "outputs": [],
      "stateMutability": "payable",
      "type": "function"
    },
    {
      "inputs": [],
      "name": "admin",
      "outputs": [
        {
          "internalType": "address",
          "name": "",
          "type": "address"
        }
      ],
      "stateMutability": "view",
      "type": "function"
    },
    {
      "inputs": [
        {
          "internalType": "address",
          "name": "to",
          "type": "address"
        },
        {
          "internalType": "uint256",
          "name": "tokenId",
          "type": "uint256"
        }
      ],
      "name": "approve",
      "outputs": [],
      "stateMutability": "nonpayable",
      "type": "function"
    },
    {
      "inputs": [
        {
          "internalType": "address",
          "name": "owner",
          "type": "address"
        }
      ],
      "name": "balanceOf",
      "outputs": [
        {
          "internalType": "uint256",
          "name": "",
          "type": "uint256"
        }
      ],
      "stateMutability": "view",
      "type": "function"
    },
    {
      "inputs": [],
      "name": "baseUrl",
      "outputs": [
        {
          "internalType": "string",
          "name": "",
          "type": "string"
        }
      ],
      "stateMutability": "view",
      "type": "function"
    },
    {
      "inputs": [
        {
          "internalType": "uint256",
          "name": "tokenId",
          "type": "uint256"
        }
      ],
      "name": "burn",
      "outputs": [],
      "stateMutability": "nonpayable",
      "type": "function"
    },
    {
      "inputs": [
        {
          "internalType": "uint256",
          "name": "_newPrice",
          "type": "uint256"
        }
      ],
      "name": "changePrice",
      "outputs": [
        {
          "internalType": "bool",
          "name": "",
          "type": "bool"
        }
      ],
      "stateMutability": "nonpayable",
      "type": "function"
    },
    {
      "inputs": [
        {
          "internalType": "uint256",
          "name": "_newinialnfts",
          "type": "uint256"
        }
      ],
      "name": "changeTotalInitialNFTs",
      "outputs": [
        {
          "internalType": "bool",
          "name": "",
          "type": "bool"
        }
      ],
      "stateMutability": "nonpayable",
      "type": "function"
    },
    {
      "inputs": [
        {
          "internalType": "string",
          "name": "_newUrl",
          "type": "string"
        }
      ],
      "name": "changeUrl",
      "outputs": [
        {
          "internalType": "bool",
          "name": "",
          "type": "bool"
        }
      ],
      "stateMutability": "nonpayable",
      "type": "function"
    },
    {
      "inputs": [
        {
          "internalType": "uint256",
          "name": "tokenId",
          "type": "uint256"
        }
      ],
      "name": "getApproved",
      "outputs": [
        {
          "internalType": "address",
          "name": "",
          "type": "address"
        }
      ],
      "stateMutability": "view",
      "type": "function"
    },
    {
      "inputs": [],
      "name": "getPrice",
      "outputs": [
        {
          "internalType": "uint256",
          "name": "",
          "type": "uint256"
        }
      ],
      "stateMutability": "view",
      "type": "function"
    },
    {
      "inputs": [
        {
          "internalType": "bytes32",
          "name": "role",
          "type": "bytes32"
        }
      ],
      "name": "getRoleAdmin",
      "outputs": [
        {
          "internalType": "bytes32",
          "name": "",
          "type": "bytes32"
        }
      ],
      "stateMutability": "view",
      "type": "function"
    },
    {
      "inputs": [
        {
          "internalType": "bytes32",
          "name": "role",
          "type": "bytes32"
        },
        {
          "internalType": "uint256",
          "name": "index",
          "type": "uint256"
        }
      ],
      "name": "getRoleMember",
      "outputs": [
        {
          "internalType": "address",
          "name": "",
          "type": "address"
        }
      ],
      "stateMutability": "view",
      "type": "function"
    },
    {
      "inputs": [
        {
          "internalType": "bytes32",
          "name": "role",
          "type": "bytes32"
        }
      ],
      "name": "getRoleMemberCount",
      "outputs": [
        {
          "internalType": "uint256",
          "name": "",
          "type": "uint256"
        }
      ],
      "stateMutability": "view",
      "type": "function"
    },
    {
      "inputs": [
        {
          "internalType": "bytes32",
          "name": "role",
          "type": "bytes32"
        },
        {
          "internalType": "address",
          "name": "account",
          "type": "address"
        }
      ],
      "name": "grantRole",
      "outputs": [],
      "stateMutability": "nonpayable",
      "type": "function"
    },
    {
      "inputs": [
        {
          "internalType": "bytes32",
          "name": "role",
          "type": "bytes32"
        },
        {
          "internalType": "address",
          "name": "account",
          "type": "address"
        }
      ],
      "name": "hasRole",
      "outputs": [
        {
          "internalType": "bool",
          "name": "",
          "type": "bool"
        }
      ],
      "stateMutability": "view",
      "type": "function"
    },
    {
      "inputs": [
        {
          "internalType": "address",
          "name": "owner",
          "type": "address"
        },
        {
          "internalType": "address",
          "name": "operator",
          "type": "address"
        }
      ],
      "name": "isApprovedForAll",
      "outputs": [
        {
          "internalType": "bool",
          "name": "",
          "type": "bool"
        }
      ],
      "stateMutability": "view",
      "type": "function"
    },
    {
      "inputs": [],
      "name": "name",
      "outputs": [
        {
          "internalType": "string",
          "name": "",
          "type": "string"
        }
      ],
      "stateMutability": "view",
      "type": "function"
    },
    {
      "inputs": [
        {
          "internalType": "uint256",
          "name": "tokenId",
          "type": "uint256"
        }
      ],
      "name": "ownerOf",
      "outputs": [
        {
          "internalType": "address",
          "name": "",
          "type": "address"
        }
      ],
      "stateMutability": "view",
      "type": "function"
    },
    {
      "inputs": [],
      "name": "pause",
      "outputs": [],
      "stateMutability": "nonpayable",
      "type": "function"
    },
    {
      "inputs": [],
      "name": "paused",
      "outputs": [
        {
          "internalType": "bool",
          "name": "",
          "type": "bool"
        }
      ],
      "stateMutability": "view",
      "type": "function"
    },
    {
      "inputs": [
        {
          "internalType": "bytes32",
          "name": "role",
          "type": "bytes32"
        },
        {
          "internalType": "address",
          "name": "account",
          "type": "address"
        }
      ],
      "name": "renounceRole",
      "outputs": [],
      "stateMutability": "nonpayable",
      "type": "function"
    },
    {
      "inputs": [
        {
          "internalType": "bytes32",
          "name": "role",
          "type": "bytes32"
        },
        {
          "internalType": "address",
          "name": "account",
          "type": "address"
        }
      ],
      "name": "revokeRole",
      "outputs": [],
      "stateMutability": "nonpayable",
      "type": "function"
    },
    {
      "inputs": [
        {
          "internalType": "address",
          "name": "from",
          "type": "address"
        },
        {
          "internalType": "address",
          "name": "to",
          "type": "address"
        },
        {
          "internalType": "uint256",
          "name": "tokenId",
          "type": "uint256"
        }
      ],
      "name": "safeTransferFrom",
      "outputs": [],
      "stateMutability": "nonpayable",
      "type": "function"
    },
    {
      "inputs": [
        {
          "internalType": "address",
          "name": "from",
          "type": "address"
        },
        {
          "internalType": "address",
          "name": "to",
          "type": "address"
        },
        {
          "internalType": "uint256",
          "name": "tokenId",
          "type": "uint256"
        },
        {
          "internalType": "bytes",
          "name": "_data",
          "type": "bytes"
        }
      ],
      "name": "safeTransferFrom",
      "outputs": [],
      "stateMutability": "nonpayable",
      "type": "function"
    },
    {
      "inputs": [
        {
          "internalType": "address",
          "name": "operator",
          "type": "address"
        },
        {
          "internalType": "bool",
          "name": "approved",
          "type": "bool"
        }
      ],
      "name": "setApprovalForAll",
      "outputs": [],
      "stateMutability": "nonpayable",
      "type": "function"
    },
    {
      "inputs": [
        {
          "internalType": "bytes4",
          "name": "interfaceId",
          "type": "bytes4"
        }
      ],
      "name": "supportsInterface",
      "outputs": [
        {
          "internalType": "bool",
          "name": "",
          "type": "bool"
        }
      ],
      "stateMutability": "view",
      "type": "function"
    },
    {
      "inputs": [],
      "name": "symbol",
      "outputs": [
        {
          "internalType": "string",
          "name": "",
          "type": "string"
        }
      ],
      "stateMutability": "view",
      "type": "function"
    },
    {
      "inputs": [
        {
          "internalType": "uint256",
          "name": "index",
          "type": "uint256"
        }
      ],
      "name": "tokenByIndex",
      "outputs": [
        {
          "internalType": "uint256",
          "name": "",
          "type": "uint256"
        }
      ],
      "stateMutability": "view",
      "type": "function"
    },
    {
      "inputs": [
        {
          "internalType": "address",
          "name": "owner",
          "type": "address"
        },
        {
          "internalType": "uint256",
          "name": "index",
          "type": "uint256"
        }
      ],
      "name": "tokenOfOwnerByIndex",
      "outputs": [
        {
          "internalType": "uint256",
          "name": "",
          "type": "uint256"
        }
      ],
      "stateMutability": "view",
      "type": "function"
    },
    {
      "inputs": [
        {
          "internalType": "uint256",
          "name": "tokenId",
          "type": "uint256"
        }
      ],
      "name": "tokenURI",
      "outputs": [
        {
          "internalType": "string",
          "name": "",
          "type": "string"
        }
      ],
      "stateMutability": "view",
      "type": "function"
    },
    {
      "inputs": [],
      "name": "tokenid",
      "outputs": [
        {
          "internalType": "uint256",
          "name": "",
          "type": "uint256"
        }
      ],
      "stateMutability": "view",
      "type": "function"
    },
    {
      "inputs": [],
      "name": "totalInialNFTS",
      "outputs": [
        {
          "internalType": "uint256",
          "name": "",
          "type": "uint256"
        }
      ],
      "stateMutability": "view",
      "type": "function"
    },
    {
      "inputs": [],
      "name": "totalSupply",
      "outputs": [
        {
          "internalType": "uint256",
          "name": "",
          "type": "uint256"
        }
      ],
      "stateMutability": "view",
      "type": "function"
    },
    {
      "inputs": [
        {
          "internalType": "address",
          "name": "from",
          "type": "address"
        },
        {
          "internalType": "address",
          "name": "to",
          "type": "address"
        },
        {
          "internalType": "uint256",
          "name": "tokenId",
          "type": "uint256"
        }
      ],
      "name": "transferFrom",
      "outputs": [],
      "stateMutability": "nonpayable",
      "type": "function"
    },
    {
      "inputs": [],
      "name": "unpause",
      "outputs": [],
      "stateMutability": "nonpayable",
      "type": "function"
    }
  ],
  "bytecode": "0x666a94d74f4300006011556001601455600a60155560c0604052601660808190527f68747470733a2f64736473647364736464736473642f0000000000000000000060a09081526200005391908162000112565b503480156200006157600080fd5b50604080518082018252601c81527f526176696e6720476f626c696e73204552432d37323120746f6b656e000000006020808301918252835180850190945260038452621491d560ea1b908401528151919291620000c29160009162000112565b508051620000d890600190602084019062000112565b5050600d805460ff19169055506001600e5560128054336001600160a01b03199182168117909255601380549091169091179055620001f5565b8280546200012090620001b8565b90600052602060002090601f0160209004810192826200014457600085556200018f565b82601f106200015f57805160ff19168380011785556200018f565b828001600101855582156200018f579182015b828111156200018f57825182559160200191906001019062000172565b506200019d929150620001a1565b5090565b5b808211156200019d5760008155600101620001a2565b600181811c90821680620001cd57607f821691505b60208210811415620001ef57634e487b7160e01b600052602260045260246000fd5b50919050565b612d8a80620002056000396000f3fe60806040526004361061021a5760003560e01c80636352211e11610123578063a217fddf116100ab578063c87b56dd1161006f578063c87b56dd146105e9578063ca15c87314610609578063d547741f14610629578063e985e9c514610649578063f851a4401461069257600080fd5b8063a217fddf14610554578063a22cb46514610569578063a2b40d1914610589578063aafdd31a146105a9578063b88d4fde146105c957600080fd5b80638456cb59116100f25780638456cb59146104d55780639010d07c146104ea57806391d148541461050a57806395d89b411461052a57806398d5fdca1461053f57600080fd5b80636352211e1461047757806370a082311461049757806372fc3b5b146104b75780637d6aab0a146104bf57600080fd5b806331b4a184116101a657806342966c681161017557806342966c68146103ea5780634f6ccce71461040a5780635bcabf041461042a5780635c975abb1461043f5780635f823d281461045757600080fd5b806331b4a1841461037f57806336568abe146103955780633f4ba83a146103b557806342842e0e146103ca57600080fd5b806318160ddd116101ed57806318160ddd146102d057806323b872dd146102ef578063248a9ca31461030f5780632f2ff15d1461033f5780632f745c591461035f57600080fd5b806301ffc9a71461021f57806306fdde0314610254578063081812fc14610276578063095ea7b3146102ae575b600080fd5b34801561022b57600080fd5b5061023f61023a3660046128b3565b6106b2565b60405190151581526020015b60405180910390f35b34801561026057600080fd5b506102696106c3565b60405161024b9190612b00565b34801561028257600080fd5b50610296610291366004612858565b610755565b6040516001600160a01b03909116815260200161024b565b3480156102ba57600080fd5b506102ce6102c936600461282f565b6107e2565b005b3480156102dc57600080fd5b506008545b60405190815260200161024b565b3480156102fb57600080fd5b506102ce61030a366004612741565b6108f8565b34801561031b57600080fd5b506102e161032a366004612858565b6000908152600b602052604090206001015490565b34801561034b57600080fd5b506102ce61035a366004612870565b61092a565b34801561036b57600080fd5b506102e161037a36600461282f565b610950565b34801561038b57600080fd5b506102e160155481565b3480156103a157600080fd5b506102ce6103b0366004612870565b6109e6565b3480156103c157600080fd5b506102ce610a64565b3480156103d657600080fd5b506102ce6103e5366004612741565b610ab6565b3480156103f657600080fd5b506102ce610405366004612858565b610ad1565b34801561041657600080fd5b506102e1610425366004612858565b610b4b565b34801561043657600080fd5b50610269610bec565b34801561044b57600080fd5b50600d5460ff1661023f565b34801561046357600080fd5b5061023f6104723660046128eb565b610c7a565b34801561048357600080fd5b50610296610492366004612858565b610cc3565b3480156104a357600080fd5b506102e16104b23660046126f5565b610d3a565b6102ce610dc1565b3480156104cb57600080fd5b506102e160145481565b3480156104e157600080fd5b506102ce610f06565b3480156104f657600080fd5b50610296610505366004612892565b610f56565b34801561051657600080fd5b5061023f610525366004612870565b610f75565b34801561053657600080fd5b50610269610fa0565b34801561054b57600080fd5b506011546102e1565b34801561056057600080fd5b506102e1600081565b34801561057557600080fd5b506102ce6105843660046127f5565b610faf565b34801561059557600080fd5b5061023f6105a4366004612858565b610fba565b3480156105b557600080fd5b5061023f6105c4366004612858565b610ff0565b3480156105d557600080fd5b506102ce6105e436600461277c565b611026565b3480156105f557600080fd5b50610269610604366004612858565b61105e565b34801561061557600080fd5b506102e1610624366004612858565b611069565b34801561063557600080fd5b506102ce610644366004612870565b611080565b34801561065557600080fd5b5061023f61066436600461270f565b6001600160a01b03918216600090815260056020908152604080832093909416825291909152205460ff1690565b34801561069e57600080fd5b50601354610296906001600160a01b031681565b60006106bd826110a6565b92915050565b6060600080546106d290612c92565b80601f01602080910402602001604051908101604052809291908181526020018280546106fe90612c92565b801561074b5780601f106107205761010080835404028352916020019161074b565b820191906000526020600020905b81548152906001019060200180831161072e57829003601f168201915b5050505050905090565b6000610760826110cb565b6107c65760405162461bcd60e51b815260206004820152602c60248201527f4552433732313a20617070726f76656420717565727920666f72206e6f6e657860448201526b34b9ba32b73a103a37b5b2b760a11b60648201526084015b60405180910390fd5b506000908152600460205260409020546001600160a01b031690565b60006107ed82610cc3565b9050806001600160a01b0316836001600160a01b0316141561085b5760405162461bcd60e51b815260206004820152602160248201527f4552433732313a20617070726f76616c20746f2063757272656e74206f776e656044820152603960f91b60648201526084016107bd565b336001600160a01b038216148061087757506108778133610664565b6108e95760405162461bcd60e51b815260206004820152603860248201527f4552433732313a20617070726f76652063616c6c6572206973206e6f74206f7760448201527f6e6572206e6f7220617070726f76656420666f7220616c6c000000000000000060648201526084016107bd565b6108f383836110e8565b505050565b610903335b82611156565b61091f5760405162461bcd60e51b81526004016107bd90612b9c565b6108f3838383611240565b6000828152600b602052604090206001015461094681336113eb565b6108f3838361144f565b600061095b83610d3a565b82106109bd5760405162461bcd60e51b815260206004820152602b60248201527f455243373231456e756d657261626c653a206f776e657220696e646578206f7560448201526a74206f6620626f756e647360a81b60648201526084016107bd565b506001600160a01b03919091166000908152600660209081526040808320938352929052205490565b6001600160a01b0381163314610a565760405162461bcd60e51b815260206004820152602f60248201527f416363657373436f6e74726f6c3a2063616e206f6e6c792072656e6f756e636560448201526e103937b632b9903337b91039b2b63360891b60648201526084016107bd565b610a608282611471565b5050565b6013546001600160a01b03163314610aac5760405162461bcd60e51b815260206004820152600b60248201526a1b9bdd08185b1b1bddd95960aa1b60448201526064016107bd565b610ab4611493565b565b6108f383838360405180602001604052806000815250611026565b610ada336108fd565b610b3f5760405162461bcd60e51b815260206004820152603060248201527f4552433732314275726e61626c653a2063616c6c6572206973206e6f74206f7760448201526f1b995c881b9bdc88185c1c1c9bdd995960821b60648201526084016107bd565b610b4881611526565b50565b6000610b5660085490565b8210610bb95760405162461bcd60e51b815260206004820152602c60248201527f455243373231456e756d657261626c653a20676c6f62616c20696e646578206f60448201526b7574206f6620626f756e647360a01b60648201526084016107bd565b60088281548110610bda57634e487b7160e01b600052603260045260246000fd5b90600052602060002001549050919050565b60168054610bf990612c92565b80601f0160208091040260200160405190810160405280929190818152602001828054610c2590612c92565b8015610c725780601f10610c4757610100808354040283529160200191610c72565b820191906000526020600020905b815481529060010190602001808311610c5557829003601f168201915b505050505081565b6013546000906001600160a01b03163314610ca75760405162461bcd60e51b81526004016107bd90612b13565b8151610cba906016906020850190612594565b50600192915050565b6000818152600260205260408120546001600160a01b0316806106bd5760405162461bcd60e51b815260206004820152602960248201527f4552433732313a206f776e657220717565727920666f72206e6f6e657869737460448201526832b73a103a37b5b2b760b91b60648201526084016107bd565b60006001600160a01b038216610da55760405162461bcd60e51b815260206004820152602a60248201527f4552433732313a2062616c616e636520717565727920666f7220746865207a65604482015269726f206164647265737360b01b60648201526084016107bd565b506001600160a01b031660009081526003602052604090205490565b6002600e541415610e145760405162461bcd60e51b815260206004820152601f60248201527f5265656e7472616e637947756172643a207265656e7472616e742063616c6c0060448201526064016107bd565b6002600e55601154341015610e625760405162461bcd60e51b8152602060048201526014602482015273556e73756666696369656e742062616c616e636560601b60448201526064016107bd565b610e70600f80546001019055565b6000610e7b600f5490565b9050610e87338261152f565b60006016610e948361166e565b604051602001610ea59291906129a8565b6040516020818303038152906040529050610ec08282611788565b6013546011546040516001600160a01b039092169181156108fc0291906000818181858888f19350505050158015610efc573d6000803e3d6000fd5b50506001600e5550565b6013546001600160a01b03163314610f4e5760405162461bcd60e51b815260206004820152600b60248201526a1b9bdd08185b1b1bddd95960aa1b60448201526064016107bd565b610ab4611813565b6000828152600c60205260408120610f6e908361188e565b9392505050565b6000918252600b602090815260408084206001600160a01b0393909316845291905290205460ff1690565b6060600180546106d290612c92565b610a6033838361189a565b6013546000906001600160a01b03163314610fe75760405162461bcd60e51b81526004016107bd90612b13565b50601155600190565b6013546000906001600160a01b0316331461101d5760405162461bcd60e51b81526004016107bd90612b13565b50601555600190565b6110303383611156565b61104c5760405162461bcd60e51b81526004016107bd90612b9c565b61105884848484611969565b50505050565b60606106bd8261199c565b6000818152600c602052604081206106bd90611b0b565b6000828152600b602052604090206001015461109c81336113eb565b6108f38383611471565b60006001600160e01b03198216635a05180f60e01b14806106bd57506106bd82611b15565b6000908152600260205260409020546001600160a01b0316151590565b600081815260046020526040902080546001600160a01b0319166001600160a01b038416908117909155819061111d82610cc3565b6001600160a01b03167f8c5be1e5ebec7d5bd14f71427d1e84f3dd0314c0f7b2291e5b200ac8c7c3b92560405160405180910390a45050565b6000611161826110cb565b6111c25760405162461bcd60e51b815260206004820152602c60248201527f4552433732313a206f70657261746f7220717565727920666f72206e6f6e657860448201526b34b9ba32b73a103a37b5b2b760a11b60648201526084016107bd565b60006111cd83610cc3565b9050806001600160a01b0316846001600160a01b031614806112085750836001600160a01b03166111fd84610755565b6001600160a01b0316145b8061123857506001600160a01b0380821660009081526005602090815260408083209388168352929052205460ff165b949350505050565b826001600160a01b031661125382610cc3565b6001600160a01b0316146112bb5760405162461bcd60e51b815260206004820152602960248201527f4552433732313a207472616e73666572206f6620746f6b656e2074686174206960448201526839903737ba1037bbb760b91b60648201526084016107bd565b6001600160a01b03821661131d5760405162461bcd60e51b8152602060048201526024808201527f4552433732313a207472616e7366657220746f20746865207a65726f206164646044820152637265737360e01b60648201526084016107bd565b611328838383611b3a565b6113336000826110e8565b6001600160a01b038316600090815260036020526040812080546001929061135c908490612c38565b90915550506001600160a01b038216600090815260036020526040812080546001929061138a908490612bed565b909155505060008181526002602052604080822080546001600160a01b0319166001600160a01b0386811691821790925591518493918716917fddf252ad1be2c89b69c2b068fc378daa952ba7f163c4a11628f55a4df523b3ef91a4505050565b6113f58282610f75565b610a605761140d816001600160a01b03166014611b45565b611418836020611b45565b604051602001611429929190612a4e565b60408051601f198184030181529082905262461bcd60e51b82526107bd91600401612b00565b6114598282611d27565b6000828152600c602052604090206108f39082611dad565b61147b8282611dc2565b6000828152600c602052604090206108f39082611e29565b600d5460ff166114dc5760405162461bcd60e51b815260206004820152601460248201527314185d5cd8589b194e881b9bdd081c185d5cd95960621b60448201526064016107bd565b600d805460ff191690557f5db9ee0a495bf2e6ff9c91a7834c1ba4fdd244a5e8aa4e537bd38aeae4b073aa335b6040516001600160a01b03909116815260200160405180910390a1565b610b4881611e3e565b6001600160a01b0382166115855760405162461bcd60e51b815260206004820181905260248201527f4552433732313a206d696e7420746f20746865207a65726f206164647265737360448201526064016107bd565b61158e816110cb565b156115db5760405162461bcd60e51b815260206004820152601c60248201527f4552433732313a20746f6b656e20616c7265616479206d696e7465640000000060448201526064016107bd565b6115e760008383611b3a565b6001600160a01b0382166000908152600360205260408120805460019290611610908490612bed565b909155505060008181526002602052604080822080546001600160a01b0319166001600160a01b03861690811790915590518392907fddf252ad1be2c89b69c2b068fc378daa952ba7f163c4a11628f55a4df523b3ef908290a45050565b6060816116925750506040805180820190915260018152600360fc1b602082015290565b8160005b81156116bc57806116a681612ccd565b91506116b59050600a83612c05565b9150611696565b60008167ffffffffffffffff8111156116e557634e487b7160e01b600052604160045260246000fd5b6040519080825280601f01601f19166020018201604052801561170f576020820181803683370190505b5090505b841561123857611724600183612c38565b9150611731600a86612ce8565b61173c906030612bed565b60f81b81838151811061175f57634e487b7160e01b600052603260045260246000fd5b60200101906001600160f81b031916908160001a905350611781600a86612c05565b9450611713565b611791826110cb565b6117f45760405162461bcd60e51b815260206004820152602e60248201527f45524337323155524953746f726167653a2055524920736574206f66206e6f6e60448201526d32bc34b9ba32b73a103a37b5b2b760911b60648201526084016107bd565b6000828152600a6020908152604090912082516108f392840190612594565b600d5460ff16156118595760405162461bcd60e51b815260206004820152601060248201526f14185d5cd8589b194e881c185d5cd95960821b60448201526064016107bd565b600d805460ff191660011790557f62e78cea01bee320cd4e420270b5ea74000d11b0c9f74754ebdbfc544b05a2586115093390565b6000610f6e8383611e7e565b816001600160a01b0316836001600160a01b031614156118fc5760405162461bcd60e51b815260206004820152601960248201527f4552433732313a20617070726f766520746f2063616c6c65720000000000000060448201526064016107bd565b6001600160a01b03838116600081815260056020908152604080832094871680845294825291829020805460ff191686151590811790915591519182527f17307eab39ab6107e8899845ad3d59bd9653f200f220920489ca2b5937696c31910160405180910390a3505050565b611974848484611240565b61198084848484611eb6565b6110585760405162461bcd60e51b81526004016107bd90612b4a565b60606119a7826110cb565b611a0d5760405162461bcd60e51b815260206004820152603160248201527f45524337323155524953746f726167653a2055524920717565727920666f72206044820152703737b732bc34b9ba32b73a103a37b5b2b760791b60648201526084016107bd565b6000828152600a602052604081208054611a2690612c92565b80601f0160208091040260200160405190810160405280929190818152602001828054611a5290612c92565b8015611a9f5780601f10611a7457610100808354040283529160200191611a9f565b820191906000526020600020905b815481529060010190602001808311611a8257829003601f168201915b505050505090506000611abd60408051602081019091526000815290565b9050805160001415611ad0575092915050565b815115611b02578082604051602001611aea929190612979565b60405160208183030381529060405292505050919050565b61123884611fc3565b60006106bd825490565b60006001600160e01b03198216637965db0b60e01b14806106bd57506106bd8261209a565b6108f38383836120bf565b60606000611b54836002612c19565b611b5f906002612bed565b67ffffffffffffffff811115611b8557634e487b7160e01b600052604160045260246000fd5b6040519080825280601f01601f191660200182016040528015611baf576020820181803683370190505b509050600360fc1b81600081518110611bd857634e487b7160e01b600052603260045260246000fd5b60200101906001600160f81b031916908160001a905350600f60fb1b81600181518110611c1557634e487b7160e01b600052603260045260246000fd5b60200101906001600160f81b031916908160001a9053506000611c39846002612c19565b611c44906001612bed565b90505b6001811115611cd8576f181899199a1a9b1b9c1cb0b131b232b360811b85600f1660108110611c8657634e487b7160e01b600052603260045260246000fd5b1a60f81b828281518110611caa57634e487b7160e01b600052603260045260246000fd5b60200101906001600160f81b031916908160001a90535060049490941c93611cd181612c7b565b9050611c47565b508315610f6e5760405162461bcd60e51b815260206004820181905260248201527f537472696e67733a20686578206c656e67746820696e73756666696369656e7460448201526064016107bd565b611d318282610f75565b610a60576000828152600b602090815260408083206001600160a01b03851684529091529020805460ff19166001179055611d693390565b6001600160a01b0316816001600160a01b0316837f2f8788117e7eff1d82e926ec794901d17c78024a50270940304540a733656f0d60405160405180910390a45050565b6000610f6e836001600160a01b038416612177565b611dcc8282610f75565b15610a60576000828152600b602090815260408083206001600160a01b0385168085529252808320805460ff1916905551339285917ff6391f5c32d9c69d2a47ea670b442974b53935d1edc7fd64eb21e047a839171b9190a45050565b6000610f6e836001600160a01b0384166121c6565b611e47816122e3565b6000818152600a602052604090208054611e6090612c92565b159050610b48576000818152600a60205260408120610b4891612618565b6000826000018281548110611ea357634e487b7160e01b600052603260045260246000fd5b9060005260206000200154905092915050565b60006001600160a01b0384163b15611fb857604051630a85bd0160e11b81526001600160a01b0385169063150b7a0290611efa903390899088908890600401612ac3565b602060405180830381600087803b158015611f1457600080fd5b505af1925050508015611f44575060408051601f3d908101601f19168201909252611f41918101906128cf565b60015b611f9e573d808015611f72576040519150601f19603f3d011682016040523d82523d6000602084013e611f77565b606091505b508051611f965760405162461bcd60e51b81526004016107bd90612b4a565b805181602001fd5b6001600160e01b031916630a85bd0160e11b149050611238565b506001949350505050565b6060611fce826110cb565b6120325760405162461bcd60e51b815260206004820152602f60248201527f4552433732314d657461646174613a2055524920717565727920666f72206e6f60448201526e3732bc34b9ba32b73a103a37b5b2b760891b60648201526084016107bd565b600061204960408051602081019091526000815290565b905060008151116120695760405180602001604052806000815250610f6e565b806120738461166e565b604051602001612084929190612979565b6040516020818303038152906040529392505050565b60006001600160e01b0319821663780e9d6360e01b14806106bd57506106bd8261238a565b6001600160a01b03831661211a5761211581600880546000838152600960205260408120829055600182018355919091527ff3f7a9fe364faab93b216da50a3214154f22a0a2b415b23a84c8169e8b636ee30155565b61213d565b816001600160a01b0316836001600160a01b03161461213d5761213d83826123da565b6001600160a01b038216612154576108f381612477565b826001600160a01b0316826001600160a01b0316146108f3576108f38282612550565b60008181526001830160205260408120546121be575081546001818101845560008481526020808220909301849055845484825282860190935260409020919091556106bd565b5060006106bd565b600081815260018301602052604081205480156122d95760006121ea600183612c38565b85549091506000906121fe90600190612c38565b905081811461227f57600086600001828154811061222c57634e487b7160e01b600052603260045260246000fd5b906000526020600020015490508087600001848154811061225d57634e487b7160e01b600052603260045260246000fd5b6000918252602080832090910192909255918252600188019052604090208390555b855486908061229e57634e487b7160e01b600052603160045260246000fd5b6001900381819060005260206000200160009055905585600101600086815260200190815260200160002060009055600193505050506106bd565b60009150506106bd565b60006122ee82610cc3565b90506122fc81600084611b3a565b6123076000836110e8565b6001600160a01b0381166000908152600360205260408120805460019290612330908490612c38565b909155505060008281526002602052604080822080546001600160a01b0319169055518391906001600160a01b038416907fddf252ad1be2c89b69c2b068fc378daa952ba7f163c4a11628f55a4df523b3ef908390a45050565b60006001600160e01b031982166380ac58cd60e01b14806123bb57506001600160e01b03198216635b5e139f60e01b145b806106bd57506301ffc9a760e01b6001600160e01b03198316146106bd565b600060016123e784610d3a565b6123f19190612c38565b600083815260076020526040902054909150808214612444576001600160a01b03841660009081526006602090815260408083208584528252808320548484528184208190558352600790915290208190555b5060009182526007602090815260408084208490556001600160a01b039094168352600681528383209183525290812055565b60085460009061248990600190612c38565b600083815260096020526040812054600880549394509092849081106124bf57634e487b7160e01b600052603260045260246000fd5b9060005260206000200154905080600883815481106124ee57634e487b7160e01b600052603260045260246000fd5b600091825260208083209091019290925582815260099091526040808220849055858252812055600880548061253457634e487b7160e01b600052603160045260246000fd5b6001900381819060005260206000200160009055905550505050565b600061255b83610d3a565b6001600160a01b039093166000908152600660209081526040808320868452825280832085905593825260079052919091209190915550565b8280546125a090612c92565b90600052602060002090601f0160209004810192826125c25760008555612608565b82601f106125db57805160ff1916838001178555612608565b82800160010185558215612608579182015b828111156126085782518255916020019190600101906125ed565b5061261492915061264e565b5090565b50805461262490612c92565b6000825580601f10612634575050565b601f016020900490600052602060002090810190610b4891905b5b80821115612614576000815560010161264f565b600067ffffffffffffffff8084111561267e5761267e612d28565b604051601f8501601f19908116603f011681019082821181831017156126a6576126a6612d28565b816040528093508581528686860111156126bf57600080fd5b858560208301376000602087830101525050509392505050565b80356001600160a01b03811681146126f057600080fd5b919050565b600060208284031215612706578081fd5b610f6e826126d9565b60008060408385031215612721578081fd5b61272a836126d9565b9150612738602084016126d9565b90509250929050565b600080600060608486031215612755578081fd5b61275e846126d9565b925061276c602085016126d9565b9150604084013590509250925092565b60008060008060808587031215612791578081fd5b61279a856126d9565b93506127a8602086016126d9565b925060408501359150606085013567ffffffffffffffff8111156127ca578182fd5b8501601f810187136127da578182fd5b6127e987823560208401612663565b91505092959194509250565b60008060408385031215612807578182fd5b612810836126d9565b915060208301358015158114612824578182fd5b809150509250929050565b60008060408385031215612841578182fd5b61284a836126d9565b946020939093013593505050565b600060208284031215612869578081fd5b5035919050565b60008060408385031215612882578182fd5b82359150612738602084016126d9565b600080604083850312156128a4578182fd5b50508035926020909101359150565b6000602082840312156128c4578081fd5b8135610f6e81612d3e565b6000602082840312156128e0578081fd5b8151610f6e81612d3e565b6000602082840312156128fc578081fd5b813567ffffffffffffffff811115612912578182fd5b8201601f81018413612922578182fd5b61123884823560208401612663565b60008151808452612949816020860160208601612c4f565b601f01601f19169290920160200192915050565b6000815161296f818560208601612c4f565b9290920192915050565b6000835161298b818460208801612c4f565b83519083019061299f818360208801612c4f565b01949350505050565b600080845482600182811c9150808316806129c457607f831692505b60208084108214156129e457634e487b7160e01b87526022600452602487fd5b8180156129f85760018114612a0957612a35565b60ff19861689528489019650612a35565b60008b815260209020885b86811015612a2d5781548b820152908501908301612a14565b505084890196505b505050505050612a45818561295d565b95945050505050565b7f416363657373436f6e74726f6c3a206163636f756e7420000000000000000000815260008351612a86816017850160208801612c4f565b7001034b99036b4b9b9b4b733903937b6329607d1b6017918401918201528351612ab7816028840160208801612c4f565b01602801949350505050565b6001600160a01b0385811682528416602082015260408101839052608060608201819052600090612af690830184612931565b9695505050505050565b602081526000610f6e6020830184612931565b60208082526019908201527f6f6e6c79207468652061646d696e20697320616c6c6f77656400000000000000604082015260600190565b60208082526032908201527f4552433732313a207472616e7366657220746f206e6f6e20455243373231526560408201527131b2b4bb32b91034b6b83632b6b2b73a32b960711b606082015260800190565b60208082526031908201527f4552433732313a207472616e736665722063616c6c6572206973206e6f74206f6040820152701ddb995c881b9bdc88185c1c1c9bdd9959607a1b606082015260800190565b60008219821115612c0057612c00612cfc565b500190565b600082612c1457612c14612d12565b500490565b6000816000190483118215151615612c3357612c33612cfc565b500290565b600082821015612c4a57612c4a612cfc565b500390565b60005b83811015612c6a578181015183820152602001612c52565b838111156110585750506000910152565b600081612c8a57612c8a612cfc565b506000190190565b600181811c90821680612ca657607f821691505b60208210811415612cc757634e487b7160e01b600052602260045260246000fd5b50919050565b6000600019821415612ce157612ce1612cfc565b5060010190565b600082612cf757612cf7612d12565b500690565b634e487b7160e01b600052601160045260246000fd5b634e487b7160e01b600052601260045260246000fd5b634e487b7160e01b600052604160045260246000fd5b6001600160e01b031981168114610b4857600080fdfea26469706673582212202affcb04ce39324c2c5456ded240e7dbbea8bcbe9381bb388c5d790e114a362664736f6c63430008040033",
  "linkReferences": {},
  "deployedLinkReferences": {}
}