{
  "_format": "hh-sol-artifact-1",
  "contractName": "NFT",
  "sourceName": "contracts/NFT.sol",
  "abi": [
    {
      "inputs": [],
      "stateMutability": "nonpayable",
      "type": "constructor"
    },
    {
      "anonymous": false,
      "inputs": [
        {
          "indexed": true,
          "internalType": "address",
          "name": "owner",
          "type": "address"
        },
        {
          "indexed": true,
          "internalType": "address",
          "name": "approved",
          "type": "address"
        },
        {
          "indexed": true,
          "internalType": "uint256",
          "name": "tokenId",
          "type": "uint256"
        }
      ],
      "name": "Approval",
      "type": "event"
    },
    {
      "anonymous": false,
      "inputs": [
        {
          "indexed": true,
          "internalType": "address",
          "name": "owner",
          "type": "address"
        },
        {
          "indexed": true,
          "internalType": "address",
          "name": "operator",
          "type": "address"
        },
        {
          "indexed": false,
          "internalType": "bool",
          "name": "approved",
          "type": "bool"
        }
      ],
      "name": "ApprovalForAll",
      "type": "event"
    },
    {
      "anonymous": false,
      "inputs": [
        {
          "indexed": true,
          "internalType": "bytes32",
          "name": "role",
          "type": "bytes32"
        },
        {
          "indexed": true,
          "internalType": "bytes32",
          "name": "previousAdminRole",
          "type": "bytes32"
        },
        {
          "indexed": true,
          "internalType": "bytes32",
          "name": "newAdminRole",
          "type": "bytes32"
        }
      ],
      "name": "RoleAdminChanged",
      "type": "event"
    },
    {
      "anonymous": false,
      "inputs": [
        {
          "indexed": true,
          "internalType": "bytes32",
          "name": "role",
          "type": "bytes32"
        },
        {
          "indexed": true,
          "internalType": "address",
          "name": "account",
          "type": "address"
        },
        {
          "indexed": true,
          "internalType": "address",
          "name": "sender",
          "type": "address"
        }
      ],
      "name": "RoleGranted",
      "type": "event"
    },
    {
      "anonymous": false,
      "inputs": [
        {
          "indexed": true,
          "internalType": "bytes32",
          "name": "role",
          "type": "bytes32"
        },
        {
          "indexed": true,
          "internalType": "address",
          "name": "account",
          "type": "address"
        },
        {
          "indexed": true,
          "internalType": "address",
          "name": "sender",
          "type": "address"
        }
      ],
      "name": "RoleRevoked",
      "type": "event"
    },
    {
      "anonymous": false,
      "inputs": [
        {
          "indexed": true,
          "internalType": "address",
          "name": "from",
          "type": "address"
        },
        {
          "indexed": true,
          "internalType": "address",
          "name": "to",
          "type": "address"
        },
        {
          "indexed": true,
          "internalType": "uint256",
          "name": "tokenId",
          "type": "uint256"
        }
      ],
      "name": "Transfer",
      "type": "event"
    },
    {
      "inputs": [],
      "name": "DEFAULT_ADMIN_ROLE",
      "outputs": [
        {
          "internalType": "bytes32",
          "name": "",
          "type": "bytes32"
        }
      ],
      "stateMutability": "view",
      "type": "function"
    },
    {
      "inputs": [
        {
          "internalType": "address",
          "name": "to",
          "type": "address"
        },
        {
          "internalType": "uint256",
          "name": "tokenId",
          "type": "uint256"
        }
      ],
      "name": "approve",
      "outputs": [],
      "stateMutability": "nonpayable",
      "type": "function"
    },
    {
      "inputs": [
        {
          "internalType": "address",
          "name": "owner",
          "type": "address"
        }
      ],
      "name": "balanceOf",
      "outputs": [
        {
          "internalType": "uint256",
          "name": "",
          "type": "uint256"
        }
      ],
      "stateMutability": "view",
      "type": "function"
    },
    {
      "inputs": [
        {
          "internalType": "uint256",
          "name": "_newValue",
          "type": "uint256"
        }
      ],
      "name": "changePossibleToMint",
      "outputs": [
        {
          "internalType": "bool",
          "name": "",
          "type": "bool"
        }
      ],
      "stateMutability": "nonpayable",
      "type": "function"
    },
    {
      "inputs": [
        {
          "internalType": "uint256",
          "name": "_newPrice",
          "type": "uint256"
        }
      ],
      "name": "changePrice",
      "outputs": [
        {
          "internalType": "bool",
          "name": "",
          "type": "bool"
        }
      ],
      "stateMutability": "nonpayable",
      "type": "function"
    },
    {
      "inputs": [
        {
          "internalType": "uint256",
          "name": "tokenId",
          "type": "uint256"
        }
      ],
      "name": "getApproved",
      "outputs": [
        {
          "internalType": "address",
          "name": "",
          "type": "address"
        }
      ],
      "stateMutability": "view",
      "type": "function"
    },
    {
      "inputs": [],
      "name": "getPrice",
      "outputs": [
        {
          "internalType": "uint256",
          "name": "",
          "type": "uint256"
        }
      ],
      "stateMutability": "view",
      "type": "function"
    },
    {
      "inputs": [
        {
          "internalType": "bytes32",
          "name": "role",
          "type": "bytes32"
        }
      ],
      "name": "getRoleAdmin",
      "outputs": [
        {
          "internalType": "bytes32",
          "name": "",
          "type": "bytes32"
        }
      ],
      "stateMutability": "view",
      "type": "function"
    },
    {
      "inputs": [
        {
          "internalType": "bytes32",
          "name": "role",
          "type": "bytes32"
        },
        {
          "internalType": "uint256",
          "name": "index",
          "type": "uint256"
        }
      ],
      "name": "getRoleMember",
      "outputs": [
        {
          "internalType": "address",
          "name": "",
          "type": "address"
        }
      ],
      "stateMutability": "view",
      "type": "function"
    },
    {
      "inputs": [
        {
          "internalType": "bytes32",
          "name": "role",
          "type": "bytes32"
        }
      ],
      "name": "getRoleMemberCount",
      "outputs": [
        {
          "internalType": "uint256",
          "name": "",
          "type": "uint256"
        }
      ],
      "stateMutability": "view",
      "type": "function"
    },
    {
      "inputs": [
        {
          "internalType": "address",
          "name": "_team",
          "type": "address"
        },
        {
          "internalType": "string",
          "name": "nftURI",
          "type": "string"
        }
      ],
      "name": "giveAway",
      "outputs": [
        {
          "internalType": "uint256",
          "name": "",
          "type": "uint256"
        }
      ],
      "stateMutability": "nonpayable",
      "type": "function"
    },
    {
      "inputs": [
        {
          "internalType": "bytes32",
          "name": "role",
          "type": "bytes32"
        },
        {
          "internalType": "address",
          "name": "account",
          "type": "address"
        }
      ],
      "name": "grantRole",
      "outputs": [],
      "stateMutability": "nonpayable",
      "type": "function"
    },
    {
      "inputs": [
        {
          "internalType": "bytes32",
          "name": "role",
          "type": "bytes32"
        },
        {
          "internalType": "address",
          "name": "account",
          "type": "address"
        }
      ],
      "name": "hasRole",
      "outputs": [
        {
          "internalType": "bool",
          "name": "",
          "type": "bool"
        }
      ],
      "stateMutability": "view",
      "type": "function"
    },
    {
      "inputs": [
        {
          "internalType": "address",
          "name": "owner",
          "type": "address"
        },
        {
          "internalType": "address",
          "name": "operator",
          "type": "address"
        }
      ],
      "name": "isApprovedForAll",
      "outputs": [
        {
          "internalType": "bool",
          "name": "",
          "type": "bool"
        }
      ],
      "stateMutability": "view",
      "type": "function"
    },
    {
      "inputs": [
        {
          "internalType": "string",
          "name": "nftURI",
          "type": "string"
        }
      ],
      "name": "mintItem",
      "outputs": [
        {
          "internalType": "uint256",
          "name": "",
          "type": "uint256"
        }
      ],
      "stateMutability": "payable",
      "type": "function"
    },
    {
      "inputs": [],
      "name": "name",
      "outputs": [
        {
          "internalType": "string",
          "name": "",
          "type": "string"
        }
      ],
      "stateMutability": "view",
      "type": "function"
    },
    {
      "inputs": [
        {
          "internalType": "uint256",
          "name": "tokenId",
          "type": "uint256"
        }
      ],
      "name": "ownerOf",
      "outputs": [
        {
          "internalType": "address",
          "name": "",
          "type": "address"
        }
      ],
      "stateMutability": "view",
      "type": "function"
    },
    {
      "inputs": [],
      "name": "price",
      "outputs": [
        {
          "internalType": "uint256",
          "name": "",
          "type": "uint256"
        }
      ],
      "stateMutability": "view",
      "type": "function"
    },
    {
      "inputs": [
        {
          "internalType": "bytes32",
          "name": "role",
          "type": "bytes32"
        },
        {
          "internalType": "address",
          "name": "account",
          "type": "address"
        }
      ],
      "name": "renounceRole",
      "outputs": [],
      "stateMutability": "nonpayable",
      "type": "function"
    },
    {
      "inputs": [
        {
          "internalType": "bytes32",
          "name": "role",
          "type": "bytes32"
        },
        {
          "internalType": "address",
          "name": "account",
          "type": "address"
        }
      ],
      "name": "revokeRole",
      "outputs": [],
      "stateMutability": "nonpayable",
      "type": "function"
    },
    {
      "inputs": [
        {
          "internalType": "address",
          "name": "from",
          "type": "address"
        },
        {
          "internalType": "address",
          "name": "to",
          "type": "address"
        },
        {
          "internalType": "uint256",
          "name": "tokenId",
          "type": "uint256"
        }
      ],
      "name": "safeTransferFrom",
      "outputs": [],
      "stateMutability": "nonpayable",
      "type": "function"
    },
    {
      "inputs": [
        {
          "internalType": "address",
          "name": "from",
          "type": "address"
        },
        {
          "internalType": "address",
          "name": "to",
          "type": "address"
        },
        {
          "internalType": "uint256",
          "name": "tokenId",
          "type": "uint256"
        },
        {
          "internalType": "bytes",
          "name": "_data",
          "type": "bytes"
        }
      ],
      "name": "safeTransferFrom",
      "outputs": [],
      "stateMutability": "nonpayable",
      "type": "function"
    },
    {
      "inputs": [
        {
          "internalType": "address",
          "name": "operator",
          "type": "address"
        },
        {
          "internalType": "bool",
          "name": "approved",
          "type": "bool"
        }
      ],
      "name": "setApprovalForAll",
      "outputs": [],
      "stateMutability": "nonpayable",
      "type": "function"
    },
    {
      "inputs": [
        {
          "internalType": "bytes4",
          "name": "interfaceId",
          "type": "bytes4"
        }
      ],
      "name": "supportsInterface",
      "outputs": [
        {
          "internalType": "bool",
          "name": "",
          "type": "bool"
        }
      ],
      "stateMutability": "view",
      "type": "function"
    },
    {
      "inputs": [],
      "name": "symbol",
      "outputs": [
        {
          "internalType": "string",
          "name": "",
          "type": "string"
        }
      ],
      "stateMutability": "view",
      "type": "function"
    },
    {
      "inputs": [
        {
          "internalType": "uint256",
          "name": "index",
          "type": "uint256"
        }
      ],
      "name": "tokenByIndex",
      "outputs": [
        {
          "internalType": "uint256",
          "name": "",
          "type": "uint256"
        }
      ],
      "stateMutability": "view",
      "type": "function"
    },
    {
      "inputs": [
        {
          "internalType": "address",
          "name": "owner",
          "type": "address"
        },
        {
          "internalType": "uint256",
          "name": "index",
          "type": "uint256"
        }
      ],
      "name": "tokenOfOwnerByIndex",
      "outputs": [
        {
          "internalType": "uint256",
          "name": "",
          "type": "uint256"
        }
      ],
      "stateMutability": "view",
      "type": "function"
    },
    {
      "inputs": [
        {
          "internalType": "uint256",
          "name": "tokenId",
          "type": "uint256"
        }
      ],
      "name": "tokenURI",
      "outputs": [
        {
          "internalType": "string",
          "name": "",
          "type": "string"
        }
      ],
      "stateMutability": "view",
      "type": "function"
    },
    {
      "inputs": [],
      "name": "totalSupply",
      "outputs": [
        {
          "internalType": "uint256",
          "name": "",
          "type": "uint256"
        }
      ],
      "stateMutability": "view",
      "type": "function"
    },
    {
      "inputs": [
        {
          "internalType": "address",
          "name": "from",
          "type": "address"
        },
        {
          "internalType": "address",
          "name": "to",
          "type": "address"
        },
        {
          "internalType": "uint256",
          "name": "tokenId",
          "type": "uint256"
        }
      ],
      "name": "transferFrom",
      "outputs": [],
      "stateMutability": "nonpayable",
      "type": "function"
    },
    {
      "inputs": [
        {
          "internalType": "address payable",
          "name": "_addr",
          "type": "address"
        }
      ],
      "name": "withEth",
      "outputs": [
        {
          "internalType": "bool",
          "name": "",
          "type": "bool"
        }
      ],
      "stateMutability": "nonpayable",
      "type": "function"
    }
  ],
  "bytecode": "0x60806040526107d0601055666a94d74f4300006011553480156200002257600080fd5b50604080518082018252601b81527f526176696e6720476f626c696e732045524337323120546f6b656e00000000006020808301918252835180850190945260038452621491d560ea1b9084015281519192916200008391600091620000b9565b50805162000099906001906020840190620000b9565b50506001600d5550600f80546001600160a01b031916331790556200019c565b828054620000c7906200015f565b90600052602060002090601f016020900481019282620000eb576000855562000136565b82601f106200010657805160ff191683800117855562000136565b8280016001018555821562000136579182015b828111156200013657825182559160200191906001019062000119565b506200014492915062000148565b5090565b5b8082111562000144576000815560010162000149565b600181811c908216806200017457607f821691505b602082108114156200019657634e487b7160e01b600052602260045260246000fd5b50919050565b612a3380620001ac6000396000f3fe6080604052600436106101d85760003560e01c80639010d07c11610102578063b88d4fde11610095578063ca15c87311610064578063ca15c87314610545578063d547741f14610565578063e985e9c514610585578063fefd7e13146105ce57600080fd5b8063b88d4fde146104d2578063c2b38065146104f2578063c754584914610512578063c87b56dd1461052557600080fd5b8063a035b1fe116100d1578063a035b1fe14610467578063a217fddf1461047d578063a22cb46514610492578063a2b40d19146104b257600080fd5b80639010d07c146103fd57806391d148541461041d57806395d89b411461043d57806398d5fdca1461045257600080fd5b80632f2ff15d1161017a5780634f6ccce7116101495780634f6ccce71461037d57806359059d881461039d5780636352211e146103bd57806370a08231146103dd57600080fd5b80632f2ff15d146102fd5780632f745c591461031d57806336568abe1461033d57806342842e0e1461035d57600080fd5b8063095ea7b3116101b6578063095ea7b31461026c57806318160ddd1461028e57806323b872dd146102ad578063248a9ca3146102cd57600080fd5b806301ffc9a7146101dd57806306fdde0314610212578063081812fc14610234575b600080fd5b3480156101e957600080fd5b506101fd6101f8366004612650565b6105ee565b60405190151581526020015b60405180910390f35b34801561021e57600080fd5b506102276105ff565b60405161020991906127c8565b34801561024057600080fd5b5061025461024f3660046125f3565b610691565b6040516001600160a01b039091168152602001610209565b34801561027857600080fd5b5061028c6102873660046125c8565b61071e565b005b34801561029a57600080fd5b506008545b604051908152602001610209565b3480156102b957600080fd5b5061028c6102c836600461248c565b610834565b3480156102d957600080fd5b5061029f6102e83660046125f3565b6000908152600b602052604090206001015490565b34801561030957600080fd5b5061028c61031836600461260b565b610865565b34801561032957600080fd5b5061029f6103383660046125c8565b61088b565b34801561034957600080fd5b5061028c61035836600461260b565b610921565b34801561036957600080fd5b5061028c61037836600461248c565b61099f565b34801561038957600080fd5b5061029f6103983660046125f3565b6109ba565b3480156103a957600080fd5b5061029f6103b836600461257a565b610a5b565b3480156103c957600080fd5b506102546103d83660046125f3565b610aff565b3480156103e957600080fd5b5061029f6103f8366004612438565b610b76565b34801561040957600080fd5b5061025461041836600461262f565b610bfd565b34801561042957600080fd5b506101fd61043836600461260b565b610c15565b34801561044957600080fd5b50610227610c40565b34801561045e57600080fd5b5060115461029f565b34801561047357600080fd5b5061029f60115481565b34801561048957600080fd5b5061029f600081565b34801561049e57600080fd5b5061028c6104ad366004612549565b610c4f565b3480156104be57600080fd5b506101fd6104cd3660046125f3565b610c5a565b3480156104de57600080fd5b5061028c6104ed3660046124cc565b610ccc565b3480156104fe57600080fd5b506101fd61050d3660046125f3565b610d04565b61029f610520366004612688565b610d78565b34801561053157600080fd5b506102276105403660046125f3565b610f37565b34801561055157600080fd5b5061029f6105603660046125f3565b610f42565b34801561057157600080fd5b5061028c61058036600461260b565b610f59565b34801561059157600080fd5b506101fd6105a0366004612454565b6001600160a01b03918216600090815260056020908152604080832093909416825291909152205460ff1690565b3480156105da57600080fd5b506101fd6105e9366004612438565b610f7f565b60006105f98261101a565b92915050565b60606000805461060e90612923565b80601f016020809104026020016040519081016040528092919081815260200182805461063a90612923565b80156106875780601f1061065c57610100808354040283529160200191610687565b820191906000526020600020905b81548152906001019060200180831161066a57829003601f168201915b5050505050905090565b600061069c8261103f565b6107025760405162461bcd60e51b815260206004820152602c60248201527f4552433732313a20617070726f76656420717565727920666f72206e6f6e657860448201526b34b9ba32b73a103a37b5b2b760a11b60648201526084015b60405180910390fd5b506000908152600460205260409020546001600160a01b031690565b600061072982610aff565b9050806001600160a01b0316836001600160a01b031614156107975760405162461bcd60e51b815260206004820152602160248201527f4552433732313a20617070726f76616c20746f2063757272656e74206f776e656044820152603960f91b60648201526084016106f9565b336001600160a01b03821614806107b357506107b381336105a0565b6108255760405162461bcd60e51b815260206004820152603860248201527f4552433732313a20617070726f76652063616c6c6572206973206e6f74206f7760448201527f6e6572206e6f7220617070726f76656420666f7220616c6c000000000000000060648201526084016106f9565b61082f838361105c565b505050565b61083e33826110ca565b61085a5760405162461bcd60e51b81526004016106f99061282d565b61082f8383836111b4565b6000828152600b6020526040902060010154610881813361135f565b61082f83836113c3565b600061089683610b76565b82106108f85760405162461bcd60e51b815260206004820152602b60248201527f455243373231456e756d657261626c653a206f776e657220696e646578206f7560448201526a74206f6620626f756e647360a81b60648201526084016106f9565b506001600160a01b03919091166000908152600660209081526040808320938352929052205490565b6001600160a01b03811633146109915760405162461bcd60e51b815260206004820152602f60248201527f416363657373436f6e74726f6c3a2063616e206f6e6c792072656e6f756e636560448201526e103937b632b9903337b91039b2b63360891b60648201526084016106f9565b61099b82826113e5565b5050565b61082f83838360405180602001604052806000815250610ccc565b60006109c560085490565b8210610a285760405162461bcd60e51b815260206004820152602c60248201527f455243373231456e756d657261626c653a20676c6f62616c20696e646578206f60448201526b7574206f6620626f756e647360a01b60648201526084016106f9565b60088281548110610a4957634e487b7160e01b600052603260045260246000fd5b90600052602060002001549050919050565b600f546000906001600160a01b03163314610ac95760405162461bcd60e51b815260206004820152602860248201527f6f6e6c79207468652041646d696e2063616e2067697665206177617920736f6d6044820152676520746f6b656e7360c01b60648201526084016106f9565b610ad7600e80546001019055565b6000610ae2600e5490565b9050610aee8482611407565b610af88184611546565b9392505050565b6000818152600260205260408120546001600160a01b0316806105f95760405162461bcd60e51b815260206004820152602960248201527f4552433732313a206f776e657220717565727920666f72206e6f6e657869737460448201526832b73a103a37b5b2b760b91b60648201526084016106f9565b60006001600160a01b038216610be15760405162461bcd60e51b815260206004820152602a60248201527f4552433732313a2062616c616e636520717565727920666f7220746865207a65604482015269726f206164647265737360b01b60648201526084016106f9565b506001600160a01b031660009081526003602052604090205490565b6000828152600c60205260408120610af890836115d1565b6000918252600b602090815260408084206001600160a01b0393909316845291905290205460ff1690565b60606001805461060e90612923565b61099b3383836115dd565b600f546000906001600160a01b03163314610cc35760405162461bcd60e51b815260206004820152602360248201527f6f6e6c79207468652041646d696e2063616e206368616e67652074686520707260448201526269636560e81b60648201526084016106f9565b50601155600190565b610cd633836110ca565b610cf25760405162461bcd60e51b81526004016106f99061282d565b610cfe848484846116ac565b50505050565b600f546000906001600160a01b03163314610d6f5760405162461bcd60e51b815260206004820152602560248201527f6f6e6c79207468652041646d696e2063616e206368616e67652074686973206e6044820152643ab6b132b960d91b60648201526084016106f9565b50601055600190565b60006002600d541415610dcd5760405162461bcd60e51b815260206004820152601f60248201527f5265656e7472616e637947756172643a207265656e7472616e742063616c6c0060448201526064016106f9565b6002600d55601154610e215760405162461bcd60e51b815260206004820152601c60248201527f5072696365206d757374206265206174206c656173742031207765690000000060448201526064016106f9565b6011543414610e675760405162461bcd60e51b8152602060048201526012602482015271756e73756666696369656e742066756e647360701b60448201526064016106f9565b600060105411610eae5760405162461bcd60e51b81526020600482015260126024820152712334b939ba10323937b81034b99037bb32b960711b60448201526064016106f9565b610ebc600e80546001019055565b6000610ec7600e5490565b9050610ed33382611407565b610edd8184611546565b600f546040516001600160a01b03909116903480156108fc02916000818181858888f19350505050158015610f16573d6000803e3d6000fd5b5060108054906000610f278361290c565b90915550506001600d5592915050565b60606105f9826116df565b6000818152600c602052604081206105f99061184e565b6000828152600b6020526040902060010154610f75813361135f565b61082f83836113e5565b600f546000906001600160a01b03163314610fdc5760405162461bcd60e51b815260206004820152601b60248201527f6f6e6c79207468652041646d696e2063616e207769746864726177000000000060448201526064016106f9565b6040516001600160a01b038316904780156108fc02916000818181858888f19350505050158015611011573d6000803e3d6000fd5b50600192915050565b60006001600160e01b03198216635a05180f60e01b14806105f957506105f982611858565b6000908152600260205260409020546001600160a01b0316151590565b600081815260046020526040902080546001600160a01b0319166001600160a01b038416908117909155819061109182610aff565b6001600160a01b03167f8c5be1e5ebec7d5bd14f71427d1e84f3dd0314c0f7b2291e5b200ac8c7c3b92560405160405180910390a45050565b60006110d58261103f565b6111365760405162461bcd60e51b815260206004820152602c60248201527f4552433732313a206f70657261746f7220717565727920666f72206e6f6e657860448201526b34b9ba32b73a103a37b5b2b760a11b60648201526084016106f9565b600061114183610aff565b9050806001600160a01b0316846001600160a01b0316148061117c5750836001600160a01b031661117184610691565b6001600160a01b0316145b806111ac57506001600160a01b0380821660009081526005602090815260408083209388168352929052205460ff165b949350505050565b826001600160a01b03166111c782610aff565b6001600160a01b03161461122f5760405162461bcd60e51b815260206004820152602960248201527f4552433732313a207472616e73666572206f6620746f6b656e2074686174206960448201526839903737ba1037bbb760b91b60648201526084016106f9565b6001600160a01b0382166112915760405162461bcd60e51b8152602060048201526024808201527f4552433732313a207472616e7366657220746f20746865207a65726f206164646044820152637265737360e01b60648201526084016106f9565b61129c83838361187d565b6112a760008261105c565b6001600160a01b03831660009081526003602052604081208054600192906112d09084906128c9565b90915550506001600160a01b03821660009081526003602052604081208054600192906112fe90849061287e565b909155505060008181526002602052604080822080546001600160a01b0319166001600160a01b0386811691821790925591518493918716917fddf252ad1be2c89b69c2b068fc378daa952ba7f163c4a11628f55a4df523b3ef91a4505050565b6113698282610c15565b61099b57611381816001600160a01b03166014611888565b61138c836020611888565b60405160200161139d929190612716565b60408051601f198184030181529082905262461bcd60e51b82526106f9916004016127c8565b6113cd8282611a6a565b6000828152600c6020526040902061082f9082611af0565b6113ef8282611b05565b6000828152600c6020526040902061082f9082611b6c565b6001600160a01b03821661145d5760405162461bcd60e51b815260206004820181905260248201527f4552433732313a206d696e7420746f20746865207a65726f206164647265737360448201526064016106f9565b6114668161103f565b156114b35760405162461bcd60e51b815260206004820152601c60248201527f4552433732313a20746f6b656e20616c7265616479206d696e7465640000000060448201526064016106f9565b6114bf6000838361187d565b6001600160a01b03821660009081526003602052604081208054600192906114e890849061287e565b909155505060008181526002602052604080822080546001600160a01b0319166001600160a01b03861690811790915590518392907fddf252ad1be2c89b69c2b068fc378daa952ba7f163c4a11628f55a4df523b3ef908290a45050565b61154f8261103f565b6115b25760405162461bcd60e51b815260206004820152602e60248201527f45524337323155524953746f726167653a2055524920736574206f66206e6f6e60448201526d32bc34b9ba32b73a103a37b5b2b760911b60648201526084016106f9565b6000828152600a60209081526040909120825161082f9284019061230a565b6000610af88383611b81565b816001600160a01b0316836001600160a01b0316141561163f5760405162461bcd60e51b815260206004820152601960248201527f4552433732313a20617070726f766520746f2063616c6c65720000000000000060448201526064016106f9565b6001600160a01b03838116600081815260056020908152604080832094871680845294825291829020805460ff191686151590811790915591519182527f17307eab39ab6107e8899845ad3d59bd9653f200f220920489ca2b5937696c31910160405180910390a3505050565b6116b78484846111b4565b6116c384848484611bb9565b610cfe5760405162461bcd60e51b81526004016106f9906127db565b60606116ea8261103f565b6117505760405162461bcd60e51b815260206004820152603160248201527f45524337323155524953746f726167653a2055524920717565727920666f72206044820152703737b732bc34b9ba32b73a103a37b5b2b760791b60648201526084016106f9565b6000828152600a60205260408120805461176990612923565b80601f016020809104026020016040519081016040528092919081815260200182805461179590612923565b80156117e25780601f106117b7576101008083540402835291602001916117e2565b820191906000526020600020905b8154815290600101906020018083116117c557829003601f168201915b50505050509050600061180060408051602081019091526000815290565b9050805160001415611813575092915050565b81511561184557808260405160200161182d9291906126e7565b60405160208183030381529060405292505050919050565b6111ac84611cc6565b60006105f9825490565b60006001600160e01b03198216637965db0b60e01b14806105f957506105f982611d9d565b61082f838383611dc2565b606060006118978360026128aa565b6118a290600261287e565b67ffffffffffffffff8111156118c857634e487b7160e01b600052604160045260246000fd5b6040519080825280601f01601f1916602001820160405280156118f2576020820181803683370190505b509050600360fc1b8160008151811061191b57634e487b7160e01b600052603260045260246000fd5b60200101906001600160f81b031916908160001a905350600f60fb1b8160018151811061195857634e487b7160e01b600052603260045260246000fd5b60200101906001600160f81b031916908160001a905350600061197c8460026128aa565b61198790600161287e565b90505b6001811115611a1b576f181899199a1a9b1b9c1cb0b131b232b360811b85600f16601081106119c957634e487b7160e01b600052603260045260246000fd5b1a60f81b8282815181106119ed57634e487b7160e01b600052603260045260246000fd5b60200101906001600160f81b031916908160001a90535060049490941c93611a148161290c565b905061198a565b508315610af85760405162461bcd60e51b815260206004820181905260248201527f537472696e67733a20686578206c656e67746820696e73756666696369656e7460448201526064016106f9565b611a748282610c15565b61099b576000828152600b602090815260408083206001600160a01b03851684529091529020805460ff19166001179055611aac3390565b6001600160a01b0316816001600160a01b0316837f2f8788117e7eff1d82e926ec794901d17c78024a50270940304540a733656f0d60405160405180910390a45050565b6000610af8836001600160a01b038416611e7a565b611b0f8282610c15565b1561099b576000828152600b602090815260408083206001600160a01b0385168085529252808320805460ff1916905551339285917ff6391f5c32d9c69d2a47ea670b442974b53935d1edc7fd64eb21e047a839171b9190a45050565b6000610af8836001600160a01b038416611ec9565b6000826000018281548110611ba657634e487b7160e01b600052603260045260246000fd5b9060005260206000200154905092915050565b60006001600160a01b0384163b15611cbb57604051630a85bd0160e11b81526001600160a01b0385169063150b7a0290611bfd90339089908890889060040161278b565b602060405180830381600087803b158015611c1757600080fd5b505af1925050508015611c47575060408051601f3d908101601f19168201909252611c449181019061266c565b60015b611ca1573d808015611c75576040519150601f19603f3d011682016040523d82523d6000602084013e611c7a565b606091505b508051611c995760405162461bcd60e51b81526004016106f9906127db565b805181602001fd5b6001600160e01b031916630a85bd0160e11b1490506111ac565b506001949350505050565b6060611cd18261103f565b611d355760405162461bcd60e51b815260206004820152602f60248201527f4552433732314d657461646174613a2055524920717565727920666f72206e6f60448201526e3732bc34b9ba32b73a103a37b5b2b760891b60648201526084016106f9565b6000611d4c60408051602081019091526000815290565b90506000815111611d6c5760405180602001604052806000815250610af8565b80611d7684611fe6565b604051602001611d879291906126e7565b6040516020818303038152906040529392505050565b60006001600160e01b0319821663780e9d6360e01b14806105f957506105f982612100565b6001600160a01b038316611e1d57611e1881600880546000838152600960205260408120829055600182018355919091527ff3f7a9fe364faab93b216da50a3214154f22a0a2b415b23a84c8169e8b636ee30155565b611e40565b816001600160a01b0316836001600160a01b031614611e4057611e408382612150565b6001600160a01b038216611e575761082f816121ed565b826001600160a01b0316826001600160a01b03161461082f5761082f82826122c6565b6000818152600183016020526040812054611ec1575081546001818101845560008481526020808220909301849055845484825282860190935260409020919091556105f9565b5060006105f9565b60008181526001830160205260408120548015611fdc576000611eed6001836128c9565b8554909150600090611f01906001906128c9565b9050818114611f82576000866000018281548110611f2f57634e487b7160e01b600052603260045260246000fd5b9060005260206000200154905080876000018481548110611f6057634e487b7160e01b600052603260045260246000fd5b6000918252602080832090910192909255918252600188019052604090208390555b8554869080611fa157634e487b7160e01b600052603160045260246000fd5b6001900381819060005260206000200160009055905585600101600086815260200190815260200160002060009055600193505050506105f9565b60009150506105f9565b60608161200a5750506040805180820190915260018152600360fc1b602082015290565b8160005b8115612034578061201e8161295e565b915061202d9050600a83612896565b915061200e565b60008167ffffffffffffffff81111561205d57634e487b7160e01b600052604160045260246000fd5b6040519080825280601f01601f191660200182016040528015612087576020820181803683370190505b5090505b84156111ac5761209c6001836128c9565b91506120a9600a86612979565b6120b490603061287e565b60f81b8183815181106120d757634e487b7160e01b600052603260045260246000fd5b60200101906001600160f81b031916908160001a9053506120f9600a86612896565b945061208b565b60006001600160e01b031982166380ac58cd60e01b148061213157506001600160e01b03198216635b5e139f60e01b145b806105f957506301ffc9a760e01b6001600160e01b03198316146105f9565b6000600161215d84610b76565b61216791906128c9565b6000838152600760205260409020549091508082146121ba576001600160a01b03841660009081526006602090815260408083208584528252808320548484528184208190558352600790915290208190555b5060009182526007602090815260408084208490556001600160a01b039094168352600681528383209183525290812055565b6008546000906121ff906001906128c9565b6000838152600960205260408120546008805493945090928490811061223557634e487b7160e01b600052603260045260246000fd5b90600052602060002001549050806008838154811061226457634e487b7160e01b600052603260045260246000fd5b60009182526020808320909101929092558281526009909152604080822084905585825281205560088054806122aa57634e487b7160e01b600052603160045260246000fd5b6001900381819060005260206000200160009055905550505050565b60006122d183610b76565b6001600160a01b039093166000908152600660209081526040808320868452825280832085905593825260079052919091209190915550565b82805461231690612923565b90600052602060002090601f016020900481019282612338576000855561237e565b82601f1061235157805160ff191683800117855561237e565b8280016001018555821561237e579182015b8281111561237e578251825591602001919060010190612363565b5061238a92915061238e565b5090565b5b8082111561238a576000815560010161238f565b600067ffffffffffffffff808411156123be576123be6129b9565b604051601f8501601f19908116603f011681019082821181831017156123e6576123e66129b9565b816040528093508581528686860111156123ff57600080fd5b858560208301376000602087830101525050509392505050565b600082601f830112612429578081fd5b610af8838335602085016123a3565b600060208284031215612449578081fd5b8135610af8816129cf565b60008060408385031215612466578081fd5b8235612471816129cf565b91506020830135612481816129cf565b809150509250929050565b6000806000606084860312156124a0578081fd5b83356124ab816129cf565b925060208401356124bb816129cf565b929592945050506040919091013590565b600080600080608085870312156124e1578081fd5b84356124ec816129cf565b935060208501356124fc816129cf565b925060408501359150606085013567ffffffffffffffff81111561251e578182fd5b8501601f8101871361252e578182fd5b61253d878235602084016123a3565b91505092959194509250565b6000806040838503121561255b578182fd5b8235612566816129cf565b915060208301358015158114612481578182fd5b6000806040838503121561258c578182fd5b8235612597816129cf565b9150602083013567ffffffffffffffff8111156125b2578182fd5b6125be85828601612419565b9150509250929050565b600080604083850312156125da578182fd5b82356125e5816129cf565b946020939093013593505050565b600060208284031215612604578081fd5b5035919050565b6000806040838503121561261d578182fd5b823591506020830135612481816129cf565b60008060408385031215612641578182fd5b50508035926020909101359150565b600060208284031215612661578081fd5b8135610af8816129e7565b60006020828403121561267d578081fd5b8151610af8816129e7565b600060208284031215612699578081fd5b813567ffffffffffffffff8111156126af578182fd5b6111ac84828501612419565b600081518084526126d38160208601602086016128e0565b601f01601f19169290920160200192915050565b600083516126f98184602088016128e0565b83519083019061270d8183602088016128e0565b01949350505050565b7f416363657373436f6e74726f6c3a206163636f756e742000000000000000000081526000835161274e8160178501602088016128e0565b7001034b99036b4b9b9b4b733903937b6329607d1b601791840191820152835161277f8160288401602088016128e0565b01602801949350505050565b6001600160a01b03858116825284166020820152604081018390526080606082018190526000906127be908301846126bb565b9695505050505050565b602081526000610af860208301846126bb565b60208082526032908201527f4552433732313a207472616e7366657220746f206e6f6e20455243373231526560408201527131b2b4bb32b91034b6b83632b6b2b73a32b960711b606082015260800190565b60208082526031908201527f4552433732313a207472616e736665722063616c6c6572206973206e6f74206f6040820152701ddb995c881b9bdc88185c1c1c9bdd9959607a1b606082015260800190565b600082198211156128915761289161298d565b500190565b6000826128a5576128a56129a3565b500490565b60008160001904831182151516156128c4576128c461298d565b500290565b6000828210156128db576128db61298d565b500390565b60005b838110156128fb5781810151838201526020016128e3565b83811115610cfe5750506000910152565b60008161291b5761291b61298d565b506000190190565b600181811c9082168061293757607f821691505b6020821081141561295857634e487b7160e01b600052602260045260246000fd5b50919050565b60006000198214156129725761297261298d565b5060010190565b600082612988576129886129a3565b500690565b634e487b7160e01b600052601160045260246000fd5b634e487b7160e01b600052601260045260246000fd5b634e487b7160e01b600052604160045260246000fd5b6001600160a01b03811681146129e457600080fd5b50565b6001600160e01b0319811681146129e457600080fdfea2646970667358221220e33f0bc2dcf0df2704202bcff1ae6b7480e1b26c0d0c8709edc41b7e6619757464736f6c63430008040033",
  "linkReferences": {},
  "deployedLinkReferences": {}
}